{
  "_format": "hh-sol-artifact-1",
  "contractName": "RareNFT",
  "sourceName": "contracts/RareNFT.sol",
  "abi": [
    {
      "inputs": [],
      "stateMutability": "nonpayable",
      "type": "constructor"
    },
    {
      "anonymous": false,
      "inputs": [
        {
          "indexed": true,
          "internalType": "address",
          "name": "owner",
          "type": "address"
        },
        {
          "indexed": true,
          "internalType": "address",
          "name": "approved",
          "type": "address"
        },
        {
          "indexed": true,
          "internalType": "uint256",
          "name": "tokenId",
          "type": "uint256"
        }
      ],
      "name": "Approval",
      "type": "event"
    },
    {
      "anonymous": false,
      "inputs": [
        {
          "indexed": true,
          "internalType": "address",
          "name": "owner",
          "type": "address"
        },
        {
          "indexed": true,
          "internalType": "address",
          "name": "operator",
          "type": "address"
        },
        {
          "indexed": false,
          "internalType": "bool",
          "name": "approved",
          "type": "bool"
        }
      ],
      "name": "ApprovalForAll",
      "type": "event"
    },
    {
      "anonymous": false,
      "inputs": [
        {
          "indexed": true,
          "internalType": "address",
          "name": "from",
          "type": "address"
        },
        {
          "indexed": true,
          "internalType": "address",
          "name": "to",
          "type": "address"
        },
        {
          "indexed": true,
          "internalType": "uint256",
          "name": "tokenId",
          "type": "uint256"
        }
      ],
      "name": "Transfer",
      "type": "event"
    },
    {
      "inputs": [
        {
          "internalType": "address",
          "name": "to",
          "type": "address"
        },
        {
          "internalType": "uint256",
          "name": "tokenId",
          "type": "uint256"
        }
      ],
      "name": "approve",
      "outputs": [],
      "stateMutability": "nonpayable",
      "type": "function"
    },
    {
      "inputs": [
        {
          "internalType": "address",
          "name": "owner",
          "type": "address"
        }
      ],
      "name": "balanceOf",
      "outputs": [
        {
          "internalType": "uint256",
          "name": "",
          "type": "uint256"
        }
      ],
      "stateMutability": "view",
      "type": "function"
    },
    {
      "inputs": [
        {
          "internalType": "uint256",
          "name": "tokenId",
          "type": "uint256"
        }
      ],
      "name": "getApproved",
      "outputs": [
        {
          "internalType": "address",
          "name": "",
          "type": "address"
        }
      ],
      "stateMutability": "view",
      "type": "function"
    },
    {
      "inputs": [
        {
          "internalType": "address",
          "name": "owner",
          "type": "address"
        },
        {
          "internalType": "address",
          "name": "operator",
          "type": "address"
        }
      ],
      "name": "isApprovedForAll",
      "outputs": [
        {
          "internalType": "bool",
          "name": "",
          "type": "bool"
        }
      ],
      "stateMutability": "view",
      "type": "function"
    },
    {
      "inputs": [
        {
          "internalType": "address",
          "name": "to",
          "type": "address"
        }
      ],
      "name": "mint",
      "outputs": [
        {
          "internalType": "uint256",
          "name": "",
          "type": "uint256"
        }
      ],
      "stateMutability": "nonpayable",
      "type": "function"
    },
    {
      "inputs": [],
      "name": "name",
      "outputs": [
        {
          "internalType": "string",
          "name": "",
          "type": "string"
        }
      ],
      "stateMutability": "view",
      "type": "function"
    },
    {
      "inputs": [
        {
          "internalType": "uint256",
          "name": "tokenId",
          "type": "uint256"
        }
      ],
      "name": "ownerOf",
      "outputs": [
        {
          "internalType": "address",
          "name": "",
          "type": "address"
        }
      ],
      "stateMutability": "view",
      "type": "function"
    },
    {
      "inputs": [
        {
          "internalType": "address",
          "name": "from",
          "type": "address"
        },
        {
          "internalType": "address",
          "name": "to",
          "type": "address"
        },
        {
          "internalType": "uint256",
          "name": "tokenId",
          "type": "uint256"
        }
      ],
      "name": "safeTransferFrom",
      "outputs": [],
      "stateMutability": "nonpayable",
      "type": "function"
    },
    {
      "inputs": [
        {
          "internalType": "address",
          "name": "from",
          "type": "address"
        },
        {
          "internalType": "address",
          "name": "to",
          "type": "address"
        },
        {
          "internalType": "uint256",
          "name": "tokenId",
          "type": "uint256"
        },
        {
          "internalType": "bytes",
          "name": "_data",
          "type": "bytes"
        }
      ],
      "name": "safeTransferFrom",
      "outputs": [],
      "stateMutability": "nonpayable",
      "type": "function"
    },
    {
      "inputs": [
        {
          "internalType": "address",
          "name": "operator",
          "type": "address"
        },
        {
          "internalType": "bool",
          "name": "approved",
          "type": "bool"
        }
      ],
      "name": "setApprovalForAll",
      "outputs": [],
      "stateMutability": "nonpayable",
      "type": "function"
    },
    {
      "inputs": [
        {
          "internalType": "bytes4",
          "name": "interfaceId",
          "type": "bytes4"
        }
      ],
      "name": "supportsInterface",
      "outputs": [
        {
          "internalType": "bool",
          "name": "",
          "type": "bool"
        }
      ],
      "stateMutability": "view",
      "type": "function"
    },
    {
      "inputs": [],
      "name": "symbol",
      "outputs": [
        {
          "internalType": "string",
          "name": "",
          "type": "string"
        }
      ],
      "stateMutability": "view",
      "type": "function"
    },
    {
      "inputs": [
        {
          "internalType": "uint256",
          "name": "tokenId",
          "type": "uint256"
        }
      ],
      "name": "tokenURI",
      "outputs": [
        {
          "internalType": "string",
          "name": "",
          "type": "string"
        }
      ],
      "stateMutability": "view",
      "type": "function"
    },
    {
      "inputs": [
        {
          "internalType": "address",
          "name": "from",
          "type": "address"
        },
        {
          "internalType": "address",
          "name": "to",
          "type": "address"
        },
        {
          "internalType": "uint256",
          "name": "tokenId",
          "type": "uint256"
        }
      ],
      "name": "transferFrom",
      "outputs": [],
      "stateMutability": "nonpayable",
      "type": "function"
    }
  ],
  "bytecode": "0x60806040523480156200001157600080fd5b506040518060400160405280600781526020017f526172654e4654000000000000000000000000000000000000000000000000008152506040518060400160405280600481526020017f5241524500000000000000000000000000000000000000000000000000000000815250816000908051906020019062000096929190620000b8565b508060019080519060200190620000af929190620000b8565b505050620001cd565b828054620000c69062000168565b90600052602060002090601f016020900481019282620000ea576000855562000136565b82601f106200010557805160ff191683800117855562000136565b8280016001018555821562000136579182015b828111156200013557825182559160200191906001019062000118565b5b50905062000145919062000149565b5090565b5b80821115620001645760008160009055506001016200014a565b5090565b600060028204905060018216806200018157607f821691505b602082108114156200019857620001976200019e565b5b50919050565b7f4e487b7100000000000000000000000000000000000000000000000000000000600052602260045260246000fd5b61270e80620001dd6000396000f3fe608060405234801561001057600080fd5b50600436106100ea5760003560e01c80636a6278421161008c578063a22cb46511610066578063a22cb4651461026f578063b88d4fde1461028b578063c87b56dd146102a7578063e985e9c5146102d7576100ea565b80636a627842146101f157806370a082311461022157806395d89b4114610251576100ea565b8063095ea7b3116100c8578063095ea7b31461016d57806323b872dd1461018957806342842e0e146101a55780636352211e146101c1576100ea565b806301ffc9a7146100ef57806306fdde031461011f578063081812fc1461013d575b600080fd5b610109600480360381019061010491906118c1565b610307565b6040516101169190611c8d565b60405180910390f35b6101276103e9565b6040516101349190611ca8565b60405180910390f35b6101576004803603810190610152919061191b565b61047b565b6040516101649190611c26565b60405180910390f35b61018760048036038101906101829190611881565b610500565b005b6101a3600480360381019061019e919061176b565b610618565b005b6101bf60048036038101906101ba919061176b565b610678565b005b6101db60048036038101906101d6919061191b565b610698565b6040516101e89190611c26565b60405180910390f35b61020b600480360381019061020691906116fe565b61074a565b6040516102189190611e8a565b60405180910390f35b61023b600480360381019061023691906116fe565b610777565b6040516102489190611e8a565b60405180910390f35b61025961082f565b6040516102669190611ca8565b60405180910390f35b61028960048036038101906102849190611841565b6108c1565b005b6102a560048036038101906102a091906117be565b610a42565b005b6102c160048036038101906102bc919061191b565b610aa4565b6040516102ce9190611ca8565b60405180910390f35b6102f160048036038101906102ec919061172b565b610b4b565b6040516102fe9190611c8d565b60405180910390f35b60007f80ac58cd000000000000000000000000000000000000000000000000000000007bffffffffffffffffffffffffffffffffffffffffffffffffffffffff1916827bffffffffffffffffffffffffffffffffffffffffffffffffffffffff191614806103d257507f5b5e139f000000000000000000000000000000000000000000000000000000007bffffffffffffffffffffffffffffffffffffffffffffffffffffffff1916827bffffffffffffffffffffffffffffffffffffffffffffffffffffffff1916145b806103e257506103e182610bdf565b5b9050919050565b6060600080546103f8906120af565b80601f0160208091040260200160405190810160405280929190818152602001828054610424906120af565b80156104715780601f1061044657610100808354040283529160200191610471565b820191906000526020600020905b81548152906001019060200180831161045457829003601f168201915b5050505050905090565b600061048682610c49565b6104c5576040517f08c379a00000000000000000000000000000000000000000000000000000000081526004016104bc90611dea565b60405180910390fd5b6004600083815260200190815260200160002060009054906101000a900473ffffffffffffffffffffffffffffffffffffffff169050919050565b600061050b82610698565b90508073ffffffffffffffffffffffffffffffffffffffff168373ffffffffffffffffffffffffffffffffffffffff16141561057c576040517f08c379a000000000000000000000000000000000000000000000000000000000815260040161057390611e4a565b60405180910390fd5b8073ffffffffffffffffffffffffffffffffffffffff1661059b610cb5565b73ffffffffffffffffffffffffffffffffffffffff1614806105ca57506105c9816105c4610cb5565b610b4b565b5b610609576040517f08c379a000000000000000000000000000000000000000000000000000000000815260040161060090611d6a565b60405180910390fd5b6106138383610cbd565b505050565b610629610623610cb5565b82610d76565b610668576040517f08c379a000000000000000000000000000000000000000000000000000000000815260040161065f90611e6a565b60405180910390fd5b610673838383610e54565b505050565b61069383838360405180602001604052806000815250610a42565b505050565b6000806002600084815260200190815260200160002060009054906101000a900473ffffffffffffffffffffffffffffffffffffffff169050600073ffffffffffffffffffffffffffffffffffffffff168173ffffffffffffffffffffffffffffffffffffffff161415610741576040517f08c379a000000000000000000000000000000000000000000000000000000000815260040161073890611daa565b60405180910390fd5b80915050919050565b600061075660066110b0565b600061076260066110c6565b905061076e83826110d4565b80915050919050565b60008073ffffffffffffffffffffffffffffffffffffffff168273ffffffffffffffffffffffffffffffffffffffff1614156107e8576040517f08c379a00000000000000000000000000000000000000000000000000000000081526004016107df90611d8a565b60405180910390fd5b600360008373ffffffffffffffffffffffffffffffffffffffff1673ffffffffffffffffffffffffffffffffffffffff168152602001908152602001600020549050919050565b60606001805461083e906120af565b80601f016020809104026020016040519081016040528092919081815260200182805461086a906120af565b80156108b75780601f1061088c576101008083540402835291602001916108b7565b820191906000526020600020905b81548152906001019060200180831161089a57829003601f168201915b5050505050905090565b6108c9610cb5565b73ffffffffffffffffffffffffffffffffffffffff168273ffffffffffffffffffffffffffffffffffffffff161415610937576040517f08c379a000000000000000000000000000000000000000000000000000000000815260040161092e90611d2a565b60405180910390fd5b8060056000610944610cb5565b73ffffffffffffffffffffffffffffffffffffffff1673ffffffffffffffffffffffffffffffffffffffff16815260200190815260200160002060008473ffffffffffffffffffffffffffffffffffffffff1673ffffffffffffffffffffffffffffffffffffffff16815260200190815260200160002060006101000a81548160ff0219169083151502179055508173ffffffffffffffffffffffffffffffffffffffff166109f1610cb5565b73ffffffffffffffffffffffffffffffffffffffff167f17307eab39ab6107e8899845ad3d59bd9653f200f220920489ca2b5937696c3183604051610a369190611c8d565b60405180910390a35050565b610a53610a4d610cb5565b83610d76565b610a92576040517f08c379a0000000000000000000000000000000000000000000000000000000008152600401610a8990611e6a565b60405180910390fd5b610a9e848484846112a2565b50505050565b6060610aaf82610c49565b610aee576040517f08c379a0000000000000000000000000000000000000000000000000000000008152600401610ae590611e2a565b60405180910390fd5b6000610af86112fe565b90506000815111610b185760405180602001604052806000815250610b43565b80610b2284611315565b604051602001610b33929190611c02565b6040516020818303038152906040525b915050919050565b6000600560008473ffffffffffffffffffffffffffffffffffffffff1673ffffffffffffffffffffffffffffffffffffffff16815260200190815260200160002060008373ffffffffffffffffffffffffffffffffffffffff1673ffffffffffffffffffffffffffffffffffffffff16815260200190815260200160002060009054906101000a900460ff16905092915050565b60007f01ffc9a7000000000000000000000000000000000000000000000000000000007bffffffffffffffffffffffffffffffffffffffffffffffffffffffff1916827bffffffffffffffffffffffffffffffffffffffffffffffffffffffff1916149050919050565b60008073ffffffffffffffffffffffffffffffffffffffff166002600084815260200190815260200160002060009054906101000a900473ffffffffffffffffffffffffffffffffffffffff1673ffffffffffffffffffffffffffffffffffffffff1614159050919050565b600033905090565b816004600083815260200190815260200160002060006101000a81548173ffffffffffffffffffffffffffffffffffffffff021916908373ffffffffffffffffffffffffffffffffffffffff160217905550808273ffffffffffffffffffffffffffffffffffffffff16610d3083610698565b73ffffffffffffffffffffffffffffffffffffffff167f8c5be1e5ebec7d5bd14f71427d1e84f3dd0314c0f7b2291e5b200ac8c7c3b92560405160405180910390a45050565b6000610d8182610c49565b610dc0576040517f08c379a0000000000000000000000000000000000000000000000000000000008152600401610db790611d4a565b60405180910390fd5b6000610dcb83610698565b90508073ffffffffffffffffffffffffffffffffffffffff168473ffffffffffffffffffffffffffffffffffffffff161480610e3a57508373ffffffffffffffffffffffffffffffffffffffff16610e228461047b565b73ffffffffffffffffffffffffffffffffffffffff16145b80610e4b5750610e4a8185610b4b565b5b91505092915050565b8273ffffffffffffffffffffffffffffffffffffffff16610e7482610698565b73ffffffffffffffffffffffffffffffffffffffff1614610eca576040517f08c379a0000000000000000000000000000000000000000000000000000000008152600401610ec190611e0a565b60405180910390fd5b600073ffffffffffffffffffffffffffffffffffffffff168273ffffffffffffffffffffffffffffffffffffffff161415610f3a576040517f08c379a0000000000000000000000000000000000000000000000000000000008152600401610f3190611d0a565b60405180910390fd5b610f45838383611476565b610f50600082610cbd565b6001600360008573ffffffffffffffffffffffffffffffffffffffff1673ffffffffffffffffffffffffffffffffffffffff1681526020019081526020016000206000828254610fa09190611fc5565b925050819055506001600360008473ffffffffffffffffffffffffffffffffffffffff1673ffffffffffffffffffffffffffffffffffffffff1681526020019081526020016000206000828254610ff79190611f3e565b92505081905550816002600083815260200190815260200160002060006101000a81548173ffffffffffffffffffffffffffffffffffffffff021916908373ffffffffffffffffffffffffffffffffffffffff160217905550808273ffffffffffffffffffffffffffffffffffffffff168473ffffffffffffffffffffffffffffffffffffffff167fddf252ad1be2c89b69c2b068fc378daa952ba7f163c4a11628f55a4df523b3ef60405160405180910390a4505050565b6001816000016000828254019250508190555050565b600081600001549050919050565b600073ffffffffffffffffffffffffffffffffffffffff168273ffffffffffffffffffffffffffffffffffffffff161415611144576040517f08c379a000000000000000000000000000000000000000000000000000000000815260040161113b90611dca565b60405180910390fd5b61114d81610c49565b1561118d576040517f08c379a000000000000000000000000000000000000000000000000000000000815260040161118490611cea565b60405180910390fd5b61119960008383611476565b6001600360008473ffffffffffffffffffffffffffffffffffffffff1673ffffffffffffffffffffffffffffffffffffffff16815260200190815260200160002060008282546111e99190611f3e565b92505081905550816002600083815260200190815260200160002060006101000a81548173ffffffffffffffffffffffffffffffffffffffff021916908373ffffffffffffffffffffffffffffffffffffffff160217905550808273ffffffffffffffffffffffffffffffffffffffff16600073ffffffffffffffffffffffffffffffffffffffff167fddf252ad1be2c89b69c2b068fc378daa952ba7f163c4a11628f55a4df523b3ef60405160405180910390a45050565b6112ad848484610e54565b6112b98484848461147b565b6112f8576040517f08c379a00000000000000000000000000000000000000000000000000000000081526004016112ef90611cca565b60405180910390fd5b50505050565b606060405180602001604052806000815250905090565b6060600082141561135d576040518060400160405280600181526020017f30000000000000000000000000000000000000000000000000000000000000008152509050611471565b600082905060005b6000821461138f57808061137890612112565b915050600a826113889190611f94565b9150611365565b60008167ffffffffffffffff8111156113ab576113aa612248565b5b6040519080825280601f01601f1916602001820160405280156113dd5781602001600182028036833780820191505090505b5090505b6000851461146a576001826113f69190611fc5565b9150600a85611405919061215b565b60306114119190611f3e565b60f81b81838151811061142757611426612219565b5b60200101907effffffffffffffffffffffffffffffffffffffffffffffffffffffffffffff1916908160001a905350600a856114639190611f94565b94506113e1565b8093505050505b919050565b505050565b600061149c8473ffffffffffffffffffffffffffffffffffffffff16611612565b15611605578373ffffffffffffffffffffffffffffffffffffffff1663150b7a026114c5610cb5565b8786866040518563ffffffff1660e01b81526004016114e79493929190611c41565b602060405180830381600087803b15801561150157600080fd5b505af192505050801561153257506040513d601f19601f8201168201806040525081019061152f91906118ee565b60015b6115b5573d8060008114611562576040519150601f19603f3d011682016040523d82523d6000602084013e611567565b606091505b506000815114156115ad576040517f08c379a00000000000000000000000000000000000000000000000000000000081526004016115a490611cca565b60405180910390fd5b805181602001fd5b63150b7a0260e01b7bffffffffffffffffffffffffffffffffffffffffffffffffffffffff1916817bffffffffffffffffffffffffffffffffffffffffffffffffffffffff19161491505061160a565b600190505b949350505050565b600080823b905060008111915050919050565b600061163861163384611eca565b611ea5565b9050828152602081018484840111156116545761165361227c565b5b61165f84828561206d565b509392505050565b6000813590506116768161267c565b92915050565b60008135905061168b81612693565b92915050565b6000813590506116a0816126aa565b92915050565b6000815190506116b5816126aa565b92915050565b600082601f8301126116d0576116cf612277565b5b81356116e0848260208601611625565b91505092915050565b6000813590506116f8816126c1565b92915050565b60006020828403121561171457611713612286565b5b600061172284828501611667565b91505092915050565b6000806040838503121561174257611741612286565b5b600061175085828601611667565b925050602061176185828601611667565b9150509250929050565b60008060006060848603121561178457611783612286565b5b600061179286828701611667565b93505060206117a386828701611667565b92505060406117b4868287016116e9565b9150509250925092565b600080600080608085870312156117d8576117d7612286565b5b60006117e687828801611667565b94505060206117f787828801611667565b9350506040611808878288016116e9565b925050606085013567ffffffffffffffff81111561182957611828612281565b5b611835878288016116bb565b91505092959194509250565b6000806040838503121561185857611857612286565b5b600061186685828601611667565b92505060206118778582860161167c565b9150509250929050565b6000806040838503121561189857611897612286565b5b60006118a685828601611667565b92505060206118b7858286016116e9565b9150509250929050565b6000602082840312156118d7576118d6612286565b5b60006118e584828501611691565b91505092915050565b60006020828403121561190457611903612286565b5b6000611912848285016116a6565b91505092915050565b60006020828403121561193157611930612286565b5b600061193f848285016116e9565b91505092915050565b61195181611ff9565b82525050565b6119608161200b565b82525050565b600061197182611efb565b61197b8185611f11565b935061198b81856020860161207c565b6119948161228b565b840191505092915050565b60006119aa82611f06565b6119b48185611f22565b93506119c481856020860161207c565b6119cd8161228b565b840191505092915050565b60006119e382611f06565b6119ed8185611f33565b93506119fd81856020860161207c565b80840191505092915050565b6000611a16603283611f22565b9150611a218261229c565b604082019050919050565b6000611a39601c83611f22565b9150611a44826122eb565b602082019050919050565b6000611a5c602483611f22565b9150611a6782612314565b604082019050919050565b6000611a7f601983611f22565b9150611a8a82612363565b602082019050919050565b6000611aa2602c83611f22565b9150611aad8261238c565b604082019050919050565b6000611ac5603883611f22565b9150611ad0826123db565b604082019050919050565b6000611ae8602a83611f22565b9150611af38261242a565b604082019050919050565b6000611b0b602983611f22565b9150611b1682612479565b604082019050919050565b6000611b2e602083611f22565b9150611b39826124c8565b602082019050919050565b6000611b51602c83611f22565b9150611b5c826124f1565b604082019050919050565b6000611b74602983611f22565b9150611b7f82612540565b604082019050919050565b6000611b97602f83611f22565b9150611ba28261258f565b604082019050919050565b6000611bba602183611f22565b9150611bc5826125de565b604082019050919050565b6000611bdd603183611f22565b9150611be88261262d565b604082019050919050565b611bfc81612063565b82525050565b6000611c0e82856119d8565b9150611c1a82846119d8565b91508190509392505050565b6000602082019050611c3b6000830184611948565b92915050565b6000608082019050611c566000830187611948565b611c636020830186611948565b611c706040830185611bf3565b8181036060830152611c828184611966565b905095945050505050565b6000602082019050611ca26000830184611957565b92915050565b60006020820190508181036000830152611cc2818461199f565b905092915050565b60006020820190508181036000830152611ce381611a09565b9050919050565b60006020820190508181036000830152611d0381611a2c565b9050919050565b60006020820190508181036000830152611d2381611a4f565b9050919050565b60006020820190508181036000830152611d4381611a72565b9050919050565b60006020820190508181036000830152611d6381611a95565b9050919050565b60006020820190508181036000830152611d8381611ab8565b9050919050565b60006020820190508181036000830152611da381611adb565b9050919050565b60006020820190508181036000830152611dc381611afe565b9050919050565b60006020820190508181036000830152611de381611b21565b9050919050565b60006020820190508181036000830152611e0381611b44565b9050919050565b60006020820190508181036000830152611e2381611b67565b9050919050565b60006020820190508181036000830152611e4381611b8a565b9050919050565b60006020820190508181036000830152611e6381611bad565b9050919050565b60006020820190508181036000830152611e8381611bd0565b9050919050565b6000602082019050611e9f6000830184611bf3565b92915050565b6000611eaf611ec0565b9050611ebb82826120e1565b919050565b6000604051905090565b600067ffffffffffffffff821115611ee557611ee4612248565b5b611eee8261228b565b9050602081019050919050565b600081519050919050565b600081519050919050565b600082825260208201905092915050565b600082825260208201905092915050565b600081905092915050565b6000611f4982612063565b9150611f5483612063565b9250827fffffffffffffffffffffffffffffffffffffffffffffffffffffffffffffffff03821115611f8957611f8861218c565b5b828201905092915050565b6000611f9f82612063565b9150611faa83612063565b925082611fba57611fb96121bb565b5b828204905092915050565b6000611fd082612063565b9150611fdb83612063565b925082821015611fee57611fed61218c565b5b828203905092915050565b600061200482612043565b9050919050565b60008115159050919050565b60007fffffffff0000000000000000000000000000000000000000000000000000000082169050919050565b600073ffffffffffffffffffffffffffffffffffffffff82169050919050565b6000819050919050565b82818337600083830152505050565b60005b8381101561209a57808201518184015260208101905061207f565b838111156120a9576000848401525b50505050565b600060028204905060018216806120c757607f821691505b602082108114156120db576120da6121ea565b5b50919050565b6120ea8261228b565b810181811067ffffffffffffffff8211171561210957612108612248565b5b80604052505050565b600061211d82612063565b91507fffffffffffffffffffffffffffffffffffffffffffffffffffffffffffffffff8214156121505761214f61218c565b5b600182019050919050565b600061216682612063565b915061217183612063565b925082612181576121806121bb565b5b828206905092915050565b7f4e487b7100000000000000000000000000000000000000000000000000000000600052601160045260246000fd5b7f4e487b7100000000000000000000000000000000000000000000000000000000600052601260045260246000fd5b7f4e487b7100000000000000000000000000000000000000000000000000000000600052602260045260246000fd5b7f4e487b7100000000000000000000000000000000000000000000000000000000600052603260045260246000fd5b7f4e487b7100000000000000000000000000000000000000000000000000000000600052604160045260246000fd5b600080fd5b600080fd5b600080fd5b600080fd5b6000601f19601f8301169050919050565b7f4552433732313a207472616e7366657220746f206e6f6e20455243373231526560008201527f63656976657220696d706c656d656e7465720000000000000000000000000000602082015250565b7f4552433732313a20746f6b656e20616c7265616479206d696e74656400000000600082015250565b7f4552433732313a207472616e7366657220746f20746865207a65726f2061646460008201527f7265737300000000000000000000000000000000000000000000000000000000602082015250565b7f4552433732313a20617070726f766520746f2063616c6c657200000000000000600082015250565b7f4552433732313a206f70657261746f7220717565727920666f72206e6f6e657860008201527f697374656e7420746f6b656e0000000000000000000000000000000000000000602082015250565b7f4552433732313a20617070726f76652063616c6c6572206973206e6f74206f7760008201527f6e6572206e6f7220617070726f76656420666f7220616c6c0000000000000000602082015250565b7f4552433732313a2062616c616e636520717565727920666f7220746865207a6560008201527f726f206164647265737300000000000000000000000000000000000000000000602082015250565b7f4552433732313a206f776e657220717565727920666f72206e6f6e657869737460008201527f656e7420746f6b656e0000000000000000000000000000000000000000000000602082015250565b7f4552433732313a206d696e7420746f20746865207a65726f2061646472657373600082015250565b7f4552433732313a20617070726f76656420717565727920666f72206e6f6e657860008201527f697374656e7420746f6b656e0000000000000000000000000000000000000000602082015250565b7f4552433732313a207472616e73666572206f6620746f6b656e2074686174206960008201527f73206e6f74206f776e0000000000000000000000000000000000000000000000602082015250565b7f4552433732314d657461646174613a2055524920717565727920666f72206e6f60008201527f6e6578697374656e7420746f6b656e0000000000000000000000000000000000602082015250565b7f4552433732313a20617070726f76616c20746f2063757272656e74206f776e6560008201527f7200000000000000000000000000000000000000000000000000000000000000602082015250565b7f4552433732313a207472616e736665722063616c6c6572206973206e6f74206f60008201527f776e6572206e6f7220617070726f766564000000000000000000000000000000602082015250565b61268581611ff9565b811461269057600080fd5b50565b61269c8161200b565b81146126a757600080fd5b50565b6126b381612017565b81146126be57600080fd5b50565b6126ca81612063565b81146126d557600080fd5b5056fea26469706673582212201db87412b2f24ab8e71448a28a66b314b0991e9056bb1c6dd5450a7ed519ecf064736f6c63430008070033",
  "linkReferences": {},
  "deployedLinkReferences": {}
}