{
  "_format": "hh-sol-artifact-1",
  "contractName": "CToken",
  "sourceName": "contracts/CToken.sol",
  "abi": [
    {
      "inputs": [],
      "stateMutability": "nonpayable",
      "type": "constructor"
    },
    {
      "anonymous": false,
      "inputs": [
        {
          "indexed": true,
          "internalType": "address",
          "name": "owner",
          "type": "address"
        },
        {
          "indexed": true,
          "internalType": "address",
          "name": "spender",
          "type": "address"
        },
        {
          "indexed": false,
          "internalType": "uint256",
          "name": "value",
          "type": "uint256"
        }
      ],
      "name": "Approval",
      "type": "event"
    },
    {
      "anonymous": false,
      "inputs": [
        {
          "indexed": true,
          "internalType": "address",
          "name": "delegator",
          "type": "address"
        },
        {
          "indexed": true,
          "internalType": "address",
          "name": "fromDelegate",
          "type": "address"
        },
        {
          "indexed": true,
          "internalType": "address",
          "name": "toDelegate",
          "type": "address"
        }
      ],
      "name": "DelegateChanged",
      "type": "event"
    },
    {
      "anonymous": false,
      "inputs": [
        {
          "indexed": true,
          "internalType": "address",
          "name": "from",
          "type": "address"
        },
        {
          "indexed": true,
          "internalType": "address",
          "name": "to",
          "type": "address"
        },
        {
          "indexed": false,
          "internalType": "uint256",
          "name": "value",
          "type": "uint256"
        }
      ],
      "name": "Transfer",
      "type": "event"
    },
    {
      "inputs": [
        {
          "internalType": "address",
          "name": "owner",
          "type": "address"
        },
        {
          "internalType": "address",
          "name": "spender",
          "type": "address"
        }
      ],
      "name": "allowance",
      "outputs": [
        {
          "internalType": "uint256",
          "name": "",
          "type": "uint256"
        }
      ],
      "stateMutability": "view",
      "type": "function"
    },
    {
      "inputs": [
        {
          "internalType": "address",
          "name": "spender",
          "type": "address"
        },
        {
          "internalType": "uint256",
          "name": "amount",
          "type": "uint256"
        }
      ],
      "name": "approve",
      "outputs": [
        {
          "internalType": "bool",
          "name": "",
          "type": "bool"
        }
      ],
      "stateMutability": "nonpayable",
      "type": "function"
    },
    {
      "inputs": [
        {
          "internalType": "address",
          "name": "account",
          "type": "address"
        }
      ],
      "name": "balanceOf",
      "outputs": [
        {
          "internalType": "uint256",
          "name": "",
          "type": "uint256"
        }
      ],
      "stateMutability": "view",
      "type": "function"
    },
    {
      "inputs": [
        {
          "internalType": "address",
          "name": "account",
          "type": "address"
        },
        {
          "internalType": "uint256",
          "name": "amount",
          "type": "uint256"
        }
      ],
      "name": "burn",
      "outputs": [
        {
          "internalType": "bool",
          "name": "",
          "type": "bool"
        }
      ],
      "stateMutability": "nonpayable",
      "type": "function"
    },
    {
      "inputs": [],
      "name": "decimals",
      "outputs": [
        {
          "internalType": "uint8",
          "name": "",
          "type": "uint8"
        }
      ],
      "stateMutability": "view",
      "type": "function"
    },
    {
      "inputs": [
        {
          "internalType": "address",
          "name": "spender",
          "type": "address"
        },
        {
          "internalType": "uint256",
          "name": "subtractedValue",
          "type": "uint256"
        }
      ],
      "name": "decreaseAllowance",
      "outputs": [
        {
          "internalType": "bool",
          "name": "",
          "type": "bool"
        }
      ],
      "stateMutability": "nonpayable",
      "type": "function"
    },
    {
      "inputs": [
        {
          "internalType": "address",
          "name": "delegatee",
          "type": "address"
        }
      ],
      "name": "delegate",
      "outputs": [],
      "stateMutability": "nonpayable",
      "type": "function"
    },
    {
      "inputs": [
        {
          "internalType": "address",
          "name": "",
          "type": "address"
        }
      ],
      "name": "delegates",
      "outputs": [
        {
          "internalType": "address",
          "name": "",
          "type": "address"
        }
      ],
      "stateMutability": "view",
      "type": "function"
    },
    {
      "inputs": [
        {
          "internalType": "address",
          "name": "account",
          "type": "address"
        }
      ],
      "name": "getVotingBalance",
      "outputs": [
        {
          "internalType": "uint256",
          "name": "",
          "type": "uint256"
        }
      ],
      "stateMutability": "view",
      "type": "function"
    },
    {
      "inputs": [
        {
          "internalType": "address",
          "name": "spender",
          "type": "address"
        },
        {
          "internalType": "uint256",
          "name": "addedValue",
          "type": "uint256"
        }
      ],
      "name": "increaseAllowance",
      "outputs": [
        {
          "internalType": "bool",
          "name": "",
          "type": "bool"
        }
      ],
      "stateMutability": "nonpayable",
      "type": "function"
    },
    {
      "inputs": [],
      "name": "name",
      "outputs": [
        {
          "internalType": "string",
          "name": "",
          "type": "string"
        }
      ],
      "stateMutability": "view",
      "type": "function"
    },
    {
      "inputs": [],
      "name": "symbol",
      "outputs": [
        {
          "internalType": "string",
          "name": "",
          "type": "string"
        }
      ],
      "stateMutability": "view",
      "type": "function"
    },
    {
      "inputs": [],
      "name": "totalSupply",
      "outputs": [
        {
          "internalType": "uint256",
          "name": "",
          "type": "uint256"
        }
      ],
      "stateMutability": "view",
      "type": "function"
    },
    {
      "inputs": [
        {
          "internalType": "address",
          "name": "recipient",
          "type": "address"
        },
        {
          "internalType": "uint256",
          "name": "amount",
          "type": "uint256"
        }
      ],
      "name": "transfer",
      "outputs": [
        {
          "internalType": "bool",
          "name": "",
          "type": "bool"
        }
      ],
      "stateMutability": "nonpayable",
      "type": "function"
    },
    {
      "inputs": [
        {
          "internalType": "address",
          "name": "sender",
          "type": "address"
        },
        {
          "internalType": "address",
          "name": "recipient",
          "type": "address"
        },
        {
          "internalType": "uint256",
          "name": "amount",
          "type": "uint256"
        }
      ],
      "name": "transferFrom",
      "outputs": [
        {
          "internalType": "bool",
          "name": "",
          "type": "bool"
        }
      ],
      "stateMutability": "nonpayable",
      "type": "function"
    },
    {
      "inputs": [
        {
          "internalType": "address",
          "name": "",
          "type": "address"
        }
      ],
      "name": "votingBalance",
      "outputs": [
        {
          "internalType": "uint256",
          "name": "",
          "type": "uint256"
        }
      ],
      "stateMutability": "view",
      "type": "function"
    }
  ],
  "bytecode": "0x60806040523480156200001157600080fd5b506040518060400160405280600f81526020017f436f6c6c6563746f7220546f6b656e00000000000000000000000000000000008152506040518060400160405280600381526020017f435452000000000000000000000000000000000000000000000000000000000081525081600390805190602001906200009692919062000281565b508060049080519060200190620000af92919062000281565b505050620000ef33620000c7620000f560201b60201c565b600a620000d5919062000471565b600a620000e39190620005ae565b620000fe60201b60201c565b620006f0565b60006012905090565b600073ffffffffffffffffffffffffffffffffffffffff168273ffffffffffffffffffffffffffffffffffffffff16141562000171576040517f08c379a0000000000000000000000000000000000000000000000000000000008152600401620001689062000369565b60405180910390fd5b62000185600083836200027760201b60201c565b8060026000828254620001999190620003b9565b92505081905550806000808473ffffffffffffffffffffffffffffffffffffffff1673ffffffffffffffffffffffffffffffffffffffff1681526020019081526020016000206000828254620001f09190620003b9565b925050819055508173ffffffffffffffffffffffffffffffffffffffff16600073ffffffffffffffffffffffffffffffffffffffff167fddf252ad1be2c89b69c2b068fc378daa952ba7f163c4a11628f55a4df523b3ef836040516200025791906200038b565b60405180910390a362000273600083836200027c60201b60201c565b5050565b505050565b505050565b8280546200028f9062000626565b90600052602060002090601f016020900481019282620002b35760008555620002ff565b82601f10620002ce57805160ff1916838001178555620002ff565b82800160010185558215620002ff579182015b82811115620002fe578251825591602001919060010190620002e1565b5b5090506200030e919062000312565b5090565b5b808211156200032d57600081600090555060010162000313565b5090565b600062000340601f83620003a8565b91506200034d82620006c7565b602082019050919050565b62000363816200060f565b82525050565b60006020820190508181036000830152620003848162000331565b9050919050565b6000602082019050620003a2600083018462000358565b92915050565b600082825260208201905092915050565b6000620003c6826200060f565b9150620003d3836200060f565b9250827fffffffffffffffffffffffffffffffffffffffffffffffffffffffffffffffff038211156200040b576200040a6200065c565b5b828201905092915050565b6000808291508390505b6001851115620004685780860481111562000440576200043f6200065c565b5b6001851615620004505780820291505b80810290506200046085620006ba565b945062000420565b94509492505050565b60006200047e826200060f565b91506200048b8362000619565b9250620004ba7fffffffffffffffffffffffffffffffffffffffffffffffffffffffffffffffff8484620004c2565b905092915050565b600082620004d45760019050620005a7565b81620004e45760009050620005a7565b8160018114620004fd576002811462000508576200053e565b6001915050620005a7565b60ff8411156200051d576200051c6200065c565b5b8360020a9150848211156200053757620005366200065c565b5b50620005a7565b5060208310610133831016604e8410600b8410161715620005785782820a9050838111156200057257620005716200065c565b5b620005a7565b62000587848484600162000416565b92509050818404811115620005a157620005a06200065c565b5b81810290505b9392505050565b6000620005bb826200060f565b9150620005c8836200060f565b9250817fffffffffffffffffffffffffffffffffffffffffffffffffffffffffffffffff04831182151516156200060457620006036200065c565b5b828202905092915050565b6000819050919050565b600060ff82169050919050565b600060028204905060018216806200063f57607f821691505b602082108114156200065657620006556200068b565b5b50919050565b7f4e487b7100000000000000000000000000000000000000000000000000000000600052601160045260246000fd5b7f4e487b7100000000000000000000000000000000000000000000000000000000600052602260045260246000fd5b60008160011c9050919050565b7f45524332303a206d696e7420746f20746865207a65726f206164647265737300600082015250565b611c9680620007006000396000f3fe608060405234801561001057600080fd5b50600436106101005760003560e01c80635e035355116100975780639dc29fac116100665780639dc29fac146102e9578063a457c2d714610319578063a9059cbb14610349578063dd62ed3e1461037957610100565b80635e0353551461023b57806370a082311461026b578063897ef41f1461029b57806395d89b41146102cb57610100565b8063313ce567116100d3578063313ce567146101a157806339509351146101bf578063587cde1e146101ef5780635c19a95c1461021f57610100565b806306fdde0314610105578063095ea7b31461012357806318160ddd1461015357806323b872dd14610171575b600080fd5b61010d6103a9565b60405161011a91906115d6565b60405180910390f35b61013d6004803603810190610138919061138d565b61043b565b60405161014a91906115bb565b60405180910390f35b61015b610459565b6040516101689190611738565b60405180910390f35b61018b6004803603810190610186919061133a565b610463565b60405161019891906115bb565b60405180910390f35b6101a961055b565b6040516101b69190611753565b60405180910390f35b6101d960048036038101906101d4919061138d565b610564565b6040516101e691906115bb565b60405180910390f35b610209600480360381019061020491906112cd565b610610565b60405161021691906115a0565b60405180910390f35b610239600480360381019061023491906112cd565b610643565b005b610255600480360381019061025091906112cd565b6108dc565b6040516102629190611738565b60405180910390f35b610285600480360381019061028091906112cd565b6108f4565b6040516102929190611738565b60405180910390f35b6102b560048036038101906102b091906112cd565b61093c565b6040516102c29190611738565b60405180910390f35b6102d3610985565b6040516102e091906115d6565b60405180910390f35b61030360048036038101906102fe919061138d565b610a17565b60405161031091906115bb565b60405180910390f35b610333600480360381019061032e919061138d565b610a71565b60405161034091906115bb565b60405180910390f35b610363600480360381019061035e919061138d565b610b5c565b60405161037091906115bb565b60405180910390f35b610393600480360381019061038e91906112fa565b610bc9565b6040516103a09190611738565b60405180910390f35b6060600380546103b89061189c565b80601f01602080910402602001604051908101604052809291908181526020018280546103e49061189c565b80156104315780601f1061040657610100808354040283529160200191610431565b820191906000526020600020905b81548152906001019060200180831161041457829003601f168201915b5050505050905090565b600061044f610448610c50565b8484610c58565b6001905092915050565b6000600254905090565b6000610470848484610e23565b6000600160008673ffffffffffffffffffffffffffffffffffffffff1673ffffffffffffffffffffffffffffffffffffffff16815260200190815260200160002060006104bb610c50565b73ffffffffffffffffffffffffffffffffffffffff1673ffffffffffffffffffffffffffffffffffffffff1681526020019081526020016000205490508281101561053b576040517f08c379a000000000000000000000000000000000000000000000000000000000815260040161053290611698565b60405180910390fd5b61054f85610547610c50565b858403610c58565b60019150509392505050565b60006012905090565b6000610606610571610c50565b84846001600061057f610c50565b73ffffffffffffffffffffffffffffffffffffffff1673ffffffffffffffffffffffffffffffffffffffff16815260200190815260200160002060008873ffffffffffffffffffffffffffffffffffffffff1673ffffffffffffffffffffffffffffffffffffffff16815260200190815260200160002054610601919061178a565b610c58565b6001905092915050565b60056020528060005260406000206000915054906101000a900473ffffffffffffffffffffffffffffffffffffffff1681565b60003390506000600660008373ffffffffffffffffffffffffffffffffffffffff1673ffffffffffffffffffffffffffffffffffffffff16815260200190815260200160002054116106ca576040517f08c379a00000000000000000000000000000000000000000000000000000000081526004016106c190611638565b60405180910390fd5b6000600560008373ffffffffffffffffffffffffffffffffffffffff1673ffffffffffffffffffffffffffffffffffffffff16815260200190815260200160002060009054906101000a900473ffffffffffffffffffffffffffffffffffffffff16905082600560008473ffffffffffffffffffffffffffffffffffffffff1673ffffffffffffffffffffffffffffffffffffffff16815260200190815260200160002060006101000a81548173ffffffffffffffffffffffffffffffffffffffff021916908373ffffffffffffffffffffffffffffffffffffffff16021790555060006107b7836108f4565b905080600660008573ffffffffffffffffffffffffffffffffffffffff1673ffffffffffffffffffffffffffffffffffffffff168152602001908152602001600020600082825461080891906117e0565b9250508190555080600660008673ffffffffffffffffffffffffffffffffffffffff1673ffffffffffffffffffffffffffffffffffffffff168152602001908152602001600020600082825461085e919061178a565b925050819055508373ffffffffffffffffffffffffffffffffffffffff168273ffffffffffffffffffffffffffffffffffffffff168473ffffffffffffffffffffffffffffffffffffffff167f3134e8a2e6d97e929a7e54011ea5485d7d196dd5f0ba4d4ef95803e8e3fc257f60405160405180910390a450505050565b60066020528060005260406000206000915090505481565b60008060008373ffffffffffffffffffffffffffffffffffffffff1673ffffffffffffffffffffffffffffffffffffffff168152602001908152602001600020549050919050565b6000600660008373ffffffffffffffffffffffffffffffffffffffff1673ffffffffffffffffffffffffffffffffffffffff168152602001908152602001600020549050919050565b6060600480546109949061189c565b80601f01602080910402602001604051908101604052809291908181526020018280546109c09061189c565b8015610a0d5780601f106109e257610100808354040283529160200191610a0d565b820191906000526020600020905b8154815290600101906020018083116109f057829003601f168201915b5050505050905090565b600080600660008573ffffffffffffffffffffffffffffffffffffffff1673ffffffffffffffffffffffffffffffffffffffff16815260200190815260200160002081905550610a6783836110a4565b6001905092915050565b60008060016000610a80610c50565b73ffffffffffffffffffffffffffffffffffffffff1673ffffffffffffffffffffffffffffffffffffffff16815260200190815260200160002060008573ffffffffffffffffffffffffffffffffffffffff1673ffffffffffffffffffffffffffffffffffffffff16815260200190815260200160002054905082811015610b3d576040517f08c379a0000000000000000000000000000000000000000000000000000000008152600401610b3490611718565b60405180910390fd5b610b51610b48610c50565b85858403610c58565b600191505092915050565b600081600660008573ffffffffffffffffffffffffffffffffffffffff1673ffffffffffffffffffffffffffffffffffffffff1681526020019081526020016000206000828254610bad919061178a565b92505081905550610bbe838361127b565b506001905092915050565b6000600160008473ffffffffffffffffffffffffffffffffffffffff1673ffffffffffffffffffffffffffffffffffffffff16815260200190815260200160002060008373ffffffffffffffffffffffffffffffffffffffff1673ffffffffffffffffffffffffffffffffffffffff16815260200190815260200160002054905092915050565b600033905090565b600073ffffffffffffffffffffffffffffffffffffffff168373ffffffffffffffffffffffffffffffffffffffff161415610cc8576040517f08c379a0000000000000000000000000000000000000000000000000000000008152600401610cbf906116f8565b60405180910390fd5b600073ffffffffffffffffffffffffffffffffffffffff168273ffffffffffffffffffffffffffffffffffffffff161415610d38576040517f08c379a0000000000000000000000000000000000000000000000000000000008152600401610d2f90611658565b60405180910390fd5b80600160008573ffffffffffffffffffffffffffffffffffffffff1673ffffffffffffffffffffffffffffffffffffffff16815260200190815260200160002060008473ffffffffffffffffffffffffffffffffffffffff1673ffffffffffffffffffffffffffffffffffffffff168152602001908152602001600020819055508173ffffffffffffffffffffffffffffffffffffffff168373ffffffffffffffffffffffffffffffffffffffff167f8c5be1e5ebec7d5bd14f71427d1e84f3dd0314c0f7b2291e5b200ac8c7c3b92583604051610e169190611738565b60405180910390a3505050565b600073ffffffffffffffffffffffffffffffffffffffff168373ffffffffffffffffffffffffffffffffffffffff161415610e93576040517f08c379a0000000000000000000000000000000000000000000000000000000008152600401610e8a906116d8565b60405180910390fd5b600073ffffffffffffffffffffffffffffffffffffffff168273ffffffffffffffffffffffffffffffffffffffff161415610f03576040517f08c379a0000000000000000000000000000000000000000000000000000000008152600401610efa906115f8565b60405180910390fd5b610f0e838383611299565b60008060008573ffffffffffffffffffffffffffffffffffffffff1673ffffffffffffffffffffffffffffffffffffffff16815260200190815260200160002054905081811015610f94576040517f08c379a0000000000000000000000000000000000000000000000000000000008152600401610f8b90611678565b60405180910390fd5b8181036000808673ffffffffffffffffffffffffffffffffffffffff1673ffffffffffffffffffffffffffffffffffffffff16815260200190815260200160002081905550816000808573ffffffffffffffffffffffffffffffffffffffff1673ffffffffffffffffffffffffffffffffffffffff1681526020019081526020016000206000828254611027919061178a565b925050819055508273ffffffffffffffffffffffffffffffffffffffff168473ffffffffffffffffffffffffffffffffffffffff167fddf252ad1be2c89b69c2b068fc378daa952ba7f163c4a11628f55a4df523b3ef8460405161108b9190611738565b60405180910390a361109e84848461129e565b50505050565b600073ffffffffffffffffffffffffffffffffffffffff168273ffffffffffffffffffffffffffffffffffffffff161415611114576040517f08c379a000000000000000000000000000000000000000000000000000000000815260040161110b906116b8565b60405180910390fd5b61112082600083611299565b60008060008473ffffffffffffffffffffffffffffffffffffffff1673ffffffffffffffffffffffffffffffffffffffff168152602001908152602001600020549050818110156111a6576040517f08c379a000000000000000000000000000000000000000000000000000000000815260040161119d90611618565b60405180910390fd5b8181036000808573ffffffffffffffffffffffffffffffffffffffff1673ffffffffffffffffffffffffffffffffffffffff1681526020019081526020016000208190555081600260008282546111fd91906117e0565b92505081905550600073ffffffffffffffffffffffffffffffffffffffff168373ffffffffffffffffffffffffffffffffffffffff167fddf252ad1be2c89b69c2b068fc378daa952ba7f163c4a11628f55a4df523b3ef846040516112629190611738565b60405180910390a36112768360008461129e565b505050565b600061128f611288610c50565b8484610e23565b6001905092915050565b505050565b505050565b6000813590506112b281611c32565b92915050565b6000813590506112c781611c49565b92915050565b6000602082840312156112e3576112e261192c565b5b60006112f1848285016112a3565b91505092915050565b600080604083850312156113115761131061192c565b5b600061131f858286016112a3565b9250506020611330858286016112a3565b9150509250929050565b6000806000606084860312156113535761135261192c565b5b6000611361868287016112a3565b9350506020611372868287016112a3565b9250506040611383868287016112b8565b9150509250925092565b600080604083850312156113a4576113a361192c565b5b60006113b2858286016112a3565b92505060206113c3858286016112b8565b9150509250929050565b6113d681611814565b82525050565b6113e581611826565b82525050565b60006113f68261176e565b6114008185611779565b9350611410818560208601611869565b61141981611931565b840191505092915050565b6000611431602383611779565b915061143c82611942565b604082019050919050565b6000611454602283611779565b915061145f82611991565b604082019050919050565b6000611477601f83611779565b9150611482826119e0565b602082019050919050565b600061149a602283611779565b91506114a582611a09565b604082019050919050565b60006114bd602683611779565b91506114c882611a58565b604082019050919050565b60006114e0602883611779565b91506114eb82611aa7565b604082019050919050565b6000611503602183611779565b915061150e82611af6565b604082019050919050565b6000611526602583611779565b915061153182611b45565b604082019050919050565b6000611549602483611779565b915061155482611b94565b604082019050919050565b600061156c602583611779565b915061157782611be3565b604082019050919050565b61158b81611852565b82525050565b61159a8161185c565b82525050565b60006020820190506115b560008301846113cd565b92915050565b60006020820190506115d060008301846113dc565b92915050565b600060208201905081810360008301526115f081846113eb565b905092915050565b6000602082019050818103600083015261161181611424565b9050919050565b6000602082019050818103600083015261163181611447565b9050919050565b600060208201905081810360008301526116518161146a565b9050919050565b600060208201905081810360008301526116718161148d565b9050919050565b60006020820190508181036000830152611691816114b0565b9050919050565b600060208201905081810360008301526116b1816114d3565b9050919050565b600060208201905081810360008301526116d1816114f6565b9050919050565b600060208201905081810360008301526116f181611519565b9050919050565b600060208201905081810360008301526117118161153c565b9050919050565b600060208201905081810360008301526117318161155f565b9050919050565b600060208201905061174d6000830184611582565b92915050565b60006020820190506117686000830184611591565b92915050565b600081519050919050565b600082825260208201905092915050565b600061179582611852565b91506117a083611852565b9250827fffffffffffffffffffffffffffffffffffffffffffffffffffffffffffffffff038211156117d5576117d46118ce565b5b828201905092915050565b60006117eb82611852565b91506117f683611852565b925082821015611809576118086118ce565b5b828203905092915050565b600061181f82611832565b9050919050565b60008115159050919050565b600073ffffffffffffffffffffffffffffffffffffffff82169050919050565b6000819050919050565b600060ff82169050919050565b60005b8381101561188757808201518184015260208101905061186c565b83811115611896576000848401525b50505050565b600060028204905060018216806118b457607f821691505b602082108114156118c8576118c76118fd565b5b50919050565b7f4e487b7100000000000000000000000000000000000000000000000000000000600052601160045260246000fd5b7f4e487b7100000000000000000000000000000000000000000000000000000000600052602260045260246000fd5b600080fd5b6000601f19601f8301169050919050565b7f45524332303a207472616e7366657220746f20746865207a65726f206164647260008201527f6573730000000000000000000000000000000000000000000000000000000000602082015250565b7f45524332303a206275726e20616d6f756e7420657863656564732062616c616e60008201527f6365000000000000000000000000000000000000000000000000000000000000602082015250565b7f44454c454741544f525f4841535f4e4f5f564f54494e475f42414c414e434500600082015250565b7f45524332303a20617070726f766520746f20746865207a65726f20616464726560008201527f7373000000000000000000000000000000000000000000000000000000000000602082015250565b7f45524332303a207472616e7366657220616d6f756e742065786365656473206260008201527f616c616e63650000000000000000000000000000000000000000000000000000602082015250565b7f45524332303a207472616e7366657220616d6f756e742065786365656473206160008201527f6c6c6f77616e6365000000000000000000000000000000000000000000000000602082015250565b7f45524332303a206275726e2066726f6d20746865207a65726f2061646472657360008201527f7300000000000000000000000000000000000000000000000000000000000000602082015250565b7f45524332303a207472616e736665722066726f6d20746865207a65726f20616460008201527f6472657373000000000000000000000000000000000000000000000000000000602082015250565b7f45524332303a20617070726f76652066726f6d20746865207a65726f2061646460008201527f7265737300000000000000000000000000000000000000000000000000000000602082015250565b7f45524332303a2064656372656173656420616c6c6f77616e63652062656c6f7760008201527f207a65726f000000000000000000000000000000000000000000000000000000602082015250565b611c3b81611814565b8114611c4657600080fd5b50565b611c5281611852565b8114611c5d57600080fd5b5056fea26469706673582212206b325d659e6651da1f6295895db0e342a411d9e1a69db375cdc99c42caa27bd664736f6c63430008070033",
  "linkReferences": {},
  "deployedLinkReferences": {}
}