{
  "_format": "hh-sol-artifact-1",
  "contractName": "CollectorDAO",
  "sourceName": "contracts/CollectorDAO.sol",
  "abi": [
    {
      "inputs": [],
      "stateMutability": "nonpayable",
      "type": "constructor"
    },
    {
      "anonymous": false,
      "inputs": [
        {
          "indexed": true,
          "internalType": "address",
          "name": "sender",
          "type": "address"
        },
        {
          "indexed": false,
          "internalType": "string",
          "name": "message",
          "type": "string"
        }
      ],
      "name": "Join",
      "type": "event"
    },
    {
      "anonymous": false,
      "inputs": [
        {
          "indexed": false,
          "internalType": "uint256",
          "name": "id",
          "type": "uint256"
        },
        {
          "indexed": false,
          "internalType": "address",
          "name": "proposer",
          "type": "address"
        },
        {
          "indexed": false,
          "internalType": "address[]",
          "name": "targets",
          "type": "address[]"
        },
        {
          "indexed": false,
          "internalType": "uint256[]",
          "name": "values",
          "type": "uint256[]"
        },
        {
          "indexed": false,
          "internalType": "string[]",
          "name": "signatures",
          "type": "string[]"
        },
        {
          "indexed": false,
          "internalType": "bytes[]",
          "name": "calldatas",
          "type": "bytes[]"
        },
        {
          "indexed": false,
          "internalType": "uint256",
          "name": "startBlock",
          "type": "uint256"
        },
        {
          "indexed": false,
          "internalType": "uint256",
          "name": "endBlock",
          "type": "uint256"
        },
        {
          "indexed": false,
          "internalType": "string",
          "name": "description",
          "type": "string"
        }
      ],
      "name": "ProposalCreated",
      "type": "event"
    },
    {
      "anonymous": false,
      "inputs": [
        {
          "indexed": false,
          "internalType": "uint256",
          "name": "id",
          "type": "uint256"
        }
      ],
      "name": "ProposalExecuted",
      "type": "event"
    },
    {
      "anonymous": false,
      "inputs": [
        {
          "indexed": false,
          "internalType": "address",
          "name": "voter",
          "type": "address"
        },
        {
          "indexed": false,
          "internalType": "uint256",
          "name": "proposalId",
          "type": "uint256"
        },
        {
          "indexed": false,
          "internalType": "bool",
          "name": "support",
          "type": "bool"
        }
      ],
      "name": "VoteCast",
      "type": "event"
    },
    {
      "inputs": [],
      "name": "NAME",
      "outputs": [
        {
          "internalType": "string",
          "name": "",
          "type": "string"
        }
      ],
      "stateMutability": "view",
      "type": "function"
    },
    {
      "inputs": [
        {
          "internalType": "uint256",
          "name": "proposalId",
          "type": "uint256"
        },
        {
          "internalType": "bool",
          "name": "support",
          "type": "bool"
        }
      ],
      "name": "castVote",
      "outputs": [],
      "stateMutability": "nonpayable",
      "type": "function"
    },
    {
      "inputs": [
        {
          "internalType": "uint256",
          "name": "proposalId",
          "type": "uint256"
        }
      ],
      "name": "execute",
      "outputs": [],
      "stateMutability": "payable",
      "type": "function"
    },
    {
      "inputs": [
        {
          "internalType": "address",
          "name": "target",
          "type": "address"
        },
        {
          "internalType": "uint256",
          "name": "value",
          "type": "uint256"
        },
        {
          "internalType": "bytes",
          "name": "callData",
          "type": "bytes"
        }
      ],
      "name": "executeTransaction",
      "outputs": [
        {
          "internalType": "bytes",
          "name": "",
          "type": "bytes"
        }
      ],
      "stateMutability": "payable",
      "type": "function"
    },
    {
      "inputs": [
        {
          "internalType": "uint256",
          "name": "proposalId",
          "type": "uint256"
        },
        {
          "internalType": "address",
          "name": "voter",
          "type": "address"
        }
      ],
      "name": "getReceipt",
      "outputs": [
        {
          "components": [
            {
              "internalType": "bool",
              "name": "hasVoted",
              "type": "bool"
            },
            {
              "internalType": "bool",
              "name": "support",
              "type": "bool"
            }
          ],
          "internalType": "struct CollectorDAO.Receipt",
          "name": "",
          "type": "tuple"
        }
      ],
      "stateMutability": "view",
      "type": "function"
    },
    {
      "inputs": [],
      "name": "getTokenAddress",
      "outputs": [
        {
          "internalType": "contract CToken",
          "name": "",
          "type": "address"
        }
      ],
      "stateMutability": "view",
      "type": "function"
    },
    {
      "inputs": [],
      "name": "join",
      "outputs": [
        {
          "internalType": "bool",
          "name": "",
          "type": "bool"
        }
      ],
      "stateMutability": "payable",
      "type": "function"
    },
    {
      "inputs": [
        {
          "internalType": "address",
          "name": "",
          "type": "address"
        }
      ],
      "name": "latestProposalIds",
      "outputs": [
        {
          "internalType": "uint256",
          "name": "",
          "type": "uint256"
        }
      ],
      "stateMutability": "view",
      "type": "function"
    },
    {
      "inputs": [],
      "name": "proposalCount",
      "outputs": [
        {
          "internalType": "uint256",
          "name": "",
          "type": "uint256"
        }
      ],
      "stateMutability": "view",
      "type": "function"
    },
    {
      "inputs": [],
      "name": "proposalMaxOperations",
      "outputs": [
        {
          "internalType": "uint256",
          "name": "",
          "type": "uint256"
        }
      ],
      "stateMutability": "pure",
      "type": "function"
    },
    {
      "inputs": [
        {
          "internalType": "uint256",
          "name": "",
          "type": "uint256"
        }
      ],
      "name": "proposals",
      "outputs": [
        {
          "internalType": "uint256",
          "name": "id",
          "type": "uint256"
        },
        {
          "internalType": "address",
          "name": "proposer",
          "type": "address"
        },
        {
          "internalType": "uint256",
          "name": "startBlock",
          "type": "uint256"
        },
        {
          "internalType": "uint256",
          "name": "endBlock",
          "type": "uint256"
        },
        {
          "internalType": "uint256",
          "name": "forVotes",
          "type": "uint256"
        },
        {
          "internalType": "uint256",
          "name": "againstVotes",
          "type": "uint256"
        },
        {
          "internalType": "bool",
          "name": "executed",
          "type": "bool"
        }
      ],
      "stateMutability": "view",
      "type": "function"
    },
    {
      "inputs": [
        {
          "internalType": "address[]",
          "name": "targets",
          "type": "address[]"
        },
        {
          "internalType": "uint256[]",
          "name": "values",
          "type": "uint256[]"
        },
        {
          "internalType": "string[]",
          "name": "signatures",
          "type": "string[]"
        },
        {
          "internalType": "bytes[]",
          "name": "calldatas",
          "type": "bytes[]"
        },
        {
          "internalType": "string",
          "name": "description",
          "type": "string"
        }
      ],
      "name": "propose",
      "outputs": [
        {
          "internalType": "uint256",
          "name": "",
          "type": "uint256"
        }
      ],
      "stateMutability": "payable",
      "type": "function"
    },
    {
      "inputs": [],
      "name": "quorumVotes",
      "outputs": [
        {
          "internalType": "uint256",
          "name": "",
          "type": "uint256"
        }
      ],
      "stateMutability": "pure",
      "type": "function"
    },
    {
      "inputs": [
        {
          "internalType": "uint256",
          "name": "proposalId",
          "type": "uint256"
        }
      ],
      "name": "state",
      "outputs": [
        {
          "internalType": "enum CollectorDAO.ProposalState",
          "name": "",
          "type": "uint8"
        }
      ],
      "stateMutability": "view",
      "type": "function"
    },
    {
      "inputs": [
        {
          "internalType": "address",
          "name": "member",
          "type": "address"
        }
      ],
      "name": "tokenBalance",
      "outputs": [
        {
          "internalType": "uint256",
          "name": "",
          "type": "uint256"
        }
      ],
      "stateMutability": "view",
      "type": "function"
    },
    {
      "inputs": [],
      "name": "votingDelay",
      "outputs": [
        {
          "internalType": "uint256",
          "name": "",
          "type": "uint256"
        }
      ],
      "stateMutability": "pure",
      "type": "function"
    },
    {
      "inputs": [],
      "name": "votingPeriod",
      "outputs": [
        {
          "internalType": "uint256",
          "name": "",
          "type": "uint256"
        }
      ],
      "stateMutability": "pure",
      "type": "function"
    }
  ],
  "bytecode": "0x60806040523480156200001157600080fd5b506040516200002090620000c4565b604051809103906000f0801580156200003d573d6000803e3d6000fd5b506000806101000a81548173ffffffffffffffffffffffffffffffffffffffff021916908373ffffffffffffffffffffffffffffffffffffffff16021790555033600360006101000a81548173ffffffffffffffffffffffffffffffffffffffff021916908373ffffffffffffffffffffffffffffffffffffffff160217905550620000d2565b611aaa80620032cf83390190565b6131ed80620000e26000396000f3fe6080604052600436106100fe5760003560e01c80633f579f4211610095578063da35c66411610064578063da35c66414610339578063da95691a14610364578063e23a9a5214610394578063eedc966a146103d1578063fe0d94c11461040e576100fe565b80633f579f42146102955780637bdbe4d0146102c5578063a3f4df7e146102f0578063b688a3631461031b576100fe565b806317977c61116100d157806317977c61146101c557806324bc1a64146102025780633932abb11461022d5780633e4f49e614610258576100fe565b8063013cf08b1461010357806302a251a31461014657806310fe9ae81461017157806315373e3d1461019c575b600080fd5b34801561010f57600080fd5b5061012a60048036038101906101259190611e37565b61042a565b60405161013d97969594939291906128d4565b60405180910390f35b34801561015257600080fd5b5061015b610499565b6040516101689190612809565b60405180910390f35b34801561017d57600080fd5b506101866104a3565b60405161019391906125b6565b60405180910390f35b3480156101a857600080fd5b506101c360048036038101906101be9190611ed1565b6104cc565b005b3480156101d157600080fd5b506101ec60048036038101906101e79190611c67565b61074f565b6040516101f99190612809565b60405180910390f35b34801561020e57600080fd5b50610217610767565b6040516102249190612809565b60405180910390f35b34801561023957600080fd5b50610242610770565b60405161024f9190612809565b60405180910390f35b34801561026457600080fd5b5061027f600480360381019061027a9190611e37565b610779565b60405161028c91906125d1565b60405180910390f35b6102af60048036038101906102aa9190611c94565b610869565b6040516102bc9190612594565b60405180910390f35b3480156102d157600080fd5b506102da6109b3565b6040516102e79190612809565b60405180910390f35b3480156102fc57600080fd5b506103056109bc565b60405161031291906125ec565b60405180910390f35b6103236109f5565b6040516103309190612579565b60405180910390f35b34801561034557600080fd5b5061034e610c4d565b60405161035b9190612809565b60405180910390f35b61037e60048036038101906103799190611d03565b610c53565b60405161038b9190612809565b60405180910390f35b3480156103a057600080fd5b506103bb60048036038101906103b69190611e91565b611051565b6040516103c891906127ee565b60405180910390f35b3480156103dd57600080fd5b506103f860048036038101906103f39190611c67565b6110f2565b6040516104059190612809565b60405180910390f35b61042860048036038101906104239190611e37565b6111a5565b005b60066020528060005260406000206000915090508060000154908060010160009054906101000a900473ffffffffffffffffffffffffffffffffffffffff169080600601549080600701549080600801549080600901549080600a0160009054906101000a900460ff16905087565b6000614380905090565b60008060009054906101000a900473ffffffffffffffffffffffffffffffffffffffff16905090565b60011515600160003373ffffffffffffffffffffffffffffffffffffffff1673ffffffffffffffffffffffffffffffffffffffff16815260200190815260200160002060009054906101000a900460ff1615151461055f576040517f08c379a00000000000000000000000000000000000000000000000000000000081526004016105569061266e565b60405180910390fd5b6001600681111561057357610572612deb565b5b61057c83610779565b600681111561058e5761058d612deb565b5b146105ce576040517f08c379a00000000000000000000000000000000000000000000000000000000081526004016105c5906126ee565b60405180910390fd5b600033905060006005600085815260200190815260200160002060008373ffffffffffffffffffffffffffffffffffffffff1673ffffffffffffffffffffffffffffffffffffffff1681526020019081526020016000209050600015158160000160009054906101000a900460ff1615151461067f576040517f08c379a00000000000000000000000000000000000000000000000000000000081526004016106769061268e565b60405180910390fd5b600060066000868152602001908152602001600020905083156106ba57600181600801546106ad9190612bc3565b81600801819055506106d4565b600181600901546106cb9190612bc3565b81600901819055505b60018260000160006101000a81548160ff021916908315150217905550838260000160016101000a81548160ff0219169083151502179055507fd356173ae8eeea8691aee4c1be712c314a975a3d43ebc48b08ca54d0dac9122883868660405161074093929190612542565b60405180910390a15050505050565b60076020528060005260406000206000915090505481565b60006003905090565b60006001905090565b6000816004541015801561078d5750600082115b6107cc576040517f08c379a00000000000000000000000000000000000000000000000000000000081526004016107c39061278e565b60405180910390fd5b6000600660008481526020019081526020016000209050806006015443116107f8576000915050610864565b8060070154431161080d576001915050610864565b8060090154816008015411158061082e5750610827610767565b8160080154105b1561083d576002915050610864565b80600a0160009054906101000a900460ff161561085e576006915050610864565b60049150505b919050565b60603373ffffffffffffffffffffffffffffffffffffffff16600360009054906101000a900473ffffffffffffffffffffffffffffffffffffffff1673ffffffffffffffffffffffffffffffffffffffff16146108fb576040517f08c379a00000000000000000000000000000000000000000000000000000000081526004016108f29061272e565b60405180910390fd5b6000808573ffffffffffffffffffffffffffffffffffffffff168460405161092391906124e7565b6000604051808303816000865af19150503d8060008114610960576040519150601f19603f3d011682016040523d82523d6000602084013e610965565b606091505b5091509150816109aa576040517f08c379a00000000000000000000000000000000000000000000000000000000081526004016109a1906127ae565b60405180910390fd5b50509392505050565b6000600a905090565b6040518060400160405280600d81526020017f436f6c6c6563746f722044414f0000000000000000000000000000000000000081525081565b6000801515600160003373ffffffffffffffffffffffffffffffffffffffff1673ffffffffffffffffffffffffffffffffffffffff16815260200190815260200160002060009054906101000a900460ff16151514610a89576040517f08c379a0000000000000000000000000000000000000000000000000000000008152600401610a809061260e565b60405180910390fd5b670de0b6b3a7640000341015610ad4576040517f08c379a0000000000000000000000000000000000000000000000000000000008152600401610acb906127ce565b60405180910390fd5b60018060003373ffffffffffffffffffffffffffffffffffffffff1673ffffffffffffffffffffffffffffffffffffffff16815260200190815260200160002060006101000a81548160ff0219169083151502179055503460026000828254610b3d9190612bc3565b9250508190555060008054906101000a900473ffffffffffffffffffffffffffffffffffffffff1673ffffffffffffffffffffffffffffffffffffffff1663a9059cbb33670de0b6b3a76400006040518363ffffffff1660e01b8152600401610ba7929190612519565b602060405180830381600087803b158015610bc157600080fd5b505af1158015610bd5573d6000803e3d6000fd5b505050506040513d601f19601f82011682018060405250810190610bf99190611e0a565b503373ffffffffffffffffffffffffffffffffffffffff167f99ff3c8493cc730b7a818210b81af665c9b2bdb63cdf4f2c4108e092dec7a621604051610c3e9061264e565b60405180910390a26001905090565b60045481565b600060011515600160003373ffffffffffffffffffffffffffffffffffffffff1673ffffffffffffffffffffffffffffffffffffffff16815260200190815260200160002060009054906101000a900460ff16151514610ce8576040517f08c379a0000000000000000000000000000000000000000000000000000000008152600401610cdf9061262e565b60405180910390fd5b600086511415610d2d576040517f08c379a0000000000000000000000000000000000000000000000000000000008152600401610d249061274e565b60405180910390fd5b83518651148015610d3f575082518651145b610d7e576040517f08c379a0000000000000000000000000000000000000000000000000000000008152600401610d75906126ae565b60405180910390fd5b610d866109b3565b86511115610dc9576040517f08c379a0000000000000000000000000000000000000000000000000000000008152600401610dc0906126ce565b60405180910390fd5b6000610dd3610770565b43610dde9190612bc3565b90506000610dea610499565b82610df59190612bc3565b905060046000815480929190610e0a90612d73565b9190505550600060405180610160016040528060045481526020013373ffffffffffffffffffffffffffffffffffffffff1681526020018a815260200189815260200188815260200187815260200184815260200183815260200160008152602001600081526020016000151581525090508060066000836000015181526020019081526020016000206000820151816000015560208201518160010160006101000a81548173ffffffffffffffffffffffffffffffffffffffff021916908373ffffffffffffffffffffffffffffffffffffffff1602179055506040820151816002019080519060200190610f019291906114c4565b506060820151816003019080519060200190610f1e92919061154e565b506080820151816004019080519060200190610f3b92919061159b565b5060a0820151816005019080519060200190610f589291906115fb565b5060c0820151816006015560e082015181600701556101008201518160080155610120820151816009015561014082015181600a0160006101000a81548160ff021916908315150217905550905050806000015160076000836020015173ffffffffffffffffffffffffffffffffffffffff1673ffffffffffffffffffffffffffffffffffffffff168152602001908152602001600020819055507f7d84a6263ae0d98d3329bd7b46bb4e8d6f98cd35a7adb45c274c8b7fd5ebd5e08160000151338b8b8b8b89898d60405161103699989796959493929190612824565b60405180910390a18060000151935050505095945050505050565b61105961165b565b6005600084815260200190815260200160002060008373ffffffffffffffffffffffffffffffffffffffff1673ffffffffffffffffffffffffffffffffffffffff1681526020019081526020016000206040518060400160405290816000820160009054906101000a900460ff161515151581526020016000820160019054906101000a900460ff161515151581525050905092915050565b60008060009054906101000a900473ffffffffffffffffffffffffffffffffffffffff1673ffffffffffffffffffffffffffffffffffffffff166370a08231836040518263ffffffff1660e01b815260040161114e91906124fe565b60206040518083038186803b15801561116657600080fd5b505afa15801561117a573d6000803e3d6000fd5b505050506040513d601f19601f8201168201806040525081019061119e9190611e64565b9050919050565b3373ffffffffffffffffffffffffffffffffffffffff16600360009054906101000a900473ffffffffffffffffffffffffffffffffffffffff1673ffffffffffffffffffffffffffffffffffffffff1614611235576040517f08c379a000000000000000000000000000000000000000000000000000000000815260040161122c9061272e565b60405180910390fd5b6000600660008381526020019081526020016000209050600260068111156112605761125f612deb565b5b61126983610779565b600681111561127b5761127a612deb565b5b14156112c35760006112c2576040517f08c379a00000000000000000000000000000000000000000000000000000000081526004016112b99061270e565b60405180910390fd5b5b600460068111156112d7576112d6612deb565b5b6112e083610779565b60068111156112f2576112f1612deb565b5b14611332576040517f08c379a00000000000000000000000000000000000000000000000000000000081526004016113299061276e565b60405180910390fd5b60005b816002018054905081101561146b5761145782600201828154811061135d5761135c612e49565b5b9060005260206000200160009054906101000a900473ffffffffffffffffffffffffffffffffffffffff1683600301838154811061139e5761139d612e49565b5b90600052602060002001548460050184815481106113bf576113be612e49565b5b9060005260206000200180546113d490612d10565b80601f016020809104026020016040519081016040528092919081815260200182805461140090612d10565b801561144d5780601f106114225761010080835404028352916020019161144d565b820191906000526020600020905b81548152906001019060200180831161143057829003601f168201915b5050505050610869565b50808061146390612d73565b915050611335565b50600181600a0160006101000a81548160ff0219169083151502179055507f712ae1383f79ac853f8d882153778e0260ef8f03b504e2866e0593e04d2b291f826040516114b89190612809565b60405180910390a15050565b82805482825590600052602060002090810192821561153d579160200282015b8281111561153c5782518260006101000a81548173ffffffffffffffffffffffffffffffffffffffff021916908373ffffffffffffffffffffffffffffffffffffffff160217905550916020019190600101906114e4565b5b50905061154a9190611679565b5090565b82805482825590600052602060002090810192821561158a579160200282015b8281111561158957825182559160200191906001019061156e565b5b5090506115979190611679565b5090565b8280548282559060005260206000209081019282156115ea579160200282015b828111156115e95782518290805190602001906115d9929190611696565b50916020019190600101906115bb565b5b5090506115f7919061171c565b5090565b82805482825590600052602060002090810192821561164a579160200282015b82811115611649578251829080519060200190611639929190611740565b509160200191906001019061161b565b5b50905061165791906117c6565b5090565b60405180604001604052806000151581526020016000151581525090565b5b8082111561169257600081600090555060010161167a565b5090565b8280546116a290612d10565b90600052602060002090601f0160209004810192826116c4576000855561170b565b82601f106116dd57805160ff191683800117855561170b565b8280016001018555821561170b579182015b8281111561170a5782518255916020019190600101906116ef565b5b5090506117189190611679565b5090565b5b8082111561173c576000818161173391906117ea565b5060010161171d565b5090565b82805461174c90612d10565b90600052602060002090601f01602090048101928261176e57600085556117b5565b82601f1061178757805160ff19168380011785556117b5565b828001600101855582156117b5579182015b828111156117b4578251825591602001919060010190611799565b5b5090506117c29190611679565b5090565b5b808211156117e657600081816117dd919061182a565b506001016117c7565b5090565b5080546117f690612d10565b6000825580601f106118085750611827565b601f0160209004906000526020600020908101906118269190611679565b5b50565b50805461183690612d10565b6000825580601f106118485750611867565b601f0160209004906000526020600020908101906118669190611679565b5b50565b600061187d61187884612968565b612943565b905080838252602082019050828560208602820111156118a05761189f612eac565b5b60005b858110156118d057816118b68882611aea565b8452602084019350602083019250506001810190506118a3565b5050509392505050565b60006118ed6118e884612994565b612943565b905080838252602082019050828560208602820111156119105761190f612eac565b5b60005b8581101561195e57813567ffffffffffffffff81111561193657611935612ea7565b5b8086016119438982611be1565b85526020850194506020840193505050600181019050611913565b5050509392505050565b600061197b611976846129c0565b612943565b9050808382526020820190508285602086028201111561199e5761199d612eac565b5b60005b858110156119ec57813567ffffffffffffffff8111156119c4576119c3612ea7565b5b8086016119d18982611c0f565b855260208501945060208401935050506001810190506119a1565b5050509392505050565b6000611a09611a04846129ec565b612943565b90508083825260208201905082856020860282011115611a2c57611a2b612eac565b5b60005b85811015611a5c5781611a428882611c3d565b845260208401935060208301925050600181019050611a2f565b5050509392505050565b6000611a79611a7484612a18565b612943565b905082815260208101848484011115611a9557611a94612eb1565b5b611aa0848285612cce565b509392505050565b6000611abb611ab684612a49565b612943565b905082815260208101848484011115611ad757611ad6612eb1565b5b611ae2848285612cce565b509392505050565b600081359050611af981613172565b92915050565b600082601f830112611b1457611b13612ea7565b5b8135611b2484826020860161186a565b91505092915050565b600082601f830112611b4257611b41612ea7565b5b8135611b528482602086016118da565b91505092915050565b600082601f830112611b7057611b6f612ea7565b5b8135611b80848260208601611968565b91505092915050565b600082601f830112611b9e57611b9d612ea7565b5b8135611bae8482602086016119f6565b91505092915050565b600081359050611bc681613189565b92915050565b600081519050611bdb81613189565b92915050565b600082601f830112611bf657611bf5612ea7565b5b8135611c06848260208601611a66565b91505092915050565b600082601f830112611c2457611c23612ea7565b5b8135611c34848260208601611aa8565b91505092915050565b600081359050611c4c816131a0565b92915050565b600081519050611c61816131a0565b92915050565b600060208284031215611c7d57611c7c612ebb565b5b6000611c8b84828501611aea565b91505092915050565b600080600060608486031215611cad57611cac612ebb565b5b6000611cbb86828701611aea565b9350506020611ccc86828701611c3d565b925050604084013567ffffffffffffffff811115611ced57611cec612eb6565b5b611cf986828701611be1565b9150509250925092565b600080600080600060a08688031215611d1f57611d1e612ebb565b5b600086013567ffffffffffffffff811115611d3d57611d3c612eb6565b5b611d4988828901611aff565b955050602086013567ffffffffffffffff811115611d6a57611d69612eb6565b5b611d7688828901611b89565b945050604086013567ffffffffffffffff811115611d9757611d96612eb6565b5b611da388828901611b5b565b935050606086013567ffffffffffffffff811115611dc457611dc3612eb6565b5b611dd088828901611b2d565b925050608086013567ffffffffffffffff811115611df157611df0612eb6565b5b611dfd88828901611c0f565b9150509295509295909350565b600060208284031215611e2057611e1f612ebb565b5b6000611e2e84828501611bcc565b91505092915050565b600060208284031215611e4d57611e4c612ebb565b5b6000611e5b84828501611c3d565b91505092915050565b600060208284031215611e7a57611e79612ebb565b5b6000611e8884828501611c52565b91505092915050565b60008060408385031215611ea857611ea7612ebb565b5b6000611eb685828601611c3d565b9250506020611ec785828601611aea565b9150509250929050565b60008060408385031215611ee857611ee7612ebb565b5b6000611ef685828601611c3d565b9250506020611f0785828601611bb7565b9150509250929050565b6000611f1d8383611f69565b60208301905092915050565b6000611f35838361214b565b905092915050565b6000611f49838361221b565b905092915050565b6000611f5d83836124c9565b60208301905092915050565b611f7281612c19565b82525050565b611f8181612c19565b82525050565b6000611f9282612aba565b611f9c8185612b30565b9350611fa783612a7a565b8060005b83811015611fd8578151611fbf8882611f11565b9750611fca83612afc565b925050600181019050611fab565b5085935050505092915050565b6000611ff082612ac5565b611ffa8185612b41565b93508360208202850161200c85612a8a565b8060005b8581101561204857848403895281516120298582611f29565b945061203483612b09565b925060208a01995050600181019050612010565b50829750879550505050505092915050565b600061206582612ad0565b61206f8185612b52565b93508360208202850161208185612a9a565b8060005b858110156120bd578484038952815161209e8582611f3d565b94506120a983612b16565b925060208a01995050600181019050612085565b50829750879550505050505092915050565b60006120da82612adb565b6120e48185612b63565b93506120ef83612aaa565b8060005b838110156121205781516121078882611f51565b975061211283612b23565b9250506001810190506120f3565b5085935050505092915050565b61213681612c2b565b82525050565b61214581612c2b565b82525050565b600061215682612ae6565b6121608185612b74565b9350612170818560208601612cdd565b61217981612ec0565b840191505092915050565b600061218f82612ae6565b6121998185612b85565b93506121a9818560208601612cdd565b6121b281612ec0565b840191505092915050565b60006121c882612ae6565b6121d28185612b96565b93506121e2818560208601612cdd565b80840191505092915050565b6121f781612c74565b82525050565b61220681612c86565b82525050565b61221581612c98565b82525050565b600061222682612af1565b6122308185612ba1565b9350612240818560208601612cdd565b61224981612ec0565b840191505092915050565b600061225f82612af1565b6122698185612bb2565b9350612279818560208601612cdd565b61228281612ec0565b840191505092915050565b600061229a601083612bb2565b91506122a582612ed1565b602082019050919050565b60006122bd601583612bb2565b91506122c882612efa565b602082019050919050565b60006122e0600d83612bb2565b91506122eb82612f23565b602082019050919050565b6000612303601483612bb2565b915061230e82612f4c565b602082019050919050565b6000612326600d83612bb2565b915061233182612f75565b602082019050919050565b6000612349602083612bb2565b915061235482612f9e565b602082019050919050565b600061236c602283612bb2565b915061237782612fc7565b604082019050919050565b600061238f601983612bb2565b915061239a82613016565b602082019050919050565b60006123b2601183612bb2565b91506123bd8261303f565b602082019050919050565b60006123d5601183612bb2565b91506123e082613068565b602082019050919050565b60006123f8601d83612bb2565b915061240382613091565b602082019050919050565b600061241b601183612bb2565b9150612426826130ba565b602082019050919050565b600061243e601383612bb2565b9150612449826130e3565b602082019050919050565b6000612461601b83612bb2565b915061246c8261310c565b602082019050919050565b6000612484601f83612bb2565b915061248f82613135565b602082019050919050565b6040820160008201516124b0600085018261212d565b5060208201516124c3602085018261212d565b50505050565b6124d281612c6a565b82525050565b6124e181612c6a565b82525050565b60006124f382846121bd565b915081905092915050565b60006020820190506125136000830184611f78565b92915050565b600060408201905061252e6000830185611f78565b61253b602083018461220c565b9392505050565b60006060820190506125576000830186611f78565b61256460208301856124d8565b612571604083018461213c565b949350505050565b600060208201905061258e600083018461213c565b92915050565b600060208201905081810360008301526125ae8184612184565b905092915050565b60006020820190506125cb60008301846121ee565b92915050565b60006020820190506125e660008301846121fd565b92915050565b600060208201905081810360008301526126068184612254565b905092915050565b600060208201905081810360008301526126278161228d565b9050919050565b60006020820190508181036000830152612647816122b0565b9050919050565b60006020820190508181036000830152612667816122d3565b9050919050565b60006020820190508181036000830152612687816122f6565b9050919050565b600060208201905081810360008301526126a781612319565b9050919050565b600060208201905081810360008301526126c78161233c565b9050919050565b600060208201905081810360008301526126e78161235f565b9050919050565b6000602082019050818103600083015261270781612382565b9050919050565b60006020820190508181036000830152612727816123a5565b9050919050565b60006020820190508181036000830152612747816123c8565b9050919050565b60006020820190508181036000830152612767816123eb565b9050919050565b600060208201905081810360008301526127878161240e565b9050919050565b600060208201905081810360008301526127a781612431565b9050919050565b600060208201905081810360008301526127c781612454565b9050919050565b600060208201905081810360008301526127e781612477565b9050919050565b6000604082019050612803600083018461249a565b92915050565b600060208201905061281e60008301846124d8565b92915050565b60006101208201905061283a600083018c6124d8565b612847602083018b611f78565b8181036040830152612859818a611f87565b9050818103606083015261286d81896120cf565b90508181036080830152612881818861205a565b905081810360a08301526128958187611fe5565b90506128a460c08301866124d8565b6128b160e08301856124d8565b8181036101008301526128c48184612254565b90509a9950505050505050505050565b600060e0820190506128e9600083018a6124d8565b6128f66020830189611f78565b61290360408301886124d8565b61291060608301876124d8565b61291d60808301866124d8565b61292a60a08301856124d8565b61293760c083018461213c565b98975050505050505050565b600061294d61295e565b90506129598282612d42565b919050565b6000604051905090565b600067ffffffffffffffff82111561298357612982612e78565b5b602082029050602081019050919050565b600067ffffffffffffffff8211156129af576129ae612e78565b5b602082029050602081019050919050565b600067ffffffffffffffff8211156129db576129da612e78565b5b602082029050602081019050919050565b600067ffffffffffffffff821115612a0757612a06612e78565b5b602082029050602081019050919050565b600067ffffffffffffffff821115612a3357612a32612e78565b5b612a3c82612ec0565b9050602081019050919050565b600067ffffffffffffffff821115612a6457612a63612e78565b5b612a6d82612ec0565b9050602081019050919050565b6000819050602082019050919050565b6000819050602082019050919050565b6000819050602082019050919050565b6000819050602082019050919050565b600081519050919050565b600081519050919050565b600081519050919050565b600081519050919050565b600081519050919050565b600081519050919050565b6000602082019050919050565b6000602082019050919050565b6000602082019050919050565b6000602082019050919050565b600082825260208201905092915050565b600082825260208201905092915050565b600082825260208201905092915050565b600082825260208201905092915050565b600082825260208201905092915050565b600082825260208201905092915050565b600081905092915050565b600082825260208201905092915050565b600082825260208201905092915050565b6000612bce82612c6a565b9150612bd983612c6a565b9250827fffffffffffffffffffffffffffffffffffffffffffffffffffffffffffffffff03821115612c0e57612c0d612dbc565b5b828201905092915050565b6000612c2482612c4a565b9050919050565b60008115159050919050565b6000819050612c458261315e565b919050565b600073ffffffffffffffffffffffffffffffffffffffff82169050919050565b6000819050919050565b6000612c7f82612caa565b9050919050565b6000612c9182612c37565b9050919050565b6000612ca382612c6a565b9050919050565b6000612cb582612cbc565b9050919050565b6000612cc782612c4a565b9050919050565b82818337600083830152505050565b60005b83811015612cfb578082015181840152602081019050612ce0565b83811115612d0a576000848401525b50505050565b60006002820490506001821680612d2857607f821691505b60208210811415612d3c57612d3b612e1a565b5b50919050565b612d4b82612ec0565b810181811067ffffffffffffffff82111715612d6a57612d69612e78565b5b80604052505050565b6000612d7e82612c6a565b91507fffffffffffffffffffffffffffffffffffffffffffffffffffffffffffffffff821415612db157612db0612dbc565b5b600182019050919050565b7f4e487b7100000000000000000000000000000000000000000000000000000000600052601160045260246000fd5b7f4e487b7100000000000000000000000000000000000000000000000000000000600052602160045260246000fd5b7f4e487b7100000000000000000000000000000000000000000000000000000000600052602260045260246000fd5b7f4e487b7100000000000000000000000000000000000000000000000000000000600052603260045260246000fd5b7f4e487b7100000000000000000000000000000000000000000000000000000000600052604160045260246000fd5b600080fd5b600080fd5b600080fd5b600080fd5b600080fd5b6000601f19601f8301169050919050565b7f4e4f545f415f4e45575f4d454d42455200000000000000000000000000000000600082015250565b7f4d454d4245525f4e4f545f524547495354455245440000000000000000000000600082015250565b7f4d656d626572204a6f696e656400000000000000000000000000000000000000600082015250565b7f564f5445525f4e4f545f52454749535445524544000000000000000000000000600082015250565b7f414c52454144595f564f54454400000000000000000000000000000000000000600082015250565b7f50524f504f53414c5f46554e4354494f4e5f41524954595f4d49534d41544348600082015250565b7f50524f504f53414c5f50524f56494445445f544f4f5f4d414e595f414354494f60008201527f4e53000000000000000000000000000000000000000000000000000000000000602082015250565b7f564f54494e475f4c494e45535f4152455f4e4f545f4f50454e00000000000000600082015250565b7f50524f504f53414c5f4445464541544544000000000000000000000000000000600082015250565b7f524553545249435445445f414343455353000000000000000000000000000000600082015250565b7f50524f504f53414c5f4d5553545f50524f564944455f414354494f4e53000000600082015250565b7f50524f504f53414c5f494e5f5155455545000000000000000000000000000000600082015250565b7f494e56414c49445f50524f504f53414c5f494400000000000000000000000000600082015250565b7f455845435554455f5452414e53414354494f4e5f4641494c45442e0000000000600082015250565b7f4d494e494d554d5f4d454d424552534849505f4645455f524551554952454400600082015250565b6007811061316f5761316e612deb565b5b50565b61317b81612c19565b811461318657600080fd5b50565b61319281612c2b565b811461319d57600080fd5b50565b6131a981612c6a565b81146131b457600080fd5b5056fea2646970667358221220976cb3d1e8750e3611ca7b73e9efd5daaa6a8f76748cb94953dd8743ed53678e64736f6c6343000807003360806040523480156200001157600080fd5b506040518060400160405280600f81526020017f436f6c6c6563746f7220546f6b656e00000000000000000000000000000000008152506040518060400160405280600381526020017f435452000000000000000000000000000000000000000000000000000000000081525081600390805190602001906200009692919062000281565b508060049080519060200190620000af92919062000281565b505050620000ef33620000c7620000f560201b60201c565b600a620000d5919062000471565b600a620000e39190620005ae565b620000fe60201b60201c565b620006f0565b60006012905090565b600073ffffffffffffffffffffffffffffffffffffffff168273ffffffffffffffffffffffffffffffffffffffff16141562000171576040517f08c379a0000000000000000000000000000000000000000000000000000000008152600401620001689062000369565b60405180910390fd5b62000185600083836200027760201b60201c565b8060026000828254620001999190620003b9565b92505081905550806000808473ffffffffffffffffffffffffffffffffffffffff1673ffffffffffffffffffffffffffffffffffffffff1681526020019081526020016000206000828254620001f09190620003b9565b925050819055508173ffffffffffffffffffffffffffffffffffffffff16600073ffffffffffffffffffffffffffffffffffffffff167fddf252ad1be2c89b69c2b068fc378daa952ba7f163c4a11628f55a4df523b3ef836040516200025791906200038b565b60405180910390a362000273600083836200027c60201b60201c565b5050565b505050565b505050565b8280546200028f9062000626565b90600052602060002090601f016020900481019282620002b35760008555620002ff565b82601f10620002ce57805160ff1916838001178555620002ff565b82800160010185558215620002ff579182015b82811115620002fe578251825591602001919060010190620002e1565b5b5090506200030e919062000312565b5090565b5b808211156200032d57600081600090555060010162000313565b5090565b600062000340601f83620003a8565b91506200034d82620006c7565b602082019050919050565b62000363816200060f565b82525050565b60006020820190508181036000830152620003848162000331565b9050919050565b6000602082019050620003a2600083018462000358565b92915050565b600082825260208201905092915050565b6000620003c6826200060f565b9150620003d3836200060f565b9250827fffffffffffffffffffffffffffffffffffffffffffffffffffffffffffffffff038211156200040b576200040a6200065c565b5b828201905092915050565b6000808291508390505b6001851115620004685780860481111562000440576200043f6200065c565b5b6001851615620004505780820291505b80810290506200046085620006ba565b945062000420565b94509492505050565b60006200047e826200060f565b91506200048b8362000619565b9250620004ba7fffffffffffffffffffffffffffffffffffffffffffffffffffffffffffffffff8484620004c2565b905092915050565b600082620004d45760019050620005a7565b81620004e45760009050620005a7565b8160018114620004fd576002811462000508576200053e565b6001915050620005a7565b60ff8411156200051d576200051c6200065c565b5b8360020a9150848211156200053757620005366200065c565b5b50620005a7565b5060208310610133831016604e8410600b8410161715620005785782820a9050838111156200057257620005716200065c565b5b620005a7565b62000587848484600162000416565b92509050818404811115620005a157620005a06200065c565b5b81810290505b9392505050565b6000620005bb826200060f565b9150620005c8836200060f565b9250817fffffffffffffffffffffffffffffffffffffffffffffffffffffffffffffffff04831182151516156200060457620006036200065c565b5b828202905092915050565b6000819050919050565b600060ff82169050919050565b600060028204905060018216806200063f57607f821691505b602082108114156200065657620006556200068b565b5b50919050565b7f4e487b7100000000000000000000000000000000000000000000000000000000600052601160045260246000fd5b7f4e487b7100000000000000000000000000000000000000000000000000000000600052602260045260246000fd5b60008160011c9050919050565b7f45524332303a206d696e7420746f20746865207a65726f206164647265737300600082015250565b6113aa80620007006000396000f3fe608060405234801561001057600080fd5b50600436106100a95760003560e01c80633950935111610071578063395093511461016857806370a082311461019857806395d89b41146101c8578063a457c2d7146101e6578063a9059cbb14610216578063dd62ed3e14610246576100a9565b806306fdde03146100ae578063095ea7b3146100cc57806318160ddd146100fc57806323b872dd1461011a578063313ce5671461014a575b600080fd5b6100b6610276565b6040516100c39190610e45565b60405180910390f35b6100e660048036038101906100e19190610c8f565b610308565b6040516100f39190610e2a565b60405180910390f35b610104610326565b6040516101119190610f47565b60405180910390f35b610134600480360381019061012f9190610c3c565b610330565b6040516101419190610e2a565b60405180910390f35b610152610428565b60405161015f9190610f62565b60405180910390f35b610182600480360381019061017d9190610c8f565b610431565b60405161018f9190610e2a565b60405180910390f35b6101b260048036038101906101ad9190610bcf565b6104dd565b6040516101bf9190610f47565b60405180910390f35b6101d0610525565b6040516101dd9190610e45565b60405180910390f35b61020060048036038101906101fb9190610c8f565b6105b7565b60405161020d9190610e2a565b60405180910390f35b610230600480360381019061022b9190610c8f565b6106a2565b60405161023d9190610e2a565b60405180910390f35b610260600480360381019061025b9190610bfc565b6106c0565b60405161026d9190610f47565b60405180910390f35b60606003805461028590611077565b80601f01602080910402602001604051908101604052809291908181526020018280546102b190611077565b80156102fe5780601f106102d3576101008083540402835291602001916102fe565b820191906000526020600020905b8154815290600101906020018083116102e157829003601f168201915b5050505050905090565b600061031c610315610747565b848461074f565b6001905092915050565b6000600254905090565b600061033d84848461091a565b6000600160008673ffffffffffffffffffffffffffffffffffffffff1673ffffffffffffffffffffffffffffffffffffffff1681526020019081526020016000206000610388610747565b73ffffffffffffffffffffffffffffffffffffffff1673ffffffffffffffffffffffffffffffffffffffff16815260200190815260200160002054905082811015610408576040517f08c379a00000000000000000000000000000000000000000000000000000000081526004016103ff90610ec7565b60405180910390fd5b61041c85610414610747565b85840361074f565b60019150509392505050565b60006012905090565b60006104d361043e610747565b84846001600061044c610747565b73ffffffffffffffffffffffffffffffffffffffff1673ffffffffffffffffffffffffffffffffffffffff16815260200190815260200160002060008873ffffffffffffffffffffffffffffffffffffffff1673ffffffffffffffffffffffffffffffffffffffff168152602001908152602001600020546104ce9190610f99565b61074f565b6001905092915050565b60008060008373ffffffffffffffffffffffffffffffffffffffff1673ffffffffffffffffffffffffffffffffffffffff168152602001908152602001600020549050919050565b60606004805461053490611077565b80601f016020809104026020016040519081016040528092919081815260200182805461056090611077565b80156105ad5780601f10610582576101008083540402835291602001916105ad565b820191906000526020600020905b81548152906001019060200180831161059057829003601f168201915b5050505050905090565b600080600160006105c6610747565b73ffffffffffffffffffffffffffffffffffffffff1673ffffffffffffffffffffffffffffffffffffffff16815260200190815260200160002060008573ffffffffffffffffffffffffffffffffffffffff1673ffffffffffffffffffffffffffffffffffffffff16815260200190815260200160002054905082811015610683576040517f08c379a000000000000000000000000000000000000000000000000000000000815260040161067a90610f27565b60405180910390fd5b61069761068e610747565b8585840361074f565b600191505092915050565b60006106b66106af610747565b848461091a565b6001905092915050565b6000600160008473ffffffffffffffffffffffffffffffffffffffff1673ffffffffffffffffffffffffffffffffffffffff16815260200190815260200160002060008373ffffffffffffffffffffffffffffffffffffffff1673ffffffffffffffffffffffffffffffffffffffff16815260200190815260200160002054905092915050565b600033905090565b600073ffffffffffffffffffffffffffffffffffffffff168373ffffffffffffffffffffffffffffffffffffffff1614156107bf576040517f08c379a00000000000000000000000000000000000000000000000000000000081526004016107b690610f07565b60405180910390fd5b600073ffffffffffffffffffffffffffffffffffffffff168273ffffffffffffffffffffffffffffffffffffffff16141561082f576040517f08c379a000000000000000000000000000000000000000000000000000000000815260040161082690610e87565b60405180910390fd5b80600160008573ffffffffffffffffffffffffffffffffffffffff1673ffffffffffffffffffffffffffffffffffffffff16815260200190815260200160002060008473ffffffffffffffffffffffffffffffffffffffff1673ffffffffffffffffffffffffffffffffffffffff168152602001908152602001600020819055508173ffffffffffffffffffffffffffffffffffffffff168373ffffffffffffffffffffffffffffffffffffffff167f8c5be1e5ebec7d5bd14f71427d1e84f3dd0314c0f7b2291e5b200ac8c7c3b9258360405161090d9190610f47565b60405180910390a3505050565b600073ffffffffffffffffffffffffffffffffffffffff168373ffffffffffffffffffffffffffffffffffffffff16141561098a576040517f08c379a000000000000000000000000000000000000000000000000000000000815260040161098190610ee7565b60405180910390fd5b600073ffffffffffffffffffffffffffffffffffffffff168273ffffffffffffffffffffffffffffffffffffffff1614156109fa576040517f08c379a00000000000000000000000000000000000000000000000000000000081526004016109f190610e67565b60405180910390fd5b610a05838383610b9b565b60008060008573ffffffffffffffffffffffffffffffffffffffff1673ffffffffffffffffffffffffffffffffffffffff16815260200190815260200160002054905081811015610a8b576040517f08c379a0000000000000000000000000000000000000000000000000000000008152600401610a8290610ea7565b60405180910390fd5b8181036000808673ffffffffffffffffffffffffffffffffffffffff1673ffffffffffffffffffffffffffffffffffffffff16815260200190815260200160002081905550816000808573ffffffffffffffffffffffffffffffffffffffff1673ffffffffffffffffffffffffffffffffffffffff1681526020019081526020016000206000828254610b1e9190610f99565b925050819055508273ffffffffffffffffffffffffffffffffffffffff168473ffffffffffffffffffffffffffffffffffffffff167fddf252ad1be2c89b69c2b068fc378daa952ba7f163c4a11628f55a4df523b3ef84604051610b829190610f47565b60405180910390a3610b95848484610ba0565b50505050565b505050565b505050565b600081359050610bb481611346565b92915050565b600081359050610bc98161135d565b92915050565b600060208284031215610be557610be4611107565b5b6000610bf384828501610ba5565b91505092915050565b60008060408385031215610c1357610c12611107565b5b6000610c2185828601610ba5565b9250506020610c3285828601610ba5565b9150509250929050565b600080600060608486031215610c5557610c54611107565b5b6000610c6386828701610ba5565b9350506020610c7486828701610ba5565b9250506040610c8586828701610bba565b9150509250925092565b60008060408385031215610ca657610ca5611107565b5b6000610cb485828601610ba5565b9250506020610cc585828601610bba565b9150509250929050565b610cd881611001565b82525050565b6000610ce982610f7d565b610cf38185610f88565b9350610d03818560208601611044565b610d0c8161110c565b840191505092915050565b6000610d24602383610f88565b9150610d2f8261111d565b604082019050919050565b6000610d47602283610f88565b9150610d528261116c565b604082019050919050565b6000610d6a602683610f88565b9150610d75826111bb565b604082019050919050565b6000610d8d602883610f88565b9150610d988261120a565b604082019050919050565b6000610db0602583610f88565b9150610dbb82611259565b604082019050919050565b6000610dd3602483610f88565b9150610dde826112a8565b604082019050919050565b6000610df6602583610f88565b9150610e01826112f7565b604082019050919050565b610e158161102d565b82525050565b610e2481611037565b82525050565b6000602082019050610e3f6000830184610ccf565b92915050565b60006020820190508181036000830152610e5f8184610cde565b905092915050565b60006020820190508181036000830152610e8081610d17565b9050919050565b60006020820190508181036000830152610ea081610d3a565b9050919050565b60006020820190508181036000830152610ec081610d5d565b9050919050565b60006020820190508181036000830152610ee081610d80565b9050919050565b60006020820190508181036000830152610f0081610da3565b9050919050565b60006020820190508181036000830152610f2081610dc6565b9050919050565b60006020820190508181036000830152610f4081610de9565b9050919050565b6000602082019050610f5c6000830184610e0c565b92915050565b6000602082019050610f776000830184610e1b565b92915050565b600081519050919050565b600082825260208201905092915050565b6000610fa48261102d565b9150610faf8361102d565b9250827fffffffffffffffffffffffffffffffffffffffffffffffffffffffffffffffff03821115610fe457610fe36110a9565b5b828201905092915050565b6000610ffa8261100d565b9050919050565b60008115159050919050565b600073ffffffffffffffffffffffffffffffffffffffff82169050919050565b6000819050919050565b600060ff82169050919050565b60005b83811015611062578082015181840152602081019050611047565b83811115611071576000848401525b50505050565b6000600282049050600182168061108f57607f821691505b602082108114156110a3576110a26110d8565b5b50919050565b7f4e487b7100000000000000000000000000000000000000000000000000000000600052601160045260246000fd5b7f4e487b7100000000000000000000000000000000000000000000000000000000600052602260045260246000fd5b600080fd5b6000601f19601f8301169050919050565b7f45524332303a207472616e7366657220746f20746865207a65726f206164647260008201527f6573730000000000000000000000000000000000000000000000000000000000602082015250565b7f45524332303a20617070726f766520746f20746865207a65726f20616464726560008201527f7373000000000000000000000000000000000000000000000000000000000000602082015250565b7f45524332303a207472616e7366657220616d6f756e742065786365656473206260008201527f616c616e63650000000000000000000000000000000000000000000000000000602082015250565b7f45524332303a207472616e7366657220616d6f756e742065786365656473206160008201527f6c6c6f77616e6365000000000000000000000000000000000000000000000000602082015250565b7f45524332303a207472616e736665722066726f6d20746865207a65726f20616460008201527f6472657373000000000000000000000000000000000000000000000000000000602082015250565b7f45524332303a20617070726f76652066726f6d20746865207a65726f2061646460008201527f7265737300000000000000000000000000000000000000000000000000000000602082015250565b7f45524332303a2064656372656173656420616c6c6f77616e63652062656c6f7760008201527f207a65726f000000000000000000000000000000000000000000000000000000602082015250565b61134f81610fef565b811461135a57600080fd5b50565b6113668161102d565b811461137157600080fd5b5056fea26469706673582212201056cc2e6030d87692a735269aa85c203fbc5816149965c10d156f69c02efdd464736f6c63430008070033",
  "linkReferences": {},
  "deployedLinkReferences": {}
}