{
  "_format": "hh-sol-artifact-1",
  "contractName": "CollectorDAO",
  "sourceName": "contracts/CollectorDAO.sol",
  "abi": [
    {
      "inputs": [],
      "stateMutability": "nonpayable",
      "type": "constructor"
    },
    {
      "anonymous": false,
      "inputs": [
        {
          "indexed": true,
          "internalType": "address",
          "name": "sender",
          "type": "address"
        },
        {
          "indexed": false,
          "internalType": "string",
          "name": "message",
          "type": "string"
        }
      ],
      "name": "Join",
      "type": "event"
    },
    {
      "anonymous": false,
      "inputs": [
        {
          "indexed": false,
          "internalType": "uint256",
          "name": "id",
          "type": "uint256"
        },
        {
          "indexed": false,
          "internalType": "address",
          "name": "proposer",
          "type": "address"
        },
        {
          "indexed": false,
          "internalType": "address[]",
          "name": "targets",
          "type": "address[]"
        },
        {
          "indexed": false,
          "internalType": "uint256[]",
          "name": "values",
          "type": "uint256[]"
        },
        {
          "indexed": false,
          "internalType": "string[]",
          "name": "signatures",
          "type": "string[]"
        },
        {
          "indexed": false,
          "internalType": "bytes[]",
          "name": "calldatas",
          "type": "bytes[]"
        },
        {
          "indexed": false,
          "internalType": "uint256",
          "name": "startBlock",
          "type": "uint256"
        },
        {
          "indexed": false,
          "internalType": "uint256",
          "name": "endBlock",
          "type": "uint256"
        },
        {
          "indexed": false,
          "internalType": "string",
          "name": "description",
          "type": "string"
        }
      ],
      "name": "ProposalCreated",
      "type": "event"
    },
    {
      "anonymous": false,
      "inputs": [
        {
          "indexed": false,
          "internalType": "address",
          "name": "voter",
          "type": "address"
        },
        {
          "indexed": false,
          "internalType": "uint256",
          "name": "proposalId",
          "type": "uint256"
        },
        {
          "indexed": false,
          "internalType": "bool",
          "name": "support",
          "type": "bool"
        }
      ],
      "name": "VoteCast",
      "type": "event"
    },
    {
      "inputs": [],
      "name": "NAME",
      "outputs": [
        {
          "internalType": "string",
          "name": "",
          "type": "string"
        }
      ],
      "stateMutability": "view",
      "type": "function"
    },
    {
      "inputs": [
        {
          "internalType": "uint256",
          "name": "proposalId",
          "type": "uint256"
        },
        {
          "internalType": "bool",
          "name": "support",
          "type": "bool"
        }
      ],
      "name": "castVote",
      "outputs": [],
      "stateMutability": "nonpayable",
      "type": "function"
    },
    {
      "inputs": [
        {
          "internalType": "uint256",
          "name": "proposalId",
          "type": "uint256"
        },
        {
          "internalType": "address",
          "name": "voter",
          "type": "address"
        }
      ],
      "name": "getReceipt",
      "outputs": [
        {
          "components": [
            {
              "internalType": "bool",
              "name": "hasVoted",
              "type": "bool"
            },
            {
              "internalType": "bool",
              "name": "support",
              "type": "bool"
            }
          ],
          "internalType": "struct CollectorDAO.Receipt",
          "name": "",
          "type": "tuple"
        }
      ],
      "stateMutability": "view",
      "type": "function"
    },
    {
      "inputs": [],
      "name": "getTokenAddress",
      "outputs": [
        {
          "internalType": "contract CToken",
          "name": "",
          "type": "address"
        }
      ],
      "stateMutability": "view",
      "type": "function"
    },
    {
      "inputs": [],
      "name": "join",
      "outputs": [
        {
          "internalType": "bool",
          "name": "",
          "type": "bool"
        }
      ],
      "stateMutability": "payable",
      "type": "function"
    },
    {
      "inputs": [
        {
          "internalType": "address",
          "name": "",
          "type": "address"
        }
      ],
      "name": "latestProposalIds",
      "outputs": [
        {
          "internalType": "uint256",
          "name": "",
          "type": "uint256"
        }
      ],
      "stateMutability": "view",
      "type": "function"
    },
    {
      "inputs": [],
      "name": "proposalCount",
      "outputs": [
        {
          "internalType": "uint256",
          "name": "",
          "type": "uint256"
        }
      ],
      "stateMutability": "view",
      "type": "function"
    },
    {
      "inputs": [],
      "name": "proposalMaxOperations",
      "outputs": [
        {
          "internalType": "uint256",
          "name": "",
          "type": "uint256"
        }
      ],
      "stateMutability": "pure",
      "type": "function"
    },
    {
      "inputs": [
        {
          "internalType": "uint256",
          "name": "",
          "type": "uint256"
        }
      ],
      "name": "proposals",
      "outputs": [
        {
          "internalType": "uint256",
          "name": "id",
          "type": "uint256"
        },
        {
          "internalType": "address",
          "name": "proposer",
          "type": "address"
        },
        {
          "internalType": "uint256",
          "name": "eta",
          "type": "uint256"
        },
        {
          "internalType": "uint256",
          "name": "startBlock",
          "type": "uint256"
        },
        {
          "internalType": "uint256",
          "name": "endBlock",
          "type": "uint256"
        },
        {
          "internalType": "uint256",
          "name": "forVotes",
          "type": "uint256"
        },
        {
          "internalType": "uint256",
          "name": "againstVotes",
          "type": "uint256"
        },
        {
          "internalType": "bool",
          "name": "executed",
          "type": "bool"
        }
      ],
      "stateMutability": "view",
      "type": "function"
    },
    {
      "inputs": [
        {
          "internalType": "address[]",
          "name": "targets",
          "type": "address[]"
        },
        {
          "internalType": "uint256[]",
          "name": "values",
          "type": "uint256[]"
        },
        {
          "internalType": "string[]",
          "name": "signatures",
          "type": "string[]"
        },
        {
          "internalType": "bytes[]",
          "name": "calldatas",
          "type": "bytes[]"
        },
        {
          "internalType": "string",
          "name": "description",
          "type": "string"
        }
      ],
      "name": "propose",
      "outputs": [
        {
          "internalType": "uint256",
          "name": "",
          "type": "uint256"
        }
      ],
      "stateMutability": "payable",
      "type": "function"
    },
    {
      "inputs": [],
      "name": "quorumVotes",
      "outputs": [
        {
          "internalType": "uint256",
          "name": "",
          "type": "uint256"
        }
      ],
      "stateMutability": "pure",
      "type": "function"
    },
    {
      "inputs": [
        {
          "internalType": "uint256",
          "name": "proposalId",
          "type": "uint256"
        }
      ],
      "name": "state",
      "outputs": [
        {
          "internalType": "enum CollectorDAO.ProposalState",
          "name": "",
          "type": "uint8"
        }
      ],
      "stateMutability": "view",
      "type": "function"
    },
    {
      "inputs": [
        {
          "internalType": "address",
          "name": "member",
          "type": "address"
        }
      ],
      "name": "tokenBalance",
      "outputs": [
        {
          "internalType": "uint256",
          "name": "",
          "type": "uint256"
        }
      ],
      "stateMutability": "view",
      "type": "function"
    },
    {
      "inputs": [],
      "name": "votingDelay",
      "outputs": [
        {
          "internalType": "uint256",
          "name": "",
          "type": "uint256"
        }
      ],
      "stateMutability": "pure",
      "type": "function"
    },
    {
      "inputs": [],
      "name": "votingPeriod",
      "outputs": [
        {
          "internalType": "uint256",
          "name": "",
          "type": "uint256"
        }
      ],
      "stateMutability": "pure",
      "type": "function"
    }
  ],
  "bytecode": "0x60806040523480156200001157600080fd5b50604051620000209062000083565b604051809103906000f0801580156200003d573d6000803e3d6000fd5b506000806101000a81548173ffffffffffffffffffffffffffffffffffffffff021916908373ffffffffffffffffffffffffffffffffffffffff16021790555062000091565b611aaa8062002cda83390190565b612c3980620000a16000396000f3fe6080604052600436106100e85760003560e01c80633e4f49e61161008a578063da35c66411610059578063da35c664146102f4578063da95691a1461031f578063e23a9a521461034f578063eedc966a1461038c576100e8565b80633e4f49e6146102435780637bdbe4d014610280578063a3f4df7e146102ab578063b688a363146102d6576100e8565b806315373e3d116100c657806315373e3d1461018757806317977c61146101b057806324bc1a64146101ed5780633932abb114610218576100e8565b8063013cf08b146100ed57806302a251a31461013157806310fe9ae81461015c575b600080fd5b3480156100f957600080fd5b50610114600480360381019061010f9190611aa6565b6103c9565b6040516101289897969594939291906123d7565b60405180910390f35b34801561013d57600080fd5b5061014661043e565b604051610153919061230c565b60405180910390f35b34801561016857600080fd5b50610171610448565b60405161017e9190612119565b60405180910390f35b34801561019357600080fd5b506101ae60048036038101906101a99190611b40565b610471565b005b3480156101bc57600080fd5b506101d760048036038101906101d29190611945565b610785565b6040516101e4919061230c565b60405180910390f35b3480156101f957600080fd5b5061020261079d565b60405161020f919061230c565b60405180910390f35b34801561022457600080fd5b5061022d6107ac565b60405161023a919061230c565b60405180910390f35b34801561024f57600080fd5b5061026a60048036038101906102659190611aa6565b6107b5565b6040516102779190612134565b60405180910390f35b34801561028c57600080fd5b506102956108dd565b6040516102a2919061230c565b60405180910390f35b3480156102b757600080fd5b506102c06108e6565b6040516102cd919061214f565b60405180910390f35b6102de61091f565b6040516102eb91906120fe565b60405180910390f35b34801561030057600080fd5b50610309610b76565b604051610316919061230c565b60405180910390f35b61033960048036038101906103349190611972565b610b7c565b604051610346919061230c565b60405180910390f35b34801561035b57600080fd5b5061037660048036038101906103719190611b00565b610f8c565b60405161038391906122f1565b60405180910390f35b34801561039857600080fd5b506103b360048036038101906103ae9190611945565b61102d565b6040516103c0919061230c565b60405180910390f35b60056020528060005260406000206000915090508060000154908060010160009054906101000a900473ffffffffffffffffffffffffffffffffffffffff169080600201549080600701549080600801549080600901549080600a01549080600b0160009054906101000a900460ff16905088565b6000614380905090565b60008060009054906101000a900473ffffffffffffffffffffffffffffffffffffffff16905090565b60011515600160003373ffffffffffffffffffffffffffffffffffffffff1673ffffffffffffffffffffffffffffffffffffffff16815260200190815260200160002060009054906101000a900460ff16151514610504576040517f08c379a00000000000000000000000000000000000000000000000000000000081526004016104fb906121f1565b60405180910390fd5b60006007811115610518576105176128e1565b5b610521836107b5565b6007811115610533576105326128e1565b5b141561057b57600061057a576040517f08c379a000000000000000000000000000000000000000000000000000000000815260040161057190612271565b60405180910390fd5b5b6001600781111561058f5761058e6128e1565b5b610598836107b5565b60078111156105aa576105a96128e1565b5b146105ea576040517f08c379a00000000000000000000000000000000000000000000000000000000081526004016105e1906121b1565b60405180910390fd5b600033905060006004600085815260200190815260200160002060008373ffffffffffffffffffffffffffffffffffffffff1673ffffffffffffffffffffffffffffffffffffffff1681526020019081526020016000209050600015158160000160009054906101000a900460ff1615151461069b576040517f08c379a000000000000000000000000000000000000000000000000000000000815260040161069290612211565b60405180910390fd5b6106b58160000160009054906101000a900460ff166110e0565b600060056000868152602001908152602001600020905083156106f057600181600901546106e391906126b9565b816009018190555061070a565b600181600a015461070191906126b9565b81600a01819055505b60018260000160006101000a81548160ff021916908315150217905550838260000160016101000a81548160ff0219169083151502179055507fd356173ae8eeea8691aee4c1be712c314a975a3d43ebc48b08ca54d0dac91228838686604051610776939291906120c7565b60405180910390a15050505050565b60066020528060005260406000206000915090505481565b60006658d15e17628000905090565b60006001905090565b600081600354101580156107c95750600082115b610808576040517f08c379a00000000000000000000000000000000000000000000000000000000081526004016107ff906122b1565b60405180910390fd5b6000600560008481526020019081526020016000209050806007015443116108345760009150506108d8565b806008015443116108495760019150506108d8565b80600a0154816009015411158061086a575061086361079d565b8160090154105b156108795760039150506108d8565b6000816002015414156108905760049150506108d8565b80600b0160009054906101000a900460ff16156108b15760079150506108d8565b600181600201546108c291906126b9565b42106108d25760069150506108d8565b60059150505b919050565b60006003905090565b6040518060400160405280600d81526020017f436f6c6c6563746f722044414f0000000000000000000000000000000000000081525081565b6000801515600160003373ffffffffffffffffffffffffffffffffffffffff1673ffffffffffffffffffffffffffffffffffffffff16815260200190815260200160002060009054906101000a900460ff161515146109b3576040517f08c379a00000000000000000000000000000000000000000000000000000000081526004016109aa90612171565b60405180910390fd5b66038d7ea4c680003410156109fd576040517f08c379a00000000000000000000000000000000000000000000000000000000081526004016109f4906122d1565b60405180910390fd5b60018060003373ffffffffffffffffffffffffffffffffffffffff1673ffffffffffffffffffffffffffffffffffffffff16815260200190815260200160002060006101000a81548160ff0219169083151502179055503460026000828254610a6691906126b9565b9250508190555060008054906101000a900473ffffffffffffffffffffffffffffffffffffffff1673ffffffffffffffffffffffffffffffffffffffff1663a9059cbb33670de0b6b3a76400006040518363ffffffff1660e01b8152600401610ad092919061209e565b602060405180830381600087803b158015610aea57600080fd5b505af1158015610afe573d6000803e3d6000fd5b505050506040513d601f19601f82011682018060405250810190610b229190611a79565b503373ffffffffffffffffffffffffffffffffffffffff167f99ff3c8493cc730b7a818210b81af665c9b2bdb63cdf4f2c4108e092dec7a621604051610b67906121d1565b60405180910390a26001905090565b60035481565b600060011515600160003373ffffffffffffffffffffffffffffffffffffffff1673ffffffffffffffffffffffffffffffffffffffff16815260200190815260200160002060009054906101000a900460ff16151514610c11576040517f08c379a0000000000000000000000000000000000000000000000000000000008152600401610c0890612191565b60405180910390fd5b600086511415610c56576040517f08c379a0000000000000000000000000000000000000000000000000000000008152600401610c4d90612291565b60405180910390fd5b83518651148015610c68575082518651145b610ca7576040517f08c379a0000000000000000000000000000000000000000000000000000000008152600401610c9e90612231565b60405180910390fd5b610caf6108dd565b86511115610cf2576040517f08c379a0000000000000000000000000000000000000000000000000000000008152600401610ce990612251565b60405180910390fd5b6000610cfc6107ac565b43610d0791906126b9565b90506000610d1361043e565b82610d1e91906126b9565b905060036000815480929190610d3390612869565b9190505550600060405180610180016040528060035481526020013373ffffffffffffffffffffffffffffffffffffffff168152602001600081526020018a815260200189815260200188815260200187815260200184815260200183815260200160008152602001600081526020016000151581525090508060056000836000015181526020019081526020016000206000820151816000015560208201518160010160006101000a81548173ffffffffffffffffffffffffffffffffffffffff021916908373ffffffffffffffffffffffffffffffffffffffff160217905550604082015181600201556060820151816003019080519060200190610e3b9291906111a2565b506080820151816004019080519060200190610e5892919061122c565b5060a0820151816005019080519060200190610e75929190611279565b5060c0820151816006019080519060200190610e929291906112d9565b5060e082015181600701556101008201518160080155610120820151816009015561014082015181600a015561016082015181600b0160006101000a81548160ff021916908315150217905550905050806000015160066000836020015173ffffffffffffffffffffffffffffffffffffffff1673ffffffffffffffffffffffffffffffffffffffff168152602001908152602001600020819055507f7d84a6263ae0d98d3329bd7b46bb4e8d6f98cd35a7adb45c274c8b7fd5ebd5e08160000151338b8b8b8b89898d604051610f7199989796959493929190612327565b60405180910390a18060000151935050505095945050505050565b610f94611339565b6004600084815260200190815260200160002060008373ffffffffffffffffffffffffffffffffffffffff1673ffffffffffffffffffffffffffffffffffffffff1681526020019081526020016000206040518060400160405290816000820160009054906101000a900460ff161515151581526020016000820160019054906101000a900460ff161515151581525050905092915050565b60008060009054906101000a900473ffffffffffffffffffffffffffffffffffffffff1673ffffffffffffffffffffffffffffffffffffffff166370a08231836040518263ffffffff1660e01b81526004016110899190612083565b60206040518083038186803b1580156110a157600080fd5b505afa1580156110b5573d6000803e3d6000fd5b505050506040513d601f19601f820116820180604052508101906110d99190611ad3565b9050919050565b611176816040516024016110f491906120fe565b6040516020818303038152906040527f32458eed000000000000000000000000000000000000000000000000000000007bffffffffffffffffffffffffffffffffffffffffffffffffffffffff19166020820180517bffffffffffffffffffffffffffffffffffffffffffffffffffffffff8381831617835250505050611179565b50565b60008151905060006a636f6e736f6c652e6c6f679050602083016000808483855afa5050505050565b82805482825590600052602060002090810192821561121b579160200282015b8281111561121a5782518260006101000a81548173ffffffffffffffffffffffffffffffffffffffff021916908373ffffffffffffffffffffffffffffffffffffffff160217905550916020019190600101906111c2565b5b5090506112289190611357565b5090565b828054828255906000526020600020908101928215611268579160200282015b8281111561126757825182559160200191906001019061124c565b5b5090506112759190611357565b5090565b8280548282559060005260206000209081019282156112c8579160200282015b828111156112c75782518290805190602001906112b7929190611374565b5091602001919060010190611299565b5b5090506112d591906113fa565b5090565b828054828255906000526020600020908101928215611328579160200282015b8281111561132757825182908051906020019061131792919061141e565b50916020019190600101906112f9565b5b50905061133591906114a4565b5090565b60405180604001604052806000151581526020016000151581525090565b5b80821115611370576000816000905550600101611358565b5090565b82805461138090612806565b90600052602060002090601f0160209004810192826113a257600085556113e9565b82601f106113bb57805160ff19168380011785556113e9565b828001600101855582156113e9579182015b828111156113e85782518255916020019190600101906113cd565b5b5090506113f69190611357565b5090565b5b8082111561141a576000818161141191906114c8565b506001016113fb565b5090565b82805461142a90612806565b90600052602060002090601f01602090048101928261144c5760008555611493565b82601f1061146557805160ff1916838001178555611493565b82800160010185558215611493579182015b82811115611492578251825591602001919060010190611477565b5b5090506114a09190611357565b5090565b5b808211156114c457600081816114bb9190611508565b506001016114a5565b5090565b5080546114d490612806565b6000825580601f106114e65750611505565b601f0160209004906000526020600020908101906115049190611357565b5b50565b50805461151490612806565b6000825580601f106115265750611545565b601f0160209004906000526020600020908101906115449190611357565b5b50565b600061155b6115568461247a565b612455565b9050808382526020820190508285602086028201111561157e5761157d612973565b5b60005b858110156115ae578161159488826117c8565b845260208401935060208301925050600181019050611581565b5050509392505050565b60006115cb6115c6846124a6565b612455565b905080838252602082019050828560208602820111156115ee576115ed612973565b5b60005b8581101561163c57813567ffffffffffffffff8111156116145761161361296e565b5b80860161162189826118bf565b855260208501945060208401935050506001810190506115f1565b5050509392505050565b6000611659611654846124d2565b612455565b9050808382526020820190508285602086028201111561167c5761167b612973565b5b60005b858110156116ca57813567ffffffffffffffff8111156116a2576116a161296e565b5b8086016116af89826118ed565b8552602085019450602084019350505060018101905061167f565b5050509392505050565b60006116e76116e2846124fe565b612455565b9050808382526020820190508285602086028201111561170a57611709612973565b5b60005b8581101561173a5781611720888261191b565b84526020840193506020830192505060018101905061170d565b5050509392505050565b60006117576117528461252a565b612455565b90508281526020810184848401111561177357611772612978565b5b61177e8482856127c4565b509392505050565b60006117996117948461255b565b612455565b9050828152602081018484840111156117b5576117b4612978565b5b6117c08482856127c4565b509392505050565b6000813590506117d781612bbe565b92915050565b600082601f8301126117f2576117f161296e565b5b8135611802848260208601611548565b91505092915050565b600082601f8301126118205761181f61296e565b5b81356118308482602086016115b8565b91505092915050565b600082601f83011261184e5761184d61296e565b5b813561185e848260208601611646565b91505092915050565b600082601f83011261187c5761187b61296e565b5b813561188c8482602086016116d4565b91505092915050565b6000813590506118a481612bd5565b92915050565b6000815190506118b981612bd5565b92915050565b600082601f8301126118d4576118d361296e565b5b81356118e4848260208601611744565b91505092915050565b600082601f8301126119025761190161296e565b5b8135611912848260208601611786565b91505092915050565b60008135905061192a81612bec565b92915050565b60008151905061193f81612bec565b92915050565b60006020828403121561195b5761195a612982565b5b6000611969848285016117c8565b91505092915050565b600080600080600060a0868803121561198e5761198d612982565b5b600086013567ffffffffffffffff8111156119ac576119ab61297d565b5b6119b8888289016117dd565b955050602086013567ffffffffffffffff8111156119d9576119d861297d565b5b6119e588828901611867565b945050604086013567ffffffffffffffff811115611a0657611a0561297d565b5b611a1288828901611839565b935050606086013567ffffffffffffffff811115611a3357611a3261297d565b5b611a3f8882890161180b565b925050608086013567ffffffffffffffff811115611a6057611a5f61297d565b5b611a6c888289016118ed565b9150509295509295909350565b600060208284031215611a8f57611a8e612982565b5b6000611a9d848285016118aa565b91505092915050565b600060208284031215611abc57611abb612982565b5b6000611aca8482850161191b565b91505092915050565b600060208284031215611ae957611ae8612982565b5b6000611af784828501611930565b91505092915050565b60008060408385031215611b1757611b16612982565b5b6000611b258582860161191b565b9250506020611b36858286016117c8565b9150509250929050565b60008060408385031215611b5757611b56612982565b5b6000611b658582860161191b565b9250506020611b7685828601611895565b9150509250929050565b6000611b8c8383611bd8565b60208301905092915050565b6000611ba48383611dba565b905092915050565b6000611bb88383611e20565b905092915050565b6000611bcc8383612065565b60208301905092915050565b611be18161270f565b82525050565b611bf08161270f565b82525050565b6000611c01826125cc565b611c0b8185612642565b9350611c168361258c565b8060005b83811015611c47578151611c2e8882611b80565b9750611c398361260e565b925050600181019050611c1a565b5085935050505092915050565b6000611c5f826125d7565b611c698185612653565b935083602082028501611c7b8561259c565b8060005b85811015611cb75784840389528151611c988582611b98565b9450611ca38361261b565b925060208a01995050600181019050611c7f565b50829750879550505050505092915050565b6000611cd4826125e2565b611cde8185612664565b935083602082028501611cf0856125ac565b8060005b85811015611d2c5784840389528151611d0d8582611bac565b9450611d1883612628565b925060208a01995050600181019050611cf4565b50829750879550505050505092915050565b6000611d49826125ed565b611d538185612675565b9350611d5e836125bc565b8060005b83811015611d8f578151611d768882611bc0565b9750611d8183612635565b925050600181019050611d62565b5085935050505092915050565b611da581612721565b82525050565b611db481612721565b82525050565b6000611dc5826125f8565b611dcf8185612686565b9350611ddf8185602086016127d3565b611de881612987565b840191505092915050565b611dfc8161276a565b82525050565b611e0b8161277c565b82525050565b611e1a8161278e565b82525050565b6000611e2b82612603565b611e358185612697565b9350611e458185602086016127d3565b611e4e81612987565b840191505092915050565b6000611e6482612603565b611e6e81856126a8565b9350611e7e8185602086016127d3565b611e8781612987565b840191505092915050565b6000611e9f6010836126a8565b9150611eaa82612998565b602082019050919050565b6000611ec26015836126a8565b9150611ecd826129c1565b602082019050919050565b6000611ee5600d836126a8565b9150611ef0826129ea565b602082019050919050565b6000611f08600d836126a8565b9150611f1382612a13565b602082019050919050565b6000611f2b6014836126a8565b9150611f3682612a3c565b602082019050919050565b6000611f4e600d836126a8565b9150611f5982612a65565b602082019050919050565b6000611f716020836126a8565b9150611f7c82612a8e565b602082019050919050565b6000611f946022836126a8565b9150611f9f82612ab7565b604082019050919050565b6000611fb76019836126a8565b9150611fc282612b06565b602082019050919050565b6000611fda601d836126a8565b9150611fe582612b2f565b602082019050919050565b6000611ffd6013836126a8565b915061200882612b58565b602082019050919050565b6000612020601f836126a8565b915061202b82612b81565b602082019050919050565b60408201600082015161204c6000850182611d9c565b50602082015161205f6020850182611d9c565b50505050565b61206e81612760565b82525050565b61207d81612760565b82525050565b60006020820190506120986000830184611be7565b92915050565b60006040820190506120b36000830185611be7565b6120c06020830184611e11565b9392505050565b60006060820190506120dc6000830186611be7565b6120e96020830185612074565b6120f66040830184611dab565b949350505050565b60006020820190506121136000830184611dab565b92915050565b600060208201905061212e6000830184611df3565b92915050565b60006020820190506121496000830184611e02565b92915050565b600060208201905081810360008301526121698184611e59565b905092915050565b6000602082019050818103600083015261218a81611e92565b9050919050565b600060208201905081810360008301526121aa81611eb5565b9050919050565b600060208201905081810360008301526121ca81611ed8565b9050919050565b600060208201905081810360008301526121ea81611efb565b9050919050565b6000602082019050818103600083015261220a81611f1e565b9050919050565b6000602082019050818103600083015261222a81611f41565b9050919050565b6000602082019050818103600083015261224a81611f64565b9050919050565b6000602082019050818103600083015261226a81611f87565b9050919050565b6000602082019050818103600083015261228a81611faa565b9050919050565b600060208201905081810360008301526122aa81611fcd565b9050919050565b600060208201905081810360008301526122ca81611ff0565b9050919050565b600060208201905081810360008301526122ea81612013565b9050919050565b60006040820190506123066000830184612036565b92915050565b60006020820190506123216000830184612074565b92915050565b60006101208201905061233d600083018c612074565b61234a602083018b611be7565b818103604083015261235c818a611bf6565b905081810360608301526123708189611d3e565b905081810360808301526123848188611cc9565b905081810360a08301526123988187611c54565b90506123a760c0830186612074565b6123b460e0830185612074565b8181036101008301526123c78184611e59565b90509a9950505050505050505050565b6000610100820190506123ed600083018b612074565b6123fa602083018a611be7565b6124076040830189612074565b6124146060830188612074565b6124216080830187612074565b61242e60a0830186612074565b61243b60c0830185612074565b61244860e0830184611dab565b9998505050505050505050565b600061245f612470565b905061246b8282612838565b919050565b6000604051905090565b600067ffffffffffffffff8211156124955761249461293f565b5b602082029050602081019050919050565b600067ffffffffffffffff8211156124c1576124c061293f565b5b602082029050602081019050919050565b600067ffffffffffffffff8211156124ed576124ec61293f565b5b602082029050602081019050919050565b600067ffffffffffffffff8211156125195761251861293f565b5b602082029050602081019050919050565b600067ffffffffffffffff8211156125455761254461293f565b5b61254e82612987565b9050602081019050919050565b600067ffffffffffffffff8211156125765761257561293f565b5b61257f82612987565b9050602081019050919050565b6000819050602082019050919050565b6000819050602082019050919050565b6000819050602082019050919050565b6000819050602082019050919050565b600081519050919050565b600081519050919050565b600081519050919050565b600081519050919050565b600081519050919050565b600081519050919050565b6000602082019050919050565b6000602082019050919050565b6000602082019050919050565b6000602082019050919050565b600082825260208201905092915050565b600082825260208201905092915050565b600082825260208201905092915050565b600082825260208201905092915050565b600082825260208201905092915050565b600082825260208201905092915050565b600082825260208201905092915050565b60006126c482612760565b91506126cf83612760565b9250827fffffffffffffffffffffffffffffffffffffffffffffffffffffffffffffffff03821115612704576127036128b2565b5b828201905092915050565b600061271a82612740565b9050919050565b60008115159050919050565b600081905061273b82612baa565b919050565b600073ffffffffffffffffffffffffffffffffffffffff82169050919050565b6000819050919050565b6000612775826127a0565b9050919050565b60006127878261272d565b9050919050565b600061279982612760565b9050919050565b60006127ab826127b2565b9050919050565b60006127bd82612740565b9050919050565b82818337600083830152505050565b60005b838110156127f15780820151818401526020810190506127d6565b83811115612800576000848401525b50505050565b6000600282049050600182168061281e57607f821691505b6020821081141561283257612831612910565b5b50919050565b61284182612987565b810181811067ffffffffffffffff821117156128605761285f61293f565b5b80604052505050565b600061287482612760565b91507fffffffffffffffffffffffffffffffffffffffffffffffffffffffffffffffff8214156128a7576128a66128b2565b5b600182019050919050565b7f4e487b7100000000000000000000000000000000000000000000000000000000600052601160045260246000fd5b7f4e487b7100000000000000000000000000000000000000000000000000000000600052602160045260246000fd5b7f4e487b7100000000000000000000000000000000000000000000000000000000600052602260045260246000fd5b7f4e487b7100000000000000000000000000000000000000000000000000000000600052604160045260246000fd5b600080fd5b600080fd5b600080fd5b600080fd5b600080fd5b6000601f19601f8301169050919050565b7f4e4f545f415f4e45575f4d454d42455200000000000000000000000000000000600082015250565b7f4d454d4245525f4e4f545f524547495354455245440000000000000000000000600082015250565b7f564f54494e475f434c4f53454400000000000000000000000000000000000000600082015250565b7f4d656d626572204a6f696e656400000000000000000000000000000000000000600082015250565b7f564f5445525f4e4f545f52454749535445524544000000000000000000000000600082015250565b7f414c52454144595f564f54454400000000000000000000000000000000000000600082015250565b7f50524f504f53414c5f46554e4354494f4e5f41524954595f4d49534d41544348600082015250565b7f50524f504f53414c5f50524f56494445445f544f4f5f4d414e595f414354494f60008201527f4e53000000000000000000000000000000000000000000000000000000000000602082015250565b7f50524f504f53414c5f494e5f50454e44494e475f535441544500000000000000600082015250565b7f50524f504f53414c5f4d5553545f50524f564944455f414354494f4e53000000600082015250565b7f494e56414c49445f50524f504f53414c5f494400000000000000000000000000600082015250565b7f4d494e494d554d5f4d454d424552534849505f4645455f524551554952454400600082015250565b60088110612bbb57612bba6128e1565b5b50565b612bc78161270f565b8114612bd257600080fd5b50565b612bde81612721565b8114612be957600080fd5b50565b612bf581612760565b8114612c0057600080fd5b5056fea2646970667358221220f0f94547f64c791802e5b2d29c2d2392fd01c8d86076dc45da63d2f3c3ff4db264736f6c6343000807003360806040523480156200001157600080fd5b506040518060400160405280600f81526020017f436f6c6c6563746f7220546f6b656e00000000000000000000000000000000008152506040518060400160405280600381526020017f435452000000000000000000000000000000000000000000000000000000000081525081600390805190602001906200009692919062000281565b508060049080519060200190620000af92919062000281565b505050620000ef33620000c7620000f560201b60201c565b600a620000d5919062000471565b600a620000e39190620005ae565b620000fe60201b60201c565b620006f0565b60006012905090565b600073ffffffffffffffffffffffffffffffffffffffff168273ffffffffffffffffffffffffffffffffffffffff16141562000171576040517f08c379a0000000000000000000000000000000000000000000000000000000008152600401620001689062000369565b60405180910390fd5b62000185600083836200027760201b60201c565b8060026000828254620001999190620003b9565b92505081905550806000808473ffffffffffffffffffffffffffffffffffffffff1673ffffffffffffffffffffffffffffffffffffffff1681526020019081526020016000206000828254620001f09190620003b9565b925050819055508173ffffffffffffffffffffffffffffffffffffffff16600073ffffffffffffffffffffffffffffffffffffffff167fddf252ad1be2c89b69c2b068fc378daa952ba7f163c4a11628f55a4df523b3ef836040516200025791906200038b565b60405180910390a362000273600083836200027c60201b60201c565b5050565b505050565b505050565b8280546200028f9062000626565b90600052602060002090601f016020900481019282620002b35760008555620002ff565b82601f10620002ce57805160ff1916838001178555620002ff565b82800160010185558215620002ff579182015b82811115620002fe578251825591602001919060010190620002e1565b5b5090506200030e919062000312565b5090565b5b808211156200032d57600081600090555060010162000313565b5090565b600062000340601f83620003a8565b91506200034d82620006c7565b602082019050919050565b62000363816200060f565b82525050565b60006020820190508181036000830152620003848162000331565b9050919050565b6000602082019050620003a2600083018462000358565b92915050565b600082825260208201905092915050565b6000620003c6826200060f565b9150620003d3836200060f565b9250827fffffffffffffffffffffffffffffffffffffffffffffffffffffffffffffffff038211156200040b576200040a6200065c565b5b828201905092915050565b6000808291508390505b6001851115620004685780860481111562000440576200043f6200065c565b5b6001851615620004505780820291505b80810290506200046085620006ba565b945062000420565b94509492505050565b60006200047e826200060f565b91506200048b8362000619565b9250620004ba7fffffffffffffffffffffffffffffffffffffffffffffffffffffffffffffffff8484620004c2565b905092915050565b600082620004d45760019050620005a7565b81620004e45760009050620005a7565b8160018114620004fd576002811462000508576200053e565b6001915050620005a7565b60ff8411156200051d576200051c6200065c565b5b8360020a9150848211156200053757620005366200065c565b5b50620005a7565b5060208310610133831016604e8410600b8410161715620005785782820a9050838111156200057257620005716200065c565b5b620005a7565b62000587848484600162000416565b92509050818404811115620005a157620005a06200065c565b5b81810290505b9392505050565b6000620005bb826200060f565b9150620005c8836200060f565b9250817fffffffffffffffffffffffffffffffffffffffffffffffffffffffffffffffff04831182151516156200060457620006036200065c565b5b828202905092915050565b6000819050919050565b600060ff82169050919050565b600060028204905060018216806200063f57607f821691505b602082108114156200065657620006556200068b565b5b50919050565b7f4e487b7100000000000000000000000000000000000000000000000000000000600052601160045260246000fd5b7f4e487b7100000000000000000000000000000000000000000000000000000000600052602260045260246000fd5b60008160011c9050919050565b7f45524332303a206d696e7420746f20746865207a65726f206164647265737300600082015250565b6113aa80620007006000396000f3fe608060405234801561001057600080fd5b50600436106100a95760003560e01c80633950935111610071578063395093511461016857806370a082311461019857806395d89b41146101c8578063a457c2d7146101e6578063a9059cbb14610216578063dd62ed3e14610246576100a9565b806306fdde03146100ae578063095ea7b3146100cc57806318160ddd146100fc57806323b872dd1461011a578063313ce5671461014a575b600080fd5b6100b6610276565b6040516100c39190610e45565b60405180910390f35b6100e660048036038101906100e19190610c8f565b610308565b6040516100f39190610e2a565b60405180910390f35b610104610326565b6040516101119190610f47565b60405180910390f35b610134600480360381019061012f9190610c3c565b610330565b6040516101419190610e2a565b60405180910390f35b610152610428565b60405161015f9190610f62565b60405180910390f35b610182600480360381019061017d9190610c8f565b610431565b60405161018f9190610e2a565b60405180910390f35b6101b260048036038101906101ad9190610bcf565b6104dd565b6040516101bf9190610f47565b60405180910390f35b6101d0610525565b6040516101dd9190610e45565b60405180910390f35b61020060048036038101906101fb9190610c8f565b6105b7565b60405161020d9190610e2a565b60405180910390f35b610230600480360381019061022b9190610c8f565b6106a2565b60405161023d9190610e2a565b60405180910390f35b610260600480360381019061025b9190610bfc565b6106c0565b60405161026d9190610f47565b60405180910390f35b60606003805461028590611077565b80601f01602080910402602001604051908101604052809291908181526020018280546102b190611077565b80156102fe5780601f106102d3576101008083540402835291602001916102fe565b820191906000526020600020905b8154815290600101906020018083116102e157829003601f168201915b5050505050905090565b600061031c610315610747565b848461074f565b6001905092915050565b6000600254905090565b600061033d84848461091a565b6000600160008673ffffffffffffffffffffffffffffffffffffffff1673ffffffffffffffffffffffffffffffffffffffff1681526020019081526020016000206000610388610747565b73ffffffffffffffffffffffffffffffffffffffff1673ffffffffffffffffffffffffffffffffffffffff16815260200190815260200160002054905082811015610408576040517f08c379a00000000000000000000000000000000000000000000000000000000081526004016103ff90610ec7565b60405180910390fd5b61041c85610414610747565b85840361074f565b60019150509392505050565b60006012905090565b60006104d361043e610747565b84846001600061044c610747565b73ffffffffffffffffffffffffffffffffffffffff1673ffffffffffffffffffffffffffffffffffffffff16815260200190815260200160002060008873ffffffffffffffffffffffffffffffffffffffff1673ffffffffffffffffffffffffffffffffffffffff168152602001908152602001600020546104ce9190610f99565b61074f565b6001905092915050565b60008060008373ffffffffffffffffffffffffffffffffffffffff1673ffffffffffffffffffffffffffffffffffffffff168152602001908152602001600020549050919050565b60606004805461053490611077565b80601f016020809104026020016040519081016040528092919081815260200182805461056090611077565b80156105ad5780601f10610582576101008083540402835291602001916105ad565b820191906000526020600020905b81548152906001019060200180831161059057829003601f168201915b5050505050905090565b600080600160006105c6610747565b73ffffffffffffffffffffffffffffffffffffffff1673ffffffffffffffffffffffffffffffffffffffff16815260200190815260200160002060008573ffffffffffffffffffffffffffffffffffffffff1673ffffffffffffffffffffffffffffffffffffffff16815260200190815260200160002054905082811015610683576040517f08c379a000000000000000000000000000000000000000000000000000000000815260040161067a90610f27565b60405180910390fd5b61069761068e610747565b8585840361074f565b600191505092915050565b60006106b66106af610747565b848461091a565b6001905092915050565b6000600160008473ffffffffffffffffffffffffffffffffffffffff1673ffffffffffffffffffffffffffffffffffffffff16815260200190815260200160002060008373ffffffffffffffffffffffffffffffffffffffff1673ffffffffffffffffffffffffffffffffffffffff16815260200190815260200160002054905092915050565b600033905090565b600073ffffffffffffffffffffffffffffffffffffffff168373ffffffffffffffffffffffffffffffffffffffff1614156107bf576040517f08c379a00000000000000000000000000000000000000000000000000000000081526004016107b690610f07565b60405180910390fd5b600073ffffffffffffffffffffffffffffffffffffffff168273ffffffffffffffffffffffffffffffffffffffff16141561082f576040517f08c379a000000000000000000000000000000000000000000000000000000000815260040161082690610e87565b60405180910390fd5b80600160008573ffffffffffffffffffffffffffffffffffffffff1673ffffffffffffffffffffffffffffffffffffffff16815260200190815260200160002060008473ffffffffffffffffffffffffffffffffffffffff1673ffffffffffffffffffffffffffffffffffffffff168152602001908152602001600020819055508173ffffffffffffffffffffffffffffffffffffffff168373ffffffffffffffffffffffffffffffffffffffff167f8c5be1e5ebec7d5bd14f71427d1e84f3dd0314c0f7b2291e5b200ac8c7c3b9258360405161090d9190610f47565b60405180910390a3505050565b600073ffffffffffffffffffffffffffffffffffffffff168373ffffffffffffffffffffffffffffffffffffffff16141561098a576040517f08c379a000000000000000000000000000000000000000000000000000000000815260040161098190610ee7565b60405180910390fd5b600073ffffffffffffffffffffffffffffffffffffffff168273ffffffffffffffffffffffffffffffffffffffff1614156109fa576040517f08c379a00000000000000000000000000000000000000000000000000000000081526004016109f190610e67565b60405180910390fd5b610a05838383610b9b565b60008060008573ffffffffffffffffffffffffffffffffffffffff1673ffffffffffffffffffffffffffffffffffffffff16815260200190815260200160002054905081811015610a8b576040517f08c379a0000000000000000000000000000000000000000000000000000000008152600401610a8290610ea7565b60405180910390fd5b8181036000808673ffffffffffffffffffffffffffffffffffffffff1673ffffffffffffffffffffffffffffffffffffffff16815260200190815260200160002081905550816000808573ffffffffffffffffffffffffffffffffffffffff1673ffffffffffffffffffffffffffffffffffffffff1681526020019081526020016000206000828254610b1e9190610f99565b925050819055508273ffffffffffffffffffffffffffffffffffffffff168473ffffffffffffffffffffffffffffffffffffffff167fddf252ad1be2c89b69c2b068fc378daa952ba7f163c4a11628f55a4df523b3ef84604051610b829190610f47565b60405180910390a3610b95848484610ba0565b50505050565b505050565b505050565b600081359050610bb481611346565b92915050565b600081359050610bc98161135d565b92915050565b600060208284031215610be557610be4611107565b5b6000610bf384828501610ba5565b91505092915050565b60008060408385031215610c1357610c12611107565b5b6000610c2185828601610ba5565b9250506020610c3285828601610ba5565b9150509250929050565b600080600060608486031215610c5557610c54611107565b5b6000610c6386828701610ba5565b9350506020610c7486828701610ba5565b9250506040610c8586828701610bba565b9150509250925092565b60008060408385031215610ca657610ca5611107565b5b6000610cb485828601610ba5565b9250506020610cc585828601610bba565b9150509250929050565b610cd881611001565b82525050565b6000610ce982610f7d565b610cf38185610f88565b9350610d03818560208601611044565b610d0c8161110c565b840191505092915050565b6000610d24602383610f88565b9150610d2f8261111d565b604082019050919050565b6000610d47602283610f88565b9150610d528261116c565b604082019050919050565b6000610d6a602683610f88565b9150610d75826111bb565b604082019050919050565b6000610d8d602883610f88565b9150610d988261120a565b604082019050919050565b6000610db0602583610f88565b9150610dbb82611259565b604082019050919050565b6000610dd3602483610f88565b9150610dde826112a8565b604082019050919050565b6000610df6602583610f88565b9150610e01826112f7565b604082019050919050565b610e158161102d565b82525050565b610e2481611037565b82525050565b6000602082019050610e3f6000830184610ccf565b92915050565b60006020820190508181036000830152610e5f8184610cde565b905092915050565b60006020820190508181036000830152610e8081610d17565b9050919050565b60006020820190508181036000830152610ea081610d3a565b9050919050565b60006020820190508181036000830152610ec081610d5d565b9050919050565b60006020820190508181036000830152610ee081610d80565b9050919050565b60006020820190508181036000830152610f0081610da3565b9050919050565b60006020820190508181036000830152610f2081610dc6565b9050919050565b60006020820190508181036000830152610f4081610de9565b9050919050565b6000602082019050610f5c6000830184610e0c565b92915050565b6000602082019050610f776000830184610e1b565b92915050565b600081519050919050565b600082825260208201905092915050565b6000610fa48261102d565b9150610faf8361102d565b9250827fffffffffffffffffffffffffffffffffffffffffffffffffffffffffffffffff03821115610fe457610fe36110a9565b5b828201905092915050565b6000610ffa8261100d565b9050919050565b60008115159050919050565b600073ffffffffffffffffffffffffffffffffffffffff82169050919050565b6000819050919050565b600060ff82169050919050565b60005b83811015611062578082015181840152602081019050611047565b83811115611071576000848401525b50505050565b6000600282049050600182168061108f57607f821691505b602082108114156110a3576110a26110d8565b5b50919050565b7f4e487b7100000000000000000000000000000000000000000000000000000000600052601160045260246000fd5b7f4e487b7100000000000000000000000000000000000000000000000000000000600052602260045260246000fd5b600080fd5b6000601f19601f8301169050919050565b7f45524332303a207472616e7366657220746f20746865207a65726f206164647260008201527f6573730000000000000000000000000000000000000000000000000000000000602082015250565b7f45524332303a20617070726f766520746f20746865207a65726f20616464726560008201527f7373000000000000000000000000000000000000000000000000000000000000602082015250565b7f45524332303a207472616e7366657220616d6f756e742065786365656473206260008201527f616c616e63650000000000000000000000000000000000000000000000000000602082015250565b7f45524332303a207472616e7366657220616d6f756e742065786365656473206160008201527f6c6c6f77616e6365000000000000000000000000000000000000000000000000602082015250565b7f45524332303a207472616e736665722066726f6d20746865207a65726f20616460008201527f6472657373000000000000000000000000000000000000000000000000000000602082015250565b7f45524332303a20617070726f76652066726f6d20746865207a65726f2061646460008201527f7265737300000000000000000000000000000000000000000000000000000000602082015250565b7f45524332303a2064656372656173656420616c6c6f77616e63652062656c6f7760008201527f207a65726f000000000000000000000000000000000000000000000000000000602082015250565b61134f81610fef565b811461135a57600080fd5b50565b6113668161102d565b811461137157600080fd5b5056fea26469706673582212201056cc2e6030d87692a735269aa85c203fbc5816149965c10d156f69c02efdd464736f6c63430008070033",
  "linkReferences": {},
  "deployedLinkReferences": {}
}