{
  "_format": "hh-sol-artifact-1",
  "contractName": "CollectorDAO",
  "sourceName": "contracts/CollectorDAO.sol",
  "abi": [
    {
      "inputs": [],
      "stateMutability": "nonpayable",
      "type": "constructor"
    },
    {
      "anonymous": false,
      "inputs": [
        {
          "indexed": true,
          "internalType": "address",
          "name": "sender",
          "type": "address"
        },
        {
          "indexed": false,
          "internalType": "string",
          "name": "message",
          "type": "string"
        }
      ],
      "name": "Join",
      "type": "event"
    },
    {
      "inputs": [],
      "name": "join",
      "outputs": [
        {
          "internalType": "bool",
          "name": "",
          "type": "bool"
        }
      ],
      "stateMutability": "payable",
      "type": "function"
    },
    {
      "inputs": [
        {
          "internalType": "address",
          "name": "member",
          "type": "address"
        }
      ],
      "name": "tokenBalance",
      "outputs": [
        {
          "internalType": "uint256",
          "name": "",
          "type": "uint256"
        }
      ],
      "stateMutability": "view",
      "type": "function"
    }
  ],
  "bytecode": "0x608060405234801561001057600080fd5b5060405161001d9061007e565b604051809103906000f080158015610039573d6000803e3d6000fd5b506000806101000a81548173ffffffffffffffffffffffffffffffffffffffff021916908373ffffffffffffffffffffffffffffffffffffffff16021790555061008b565b611aab8061085983390190565b6107bf8061009a6000396000f3fe6080604052600436106100295760003560e01c8063b688a3631461002e578063eedc966a1461004c575b600080fd5b610036610089565b604051610043919061053e565b60405180910390f35b34801561005857600080fd5b50610073600480360381019061006e91906103ce565b6102dc565b60405161008091906105b9565b60405180910390f35b6000801515600160003373ffffffffffffffffffffffffffffffffffffffff1673ffffffffffffffffffffffffffffffffffffffff16815260200190815260200160002060009054906101000a900460ff1615151461011d576040517f08c379a000000000000000000000000000000000000000000000000000000000815260040161011490610559565b60405180910390fd5b62989680341015610163576040517f08c379a000000000000000000000000000000000000000000000000000000000815260040161015a90610599565b60405180910390fd5b60018060003373ffffffffffffffffffffffffffffffffffffffff1673ffffffffffffffffffffffffffffffffffffffff16815260200190815260200160002060006101000a81548160ff02191690831515021790555034600260008282546101cc91906105e5565b9250508190555060008054906101000a900473ffffffffffffffffffffffffffffffffffffffff1673ffffffffffffffffffffffffffffffffffffffff1663a9059cbb33670de0b6b3a76400006040518363ffffffff1660e01b8152600401610236929190610515565b602060405180830381600087803b15801561025057600080fd5b505af1158015610264573d6000803e3d6000fd5b505050506040513d601f19601f8201168201806040525081019061028891906103fb565b503373ffffffffffffffffffffffffffffffffffffffff167f99ff3c8493cc730b7a818210b81af665c9b2bdb63cdf4f2c4108e092dec7a6216040516102cd90610579565b60405180910390a26001905090565b60008060009054906101000a900473ffffffffffffffffffffffffffffffffffffffff1673ffffffffffffffffffffffffffffffffffffffff166370a08231836040518263ffffffff1660e01b815260040161033891906104fa565b60206040518083038186803b15801561035057600080fd5b505afa158015610364573d6000803e3d6000fd5b505050506040513d601f19601f820116820180604052508101906103889190610428565b9050919050565b60008135905061039e81610744565b92915050565b6000815190506103b38161075b565b92915050565b6000815190506103c881610772565b92915050565b6000602082840312156103e4576103e36106c4565b5b60006103f28482850161038f565b91505092915050565b600060208284031215610411576104106106c4565b5b600061041f848285016103a4565b91505092915050565b60006020828403121561043e5761043d6106c4565b5b600061044c848285016103b9565b91505092915050565b61045e8161063b565b82525050565b61046d8161064d565b82525050565b61047c81610683565b82525050565b600061048f6010836105d4565b915061049a826106c9565b602082019050919050565b60006104b2600d836105d4565b91506104bd826106f2565b602082019050919050565b60006104d5601f836105d4565b91506104e08261071b565b602082019050919050565b6104f481610679565b82525050565b600060208201905061050f6000830184610455565b92915050565b600060408201905061052a6000830185610455565b6105376020830184610473565b9392505050565b60006020820190506105536000830184610464565b92915050565b6000602082019050818103600083015261057281610482565b9050919050565b60006020820190508181036000830152610592816104a5565b9050919050565b600060208201905081810360008301526105b2816104c8565b9050919050565b60006020820190506105ce60008301846104eb565b92915050565b600082825260208201905092915050565b60006105f082610679565b91506105fb83610679565b9250827fffffffffffffffffffffffffffffffffffffffffffffffffffffffffffffffff038211156106305761062f610695565b5b828201905092915050565b600061064682610659565b9050919050565b60008115159050919050565b600073ffffffffffffffffffffffffffffffffffffffff82169050919050565b6000819050919050565b600061068e82610679565b9050919050565b7f4e487b7100000000000000000000000000000000000000000000000000000000600052601160045260246000fd5b600080fd5b7f4e4f545f415f4e45575f4d454d42455200000000000000000000000000000000600082015250565b7f4d656d626572204a6f696e656400000000000000000000000000000000000000600082015250565b7f4d494e494d554d5f4d454d424552534849505f4645455f524551554952454400600082015250565b61074d8161063b565b811461075857600080fd5b50565b6107648161064d565b811461076f57600080fd5b50565b61077b81610679565b811461078657600080fd5b5056fea2646970667358221220317171c7c61ad5a3ee08ca332873479db392bac39117bf3f0d4dd2921efeb42264736f6c6343000807003360806040523480156200001157600080fd5b506040518060400160405280600f81526020017f436f6c6c6563746f7220546f6b656e00000000000000000000000000000000008152506040518060400160405280600381526020017f435452000000000000000000000000000000000000000000000000000000000081525081600390805190602001906200009692919062000282565b508060049080519060200190620000af92919062000282565b505050620000f033620000c7620000f660201b60201c565b600a620000d5919062000472565b6103e8620000e49190620005af565b620000ff60201b60201c565b620006f1565b60006012905090565b600073ffffffffffffffffffffffffffffffffffffffff168273ffffffffffffffffffffffffffffffffffffffff16141562000172576040517f08c379a000000000000000000000000000000000000000000000000000000000815260040162000169906200036a565b60405180910390fd5b62000186600083836200027860201b60201c565b80600260008282546200019a9190620003ba565b92505081905550806000808473ffffffffffffffffffffffffffffffffffffffff1673ffffffffffffffffffffffffffffffffffffffff1681526020019081526020016000206000828254620001f19190620003ba565b925050819055508173ffffffffffffffffffffffffffffffffffffffff16600073ffffffffffffffffffffffffffffffffffffffff167fddf252ad1be2c89b69c2b068fc378daa952ba7f163c4a11628f55a4df523b3ef836040516200025891906200038c565b60405180910390a362000274600083836200027d60201b60201c565b5050565b505050565b505050565b828054620002909062000627565b90600052602060002090601f016020900481019282620002b4576000855562000300565b82601f10620002cf57805160ff191683800117855562000300565b8280016001018555821562000300579182015b82811115620002ff578251825591602001919060010190620002e2565b5b5090506200030f919062000313565b5090565b5b808211156200032e57600081600090555060010162000314565b5090565b600062000341601f83620003a9565b91506200034e82620006c8565b602082019050919050565b620003648162000610565b82525050565b60006020820190508181036000830152620003858162000332565b9050919050565b6000602082019050620003a3600083018462000359565b92915050565b600082825260208201905092915050565b6000620003c78262000610565b9150620003d48362000610565b9250827fffffffffffffffffffffffffffffffffffffffffffffffffffffffffffffffff038211156200040c576200040b6200065d565b5b828201905092915050565b6000808291508390505b600185111562000469578086048111156200044157620004406200065d565b5b6001851615620004515780820291505b80810290506200046185620006bb565b945062000421565b94509492505050565b60006200047f8262000610565b91506200048c836200061a565b9250620004bb7fffffffffffffffffffffffffffffffffffffffffffffffffffffffffffffffff8484620004c3565b905092915050565b600082620004d55760019050620005a8565b81620004e55760009050620005a8565b8160018114620004fe576002811462000509576200053f565b6001915050620005a8565b60ff8411156200051e576200051d6200065d565b5b8360020a9150848211156200053857620005376200065d565b5b50620005a8565b5060208310610133831016604e8410600b8410161715620005795782820a9050838111156200057357620005726200065d565b5b620005a8565b62000588848484600162000417565b92509050818404811115620005a257620005a16200065d565b5b81810290505b9392505050565b6000620005bc8262000610565b9150620005c98362000610565b9250817fffffffffffffffffffffffffffffffffffffffffffffffffffffffffffffffff04831182151516156200060557620006046200065d565b5b828202905092915050565b6000819050919050565b600060ff82169050919050565b600060028204905060018216806200064057607f821691505b602082108114156200065757620006566200068c565b5b50919050565b7f4e487b7100000000000000000000000000000000000000000000000000000000600052601160045260246000fd5b7f4e487b7100000000000000000000000000000000000000000000000000000000600052602260045260246000fd5b60008160011c9050919050565b7f45524332303a206d696e7420746f20746865207a65726f206164647265737300600082015250565b6113aa80620007016000396000f3fe608060405234801561001057600080fd5b50600436106100a95760003560e01c80633950935111610071578063395093511461016857806370a082311461019857806395d89b41146101c8578063a457c2d7146101e6578063a9059cbb14610216578063dd62ed3e14610246576100a9565b806306fdde03146100ae578063095ea7b3146100cc57806318160ddd146100fc57806323b872dd1461011a578063313ce5671461014a575b600080fd5b6100b6610276565b6040516100c39190610e45565b60405180910390f35b6100e660048036038101906100e19190610c8f565b610308565b6040516100f39190610e2a565b60405180910390f35b610104610326565b6040516101119190610f47565b60405180910390f35b610134600480360381019061012f9190610c3c565b610330565b6040516101419190610e2a565b60405180910390f35b610152610428565b60405161015f9190610f62565b60405180910390f35b610182600480360381019061017d9190610c8f565b610431565b60405161018f9190610e2a565b60405180910390f35b6101b260048036038101906101ad9190610bcf565b6104dd565b6040516101bf9190610f47565b60405180910390f35b6101d0610525565b6040516101dd9190610e45565b60405180910390f35b61020060048036038101906101fb9190610c8f565b6105b7565b60405161020d9190610e2a565b60405180910390f35b610230600480360381019061022b9190610c8f565b6106a2565b60405161023d9190610e2a565b60405180910390f35b610260600480360381019061025b9190610bfc565b6106c0565b60405161026d9190610f47565b60405180910390f35b60606003805461028590611077565b80601f01602080910402602001604051908101604052809291908181526020018280546102b190611077565b80156102fe5780601f106102d3576101008083540402835291602001916102fe565b820191906000526020600020905b8154815290600101906020018083116102e157829003601f168201915b5050505050905090565b600061031c610315610747565b848461074f565b6001905092915050565b6000600254905090565b600061033d84848461091a565b6000600160008673ffffffffffffffffffffffffffffffffffffffff1673ffffffffffffffffffffffffffffffffffffffff1681526020019081526020016000206000610388610747565b73ffffffffffffffffffffffffffffffffffffffff1673ffffffffffffffffffffffffffffffffffffffff16815260200190815260200160002054905082811015610408576040517f08c379a00000000000000000000000000000000000000000000000000000000081526004016103ff90610ec7565b60405180910390fd5b61041c85610414610747565b85840361074f565b60019150509392505050565b60006012905090565b60006104d361043e610747565b84846001600061044c610747565b73ffffffffffffffffffffffffffffffffffffffff1673ffffffffffffffffffffffffffffffffffffffff16815260200190815260200160002060008873ffffffffffffffffffffffffffffffffffffffff1673ffffffffffffffffffffffffffffffffffffffff168152602001908152602001600020546104ce9190610f99565b61074f565b6001905092915050565b60008060008373ffffffffffffffffffffffffffffffffffffffff1673ffffffffffffffffffffffffffffffffffffffff168152602001908152602001600020549050919050565b60606004805461053490611077565b80601f016020809104026020016040519081016040528092919081815260200182805461056090611077565b80156105ad5780601f10610582576101008083540402835291602001916105ad565b820191906000526020600020905b81548152906001019060200180831161059057829003601f168201915b5050505050905090565b600080600160006105c6610747565b73ffffffffffffffffffffffffffffffffffffffff1673ffffffffffffffffffffffffffffffffffffffff16815260200190815260200160002060008573ffffffffffffffffffffffffffffffffffffffff1673ffffffffffffffffffffffffffffffffffffffff16815260200190815260200160002054905082811015610683576040517f08c379a000000000000000000000000000000000000000000000000000000000815260040161067a90610f27565b60405180910390fd5b61069761068e610747565b8585840361074f565b600191505092915050565b60006106b66106af610747565b848461091a565b6001905092915050565b6000600160008473ffffffffffffffffffffffffffffffffffffffff1673ffffffffffffffffffffffffffffffffffffffff16815260200190815260200160002060008373ffffffffffffffffffffffffffffffffffffffff1673ffffffffffffffffffffffffffffffffffffffff16815260200190815260200160002054905092915050565b600033905090565b600073ffffffffffffffffffffffffffffffffffffffff168373ffffffffffffffffffffffffffffffffffffffff1614156107bf576040517f08c379a00000000000000000000000000000000000000000000000000000000081526004016107b690610f07565b60405180910390fd5b600073ffffffffffffffffffffffffffffffffffffffff168273ffffffffffffffffffffffffffffffffffffffff16141561082f576040517f08c379a000000000000000000000000000000000000000000000000000000000815260040161082690610e87565b60405180910390fd5b80600160008573ffffffffffffffffffffffffffffffffffffffff1673ffffffffffffffffffffffffffffffffffffffff16815260200190815260200160002060008473ffffffffffffffffffffffffffffffffffffffff1673ffffffffffffffffffffffffffffffffffffffff168152602001908152602001600020819055508173ffffffffffffffffffffffffffffffffffffffff168373ffffffffffffffffffffffffffffffffffffffff167f8c5be1e5ebec7d5bd14f71427d1e84f3dd0314c0f7b2291e5b200ac8c7c3b9258360405161090d9190610f47565b60405180910390a3505050565b600073ffffffffffffffffffffffffffffffffffffffff168373ffffffffffffffffffffffffffffffffffffffff16141561098a576040517f08c379a000000000000000000000000000000000000000000000000000000000815260040161098190610ee7565b60405180910390fd5b600073ffffffffffffffffffffffffffffffffffffffff168273ffffffffffffffffffffffffffffffffffffffff1614156109fa576040517f08c379a00000000000000000000000000000000000000000000000000000000081526004016109f190610e67565b60405180910390fd5b610a05838383610b9b565b60008060008573ffffffffffffffffffffffffffffffffffffffff1673ffffffffffffffffffffffffffffffffffffffff16815260200190815260200160002054905081811015610a8b576040517f08c379a0000000000000000000000000000000000000000000000000000000008152600401610a8290610ea7565b60405180910390fd5b8181036000808673ffffffffffffffffffffffffffffffffffffffff1673ffffffffffffffffffffffffffffffffffffffff16815260200190815260200160002081905550816000808573ffffffffffffffffffffffffffffffffffffffff1673ffffffffffffffffffffffffffffffffffffffff1681526020019081526020016000206000828254610b1e9190610f99565b925050819055508273ffffffffffffffffffffffffffffffffffffffff168473ffffffffffffffffffffffffffffffffffffffff167fddf252ad1be2c89b69c2b068fc378daa952ba7f163c4a11628f55a4df523b3ef84604051610b829190610f47565b60405180910390a3610b95848484610ba0565b50505050565b505050565b505050565b600081359050610bb481611346565b92915050565b600081359050610bc98161135d565b92915050565b600060208284031215610be557610be4611107565b5b6000610bf384828501610ba5565b91505092915050565b60008060408385031215610c1357610c12611107565b5b6000610c2185828601610ba5565b9250506020610c3285828601610ba5565b9150509250929050565b600080600060608486031215610c5557610c54611107565b5b6000610c6386828701610ba5565b9350506020610c7486828701610ba5565b9250506040610c8586828701610bba565b9150509250925092565b60008060408385031215610ca657610ca5611107565b5b6000610cb485828601610ba5565b9250506020610cc585828601610bba565b9150509250929050565b610cd881611001565b82525050565b6000610ce982610f7d565b610cf38185610f88565b9350610d03818560208601611044565b610d0c8161110c565b840191505092915050565b6000610d24602383610f88565b9150610d2f8261111d565b604082019050919050565b6000610d47602283610f88565b9150610d528261116c565b604082019050919050565b6000610d6a602683610f88565b9150610d75826111bb565b604082019050919050565b6000610d8d602883610f88565b9150610d988261120a565b604082019050919050565b6000610db0602583610f88565b9150610dbb82611259565b604082019050919050565b6000610dd3602483610f88565b9150610dde826112a8565b604082019050919050565b6000610df6602583610f88565b9150610e01826112f7565b604082019050919050565b610e158161102d565b82525050565b610e2481611037565b82525050565b6000602082019050610e3f6000830184610ccf565b92915050565b60006020820190508181036000830152610e5f8184610cde565b905092915050565b60006020820190508181036000830152610e8081610d17565b9050919050565b60006020820190508181036000830152610ea081610d3a565b9050919050565b60006020820190508181036000830152610ec081610d5d565b9050919050565b60006020820190508181036000830152610ee081610d80565b9050919050565b60006020820190508181036000830152610f0081610da3565b9050919050565b60006020820190508181036000830152610f2081610dc6565b9050919050565b60006020820190508181036000830152610f4081610de9565b9050919050565b6000602082019050610f5c6000830184610e0c565b92915050565b6000602082019050610f776000830184610e1b565b92915050565b600081519050919050565b600082825260208201905092915050565b6000610fa48261102d565b9150610faf8361102d565b9250827fffffffffffffffffffffffffffffffffffffffffffffffffffffffffffffffff03821115610fe457610fe36110a9565b5b828201905092915050565b6000610ffa8261100d565b9050919050565b60008115159050919050565b600073ffffffffffffffffffffffffffffffffffffffff82169050919050565b6000819050919050565b600060ff82169050919050565b60005b83811015611062578082015181840152602081019050611047565b83811115611071576000848401525b50505050565b6000600282049050600182168061108f57607f821691505b602082108114156110a3576110a26110d8565b5b50919050565b7f4e487b7100000000000000000000000000000000000000000000000000000000600052601160045260246000fd5b7f4e487b7100000000000000000000000000000000000000000000000000000000600052602260045260246000fd5b600080fd5b6000601f19601f8301169050919050565b7f45524332303a207472616e7366657220746f20746865207a65726f206164647260008201527f6573730000000000000000000000000000000000000000000000000000000000602082015250565b7f45524332303a20617070726f766520746f20746865207a65726f20616464726560008201527f7373000000000000000000000000000000000000000000000000000000000000602082015250565b7f45524332303a207472616e7366657220616d6f756e742065786365656473206260008201527f616c616e63650000000000000000000000000000000000000000000000000000602082015250565b7f45524332303a207472616e7366657220616d6f756e742065786365656473206160008201527f6c6c6f77616e6365000000000000000000000000000000000000000000000000602082015250565b7f45524332303a207472616e736665722066726f6d20746865207a65726f20616460008201527f6472657373000000000000000000000000000000000000000000000000000000602082015250565b7f45524332303a20617070726f76652066726f6d20746865207a65726f2061646460008201527f7265737300000000000000000000000000000000000000000000000000000000602082015250565b7f45524332303a2064656372656173656420616c6c6f77616e63652062656c6f7760008201527f207a65726f000000000000000000000000000000000000000000000000000000602082015250565b61134f81610fef565b811461135a57600080fd5b50565b6113668161102d565b811461137157600080fd5b5056fea26469706673582212202afb6c33946fa0315d1e0c506f7f84192253639e1f83d88e65df5e2b4f4d590d64736f6c63430008070033",
  "linkReferences": {},
  "deployedLinkReferences": {}
}