{
  "_format": "hh-sol-artifact-1",
  "contractName": "CollectorDAO",
  "sourceName": "contracts/CollectorDAO.sol",
  "abi": [
    {
      "inputs": [],
      "stateMutability": "nonpayable",
      "type": "constructor"
    },
    {
      "anonymous": false,
      "inputs": [
        {
          "indexed": true,
          "internalType": "address",
          "name": "sender",
          "type": "address"
        },
        {
          "indexed": false,
          "internalType": "string",
          "name": "message",
          "type": "string"
        }
      ],
      "name": "Join",
      "type": "event"
    },
    {
      "anonymous": false,
      "inputs": [
        {
          "indexed": false,
          "internalType": "uint256",
          "name": "id",
          "type": "uint256"
        },
        {
          "indexed": false,
          "internalType": "address",
          "name": "proposer",
          "type": "address"
        },
        {
          "indexed": false,
          "internalType": "address[]",
          "name": "targets",
          "type": "address[]"
        },
        {
          "indexed": false,
          "internalType": "uint256[]",
          "name": "values",
          "type": "uint256[]"
        },
        {
          "indexed": false,
          "internalType": "string[]",
          "name": "signatures",
          "type": "string[]"
        },
        {
          "indexed": false,
          "internalType": "bytes[]",
          "name": "calldatas",
          "type": "bytes[]"
        },
        {
          "indexed": false,
          "internalType": "uint256",
          "name": "startBlock",
          "type": "uint256"
        },
        {
          "indexed": false,
          "internalType": "uint256",
          "name": "endBlock",
          "type": "uint256"
        },
        {
          "indexed": false,
          "internalType": "string",
          "name": "description",
          "type": "string"
        }
      ],
      "name": "ProposalCreated",
      "type": "event"
    },
    {
      "anonymous": false,
      "inputs": [
        {
          "indexed": false,
          "internalType": "uint256",
          "name": "id",
          "type": "uint256"
        }
      ],
      "name": "ProposalExecuted",
      "type": "event"
    },
    {
      "anonymous": false,
      "inputs": [
        {
          "indexed": false,
          "internalType": "address",
          "name": "voter",
          "type": "address"
        },
        {
          "indexed": false,
          "internalType": "uint256",
          "name": "proposalId",
          "type": "uint256"
        },
        {
          "indexed": false,
          "internalType": "bool",
          "name": "support",
          "type": "bool"
        }
      ],
      "name": "VoteCast",
      "type": "event"
    },
    {
      "inputs": [],
      "name": "NAME",
      "outputs": [
        {
          "internalType": "string",
          "name": "",
          "type": "string"
        }
      ],
      "stateMutability": "view",
      "type": "function"
    },
    {
      "inputs": [
        {
          "internalType": "uint256",
          "name": "proposalId",
          "type": "uint256"
        },
        {
          "internalType": "bool",
          "name": "support",
          "type": "bool"
        }
      ],
      "name": "castVote",
      "outputs": [],
      "stateMutability": "nonpayable",
      "type": "function"
    },
    {
      "inputs": [
        {
          "internalType": "uint256",
          "name": "proposalId",
          "type": "uint256"
        }
      ],
      "name": "execute",
      "outputs": [],
      "stateMutability": "payable",
      "type": "function"
    },
    {
      "inputs": [
        {
          "internalType": "address",
          "name": "target",
          "type": "address"
        },
        {
          "internalType": "uint256",
          "name": "value",
          "type": "uint256"
        },
        {
          "internalType": "bytes",
          "name": "callData",
          "type": "bytes"
        }
      ],
      "name": "executeTransaction",
      "outputs": [
        {
          "internalType": "bytes",
          "name": "",
          "type": "bytes"
        }
      ],
      "stateMutability": "payable",
      "type": "function"
    },
    {
      "inputs": [
        {
          "internalType": "uint256",
          "name": "proposalId",
          "type": "uint256"
        },
        {
          "internalType": "address",
          "name": "voter",
          "type": "address"
        }
      ],
      "name": "getReceipt",
      "outputs": [
        {
          "components": [
            {
              "internalType": "bool",
              "name": "hasVoted",
              "type": "bool"
            },
            {
              "internalType": "bool",
              "name": "support",
              "type": "bool"
            }
          ],
          "internalType": "struct CollectorDAO.Receipt",
          "name": "",
          "type": "tuple"
        }
      ],
      "stateMutability": "view",
      "type": "function"
    },
    {
      "inputs": [],
      "name": "getTokenAddress",
      "outputs": [
        {
          "internalType": "contract CToken",
          "name": "",
          "type": "address"
        }
      ],
      "stateMutability": "view",
      "type": "function"
    },
    {
      "inputs": [],
      "name": "join",
      "outputs": [
        {
          "internalType": "bool",
          "name": "",
          "type": "bool"
        }
      ],
      "stateMutability": "payable",
      "type": "function"
    },
    {
      "inputs": [
        {
          "internalType": "address",
          "name": "",
          "type": "address"
        }
      ],
      "name": "latestProposalIds",
      "outputs": [
        {
          "internalType": "uint256",
          "name": "",
          "type": "uint256"
        }
      ],
      "stateMutability": "view",
      "type": "function"
    },
    {
      "inputs": [],
      "name": "proposalCount",
      "outputs": [
        {
          "internalType": "uint256",
          "name": "",
          "type": "uint256"
        }
      ],
      "stateMutability": "view",
      "type": "function"
    },
    {
      "inputs": [],
      "name": "proposalMaxOperations",
      "outputs": [
        {
          "internalType": "uint256",
          "name": "",
          "type": "uint256"
        }
      ],
      "stateMutability": "pure",
      "type": "function"
    },
    {
      "inputs": [
        {
          "internalType": "uint256",
          "name": "",
          "type": "uint256"
        }
      ],
      "name": "proposals",
      "outputs": [
        {
          "internalType": "uint256",
          "name": "id",
          "type": "uint256"
        },
        {
          "internalType": "address",
          "name": "proposer",
          "type": "address"
        },
        {
          "internalType": "uint256",
          "name": "startBlock",
          "type": "uint256"
        },
        {
          "internalType": "uint256",
          "name": "endBlock",
          "type": "uint256"
        },
        {
          "internalType": "uint256",
          "name": "forVotes",
          "type": "uint256"
        },
        {
          "internalType": "uint256",
          "name": "againstVotes",
          "type": "uint256"
        },
        {
          "internalType": "bool",
          "name": "executed",
          "type": "bool"
        }
      ],
      "stateMutability": "view",
      "type": "function"
    },
    {
      "inputs": [
        {
          "internalType": "address[]",
          "name": "targets",
          "type": "address[]"
        },
        {
          "internalType": "uint256[]",
          "name": "values",
          "type": "uint256[]"
        },
        {
          "internalType": "string[]",
          "name": "signatures",
          "type": "string[]"
        },
        {
          "internalType": "bytes[]",
          "name": "calldatas",
          "type": "bytes[]"
        },
        {
          "internalType": "string",
          "name": "description",
          "type": "string"
        }
      ],
      "name": "propose",
      "outputs": [
        {
          "internalType": "uint256",
          "name": "",
          "type": "uint256"
        }
      ],
      "stateMutability": "payable",
      "type": "function"
    },
    {
      "inputs": [],
      "name": "quorumVotes",
      "outputs": [
        {
          "internalType": "uint256",
          "name": "",
          "type": "uint256"
        }
      ],
      "stateMutability": "pure",
      "type": "function"
    },
    {
      "inputs": [
        {
          "internalType": "uint256",
          "name": "proposalId",
          "type": "uint256"
        }
      ],
      "name": "state",
      "outputs": [
        {
          "internalType": "enum CollectorDAO.ProposalState",
          "name": "",
          "type": "uint8"
        }
      ],
      "stateMutability": "view",
      "type": "function"
    },
    {
      "inputs": [
        {
          "internalType": "address",
          "name": "member",
          "type": "address"
        }
      ],
      "name": "tokenBalance",
      "outputs": [
        {
          "internalType": "uint256",
          "name": "",
          "type": "uint256"
        }
      ],
      "stateMutability": "view",
      "type": "function"
    },
    {
      "inputs": [],
      "name": "votingDelay",
      "outputs": [
        {
          "internalType": "uint256",
          "name": "",
          "type": "uint256"
        }
      ],
      "stateMutability": "pure",
      "type": "function"
    },
    {
      "inputs": [],
      "name": "votingPeriod",
      "outputs": [
        {
          "internalType": "uint256",
          "name": "",
          "type": "uint256"
        }
      ],
      "stateMutability": "pure",
      "type": "function"
    }
  ],
  "bytecode": "0x60806040523480156200001157600080fd5b506040516200002090620000c4565b604051809103906000f0801580156200003d573d6000803e3d6000fd5b506000806101000a81548173ffffffffffffffffffffffffffffffffffffffff021916908373ffffffffffffffffffffffffffffffffffffffff16021790555033600360006101000a81548173ffffffffffffffffffffffffffffffffffffffff021916908373ffffffffffffffffffffffffffffffffffffffff160217905550620000d2565b612396806200349d83390190565b6133bb80620000e26000396000f3fe6080604052600436106100fe5760003560e01c80633f579f4211610095578063da35c66411610064578063da35c66414610339578063da95691a14610364578063e23a9a5214610394578063eedc966a146103d1578063fe0d94c11461040e576100fe565b80633f579f42146102955780637bdbe4d0146102c5578063a3f4df7e146102f0578063b688a3631461031b576100fe565b806317977c61116100d157806317977c61146101c557806324bc1a64146102025780633932abb11461022d5780633e4f49e614610258576100fe565b8063013cf08b1461010357806302a251a31461014657806310fe9ae81461017157806315373e3d1461019c575b600080fd5b34801561010f57600080fd5b5061012a60048036038101906101259190611f39565b61042a565b60405161013d9796959493929190612a19565b60405180910390f35b34801561015257600080fd5b5061015b610499565b604051610168919061294e565b60405180910390f35b34801561017d57600080fd5b506101866104a3565b60405161019391906126db565b60405180910390f35b3480156101a857600080fd5b506101c360048036038101906101be9190611fd3565b6104cc565b005b3480156101d157600080fd5b506101ec60048036038101906101e79190611d69565b610851565b6040516101f9919061294e565b60405180910390f35b34801561020e57600080fd5b50610217610869565b604051610224919061294e565b60405180910390f35b34801561023957600080fd5b50610242610872565b60405161024f919061294e565b60405180910390f35b34801561026457600080fd5b5061027f600480360381019061027a9190611f39565b61087b565b60405161028c91906126f6565b60405180910390f35b6102af60048036038101906102aa9190611d96565b61096b565b6040516102bc91906126b9565b60405180910390f35b3480156102d157600080fd5b506102da610ab5565b6040516102e7919061294e565b60405180910390f35b3480156102fc57600080fd5b50610305610abe565b6040516103129190612711565b60405180910390f35b610323610af7565b604051610330919061269e565b60405180910390f35b34801561034557600080fd5b5061034e610d4f565b60405161035b919061294e565b60405180910390f35b61037e60048036038101906103799190611e05565b610d55565b60405161038b919061294e565b60405180910390f35b3480156103a057600080fd5b506103bb60048036038101906103b69190611f93565b611153565b6040516103c89190612933565b60405180910390f35b3480156103dd57600080fd5b506103f860048036038101906103f39190611d69565b6111f4565b604051610405919061294e565b60405180910390f35b61042860048036038101906104239190611f39565b6112a7565b005b60066020528060005260406000206000915090508060000154908060010160009054906101000a900473ffffffffffffffffffffffffffffffffffffffff169080600601549080600701549080600801549080600901549080600a0160009054906101000a900460ff16905087565b6000614380905090565b60008060009054906101000a900473ffffffffffffffffffffffffffffffffffffffff16905090565b60011515600160003373ffffffffffffffffffffffffffffffffffffffff1673ffffffffffffffffffffffffffffffffffffffff16815260200190815260200160002060009054906101000a900460ff1615151461055f576040517f08c379a0000000000000000000000000000000000000000000000000000000008152600401610556906127b3565b60405180910390fd5b6001600681111561057357610572612f90565b5b61057c8361087b565b600681111561058e5761058d612f90565b5b146105ce576040517f08c379a00000000000000000000000000000000000000000000000000000000081526004016105c590612833565b60405180910390fd5b600033905060006005600085815260200190815260200160002060008373ffffffffffffffffffffffffffffffffffffffff1673ffffffffffffffffffffffffffffffffffffffff1681526020019081526020016000209050600015158160000160009054906101000a900460ff1615151461067f576040517f08c379a0000000000000000000000000000000000000000000000000000000008152600401610676906127d3565b60405180910390fd5b6000670de0b6b3a764000060008054906101000a900473ffffffffffffffffffffffffffffffffffffffff1673ffffffffffffffffffffffffffffffffffffffff1663897ef41f856040518263ffffffff1660e01b81526004016106e39190612623565b60206040518083038186803b1580156106fb57600080fd5b505afa15801561070f573d6000803e3d6000fd5b505050506040513d601f19601f820116820180604052508101906107339190611f66565b61073d9190612d5e565b905060008111610782576040517f08c379a000000000000000000000000000000000000000000000000000000000815260040161077990612753565b60405180910390fd5b600060066000878152602001908152602001600020905084156107bc578181600801546107af9190612d08565b81600801819055506107d5565b8181600901546107cc9190612d08565b81600901819055505b60018360000160006101000a81548160ff021916908315150217905550848360000160016101000a81548160ff0219169083151502179055507fd356173ae8eeea8691aee4c1be712c314a975a3d43ebc48b08ca54d0dac9122884878760405161084193929190612667565b60405180910390a1505050505050565b60076020528060005260406000206000915090505481565b60006003905090565b60006001905090565b6000816004541015801561088f5750600082115b6108ce576040517f08c379a00000000000000000000000000000000000000000000000000000000081526004016108c5906128d3565b60405180910390fd5b6000600660008481526020019081526020016000209050806006015443116108fa576000915050610966565b8060070154431161090f576001915050610966565b806009015481600801541115806109305750610929610869565b8160080154105b1561093f576002915050610966565b80600a0160009054906101000a900460ff1615610960576006915050610966565b60049150505b919050565b60603373ffffffffffffffffffffffffffffffffffffffff16600360009054906101000a900473ffffffffffffffffffffffffffffffffffffffff1673ffffffffffffffffffffffffffffffffffffffff16146109fd576040517f08c379a00000000000000000000000000000000000000000000000000000000081526004016109f490612873565b60405180910390fd5b6000808573ffffffffffffffffffffffffffffffffffffffff1684604051610a25919061260c565b6000604051808303816000865af19150503d8060008114610a62576040519150601f19603f3d011682016040523d82523d6000602084013e610a67565b606091505b509150915081610aac576040517f08c379a0000000000000000000000000000000000000000000000000000000008152600401610aa3906128f3565b60405180910390fd5b50509392505050565b6000600a905090565b6040518060400160405280600d81526020017f436f6c6c6563746f722044414f0000000000000000000000000000000000000081525081565b6000801515600160003373ffffffffffffffffffffffffffffffffffffffff1673ffffffffffffffffffffffffffffffffffffffff16815260200190815260200160002060009054906101000a900460ff16151514610b8b576040517f08c379a0000000000000000000000000000000000000000000000000000000008152600401610b8290612733565b60405180910390fd5b670de0b6b3a7640000341015610bd6576040517f08c379a0000000000000000000000000000000000000000000000000000000008152600401610bcd90612913565b60405180910390fd5b60018060003373ffffffffffffffffffffffffffffffffffffffff1673ffffffffffffffffffffffffffffffffffffffff16815260200190815260200160002060006101000a81548160ff0219169083151502179055503460026000828254610c3f9190612d08565b9250508190555060008054906101000a900473ffffffffffffffffffffffffffffffffffffffff1673ffffffffffffffffffffffffffffffffffffffff1663a9059cbb33670de0b6b3a76400006040518363ffffffff1660e01b8152600401610ca992919061263e565b602060405180830381600087803b158015610cc357600080fd5b505af1158015610cd7573d6000803e3d6000fd5b505050506040513d601f19601f82011682018060405250810190610cfb9190611f0c565b503373ffffffffffffffffffffffffffffffffffffffff167f99ff3c8493cc730b7a818210b81af665c9b2bdb63cdf4f2c4108e092dec7a621604051610d4090612793565b60405180910390a26001905090565b60045481565b600060011515600160003373ffffffffffffffffffffffffffffffffffffffff1673ffffffffffffffffffffffffffffffffffffffff16815260200190815260200160002060009054906101000a900460ff16151514610dea576040517f08c379a0000000000000000000000000000000000000000000000000000000008152600401610de190612773565b60405180910390fd5b600086511415610e2f576040517f08c379a0000000000000000000000000000000000000000000000000000000008152600401610e2690612893565b60405180910390fd5b83518651148015610e41575082518651145b610e80576040517f08c379a0000000000000000000000000000000000000000000000000000000008152600401610e77906127f3565b60405180910390fd5b610e88610ab5565b86511115610ecb576040517f08c379a0000000000000000000000000000000000000000000000000000000008152600401610ec290612813565b60405180910390fd5b6000610ed5610872565b43610ee09190612d08565b90506000610eec610499565b82610ef79190612d08565b905060046000815480929190610f0c90612ee9565b9190505550600060405180610160016040528060045481526020013373ffffffffffffffffffffffffffffffffffffffff1681526020018a815260200189815260200188815260200187815260200184815260200183815260200160008152602001600081526020016000151581525090508060066000836000015181526020019081526020016000206000820151816000015560208201518160010160006101000a81548173ffffffffffffffffffffffffffffffffffffffff021916908373ffffffffffffffffffffffffffffffffffffffff16021790555060408201518160020190805190602001906110039291906115c6565b506060820151816003019080519060200190611020929190611650565b50608082015181600401908051906020019061103d92919061169d565b5060a082015181600501908051906020019061105a9291906116fd565b5060c0820151816006015560e082015181600701556101008201518160080155610120820151816009015561014082015181600a0160006101000a81548160ff021916908315150217905550905050806000015160076000836020015173ffffffffffffffffffffffffffffffffffffffff1673ffffffffffffffffffffffffffffffffffffffff168152602001908152602001600020819055507f7d84a6263ae0d98d3329bd7b46bb4e8d6f98cd35a7adb45c274c8b7fd5ebd5e08160000151338b8b8b8b89898d60405161113899989796959493929190612969565b60405180910390a18060000151935050505095945050505050565b61115b61175d565b6005600084815260200190815260200160002060008373ffffffffffffffffffffffffffffffffffffffff1673ffffffffffffffffffffffffffffffffffffffff1681526020019081526020016000206040518060400160405290816000820160009054906101000a900460ff161515151581526020016000820160019054906101000a900460ff161515151581525050905092915050565b60008060009054906101000a900473ffffffffffffffffffffffffffffffffffffffff1673ffffffffffffffffffffffffffffffffffffffff166370a08231836040518263ffffffff1660e01b81526004016112509190612623565b60206040518083038186803b15801561126857600080fd5b505afa15801561127c573d6000803e3d6000fd5b505050506040513d601f19601f820116820180604052508101906112a09190611f66565b9050919050565b3373ffffffffffffffffffffffffffffffffffffffff16600360009054906101000a900473ffffffffffffffffffffffffffffffffffffffff1673ffffffffffffffffffffffffffffffffffffffff1614611337576040517f08c379a000000000000000000000000000000000000000000000000000000000815260040161132e90612873565b60405180910390fd5b60006006600083815260200190815260200160002090506002600681111561136257611361612f90565b5b61136b8361087b565b600681111561137d5761137c612f90565b5b14156113c55760006113c4576040517f08c379a00000000000000000000000000000000000000000000000000000000081526004016113bb90612853565b60405180910390fd5b5b600460068111156113d9576113d8612f90565b5b6113e28361087b565b60068111156113f4576113f3612f90565b5b14611434576040517f08c379a000000000000000000000000000000000000000000000000000000000815260040161142b906128b3565b60405180910390fd5b60005b816002018054905081101561156d5761155982600201828154811061145f5761145e612fee565b5b9060005260206000200160009054906101000a900473ffffffffffffffffffffffffffffffffffffffff168360030183815481106114a05761149f612fee565b5b90600052602060002001548460050184815481106114c1576114c0612fee565b5b9060005260206000200180546114d690612e86565b80601f016020809104026020016040519081016040528092919081815260200182805461150290612e86565b801561154f5780601f106115245761010080835404028352916020019161154f565b820191906000526020600020905b81548152906001019060200180831161153257829003601f168201915b505050505061096b565b50808061156590612ee9565b915050611437565b50600181600a0160006101000a81548160ff0219169083151502179055507f712ae1383f79ac853f8d882153778e0260ef8f03b504e2866e0593e04d2b291f826040516115ba919061294e565b60405180910390a15050565b82805482825590600052602060002090810192821561163f579160200282015b8281111561163e5782518260006101000a81548173ffffffffffffffffffffffffffffffffffffffff021916908373ffffffffffffffffffffffffffffffffffffffff160217905550916020019190600101906115e6565b5b50905061164c919061177b565b5090565b82805482825590600052602060002090810192821561168c579160200282015b8281111561168b578251825591602001919060010190611670565b5b509050611699919061177b565b5090565b8280548282559060005260206000209081019282156116ec579160200282015b828111156116eb5782518290805190602001906116db929190611798565b50916020019190600101906116bd565b5b5090506116f9919061181e565b5090565b82805482825590600052602060002090810192821561174c579160200282015b8281111561174b57825182908051906020019061173b929190611842565b509160200191906001019061171d565b5b50905061175991906118c8565b5090565b60405180604001604052806000151581526020016000151581525090565b5b8082111561179457600081600090555060010161177c565b5090565b8280546117a490612e86565b90600052602060002090601f0160209004810192826117c6576000855561180d565b82601f106117df57805160ff191683800117855561180d565b8280016001018555821561180d579182015b8281111561180c5782518255916020019190600101906117f1565b5b50905061181a919061177b565b5090565b5b8082111561183e576000818161183591906118ec565b5060010161181f565b5090565b82805461184e90612e86565b90600052602060002090601f01602090048101928261187057600085556118b7565b82601f1061188957805160ff19168380011785556118b7565b828001600101855582156118b7579182015b828111156118b657825182559160200191906001019061189b565b5b5090506118c4919061177b565b5090565b5b808211156118e857600081816118df919061192c565b506001016118c9565b5090565b5080546118f890612e86565b6000825580601f1061190a5750611929565b601f016020900490600052602060002090810190611928919061177b565b5b50565b50805461193890612e86565b6000825580601f1061194a5750611969565b601f016020900490600052602060002090810190611968919061177b565b5b50565b600061197f61197a84612aad565b612a88565b905080838252602082019050828560208602820111156119a2576119a1613051565b5b60005b858110156119d257816119b88882611bec565b8452602084019350602083019250506001810190506119a5565b5050509392505050565b60006119ef6119ea84612ad9565b612a88565b90508083825260208201905082856020860282011115611a1257611a11613051565b5b60005b85811015611a6057813567ffffffffffffffff811115611a3857611a3761304c565b5b808601611a458982611ce3565b85526020850194506020840193505050600181019050611a15565b5050509392505050565b6000611a7d611a7884612b05565b612a88565b90508083825260208201905082856020860282011115611aa057611a9f613051565b5b60005b85811015611aee57813567ffffffffffffffff811115611ac657611ac561304c565b5b808601611ad38982611d11565b85526020850194506020840193505050600181019050611aa3565b5050509392505050565b6000611b0b611b0684612b31565b612a88565b90508083825260208201905082856020860282011115611b2e57611b2d613051565b5b60005b85811015611b5e5781611b448882611d3f565b845260208401935060208301925050600181019050611b31565b5050509392505050565b6000611b7b611b7684612b5d565b612a88565b905082815260208101848484011115611b9757611b96613056565b5b611ba2848285612e44565b509392505050565b6000611bbd611bb884612b8e565b612a88565b905082815260208101848484011115611bd957611bd8613056565b5b611be4848285612e44565b509392505050565b600081359050611bfb81613340565b92915050565b600082601f830112611c1657611c1561304c565b5b8135611c2684826020860161196c565b91505092915050565b600082601f830112611c4457611c4361304c565b5b8135611c548482602086016119dc565b91505092915050565b600082601f830112611c7257611c7161304c565b5b8135611c82848260208601611a6a565b91505092915050565b600082601f830112611ca057611c9f61304c565b5b8135611cb0848260208601611af8565b91505092915050565b600081359050611cc881613357565b92915050565b600081519050611cdd81613357565b92915050565b600082601f830112611cf857611cf761304c565b5b8135611d08848260208601611b68565b91505092915050565b600082601f830112611d2657611d2561304c565b5b8135611d36848260208601611baa565b91505092915050565b600081359050611d4e8161336e565b92915050565b600081519050611d638161336e565b92915050565b600060208284031215611d7f57611d7e613060565b5b6000611d8d84828501611bec565b91505092915050565b600080600060608486031215611daf57611dae613060565b5b6000611dbd86828701611bec565b9350506020611dce86828701611d3f565b925050604084013567ffffffffffffffff811115611def57611dee61305b565b5b611dfb86828701611ce3565b9150509250925092565b600080600080600060a08688031215611e2157611e20613060565b5b600086013567ffffffffffffffff811115611e3f57611e3e61305b565b5b611e4b88828901611c01565b955050602086013567ffffffffffffffff811115611e6c57611e6b61305b565b5b611e7888828901611c8b565b945050604086013567ffffffffffffffff811115611e9957611e9861305b565b5b611ea588828901611c5d565b935050606086013567ffffffffffffffff811115611ec657611ec561305b565b5b611ed288828901611c2f565b925050608086013567ffffffffffffffff811115611ef357611ef261305b565b5b611eff88828901611d11565b9150509295509295909350565b600060208284031215611f2257611f21613060565b5b6000611f3084828501611cce565b91505092915050565b600060208284031215611f4f57611f4e613060565b5b6000611f5d84828501611d3f565b91505092915050565b600060208284031215611f7c57611f7b613060565b5b6000611f8a84828501611d54565b91505092915050565b60008060408385031215611faa57611fa9613060565b5b6000611fb885828601611d3f565b9250506020611fc985828601611bec565b9150509250929050565b60008060408385031215611fea57611fe9613060565b5b6000611ff885828601611d3f565b925050602061200985828601611cb9565b9150509250929050565b600061201f838361206b565b60208301905092915050565b6000612037838361224d565b905092915050565b600061204b838361231d565b905092915050565b600061205f83836125ee565b60208301905092915050565b61207481612d8f565b82525050565b61208381612d8f565b82525050565b600061209482612bff565b61209e8185612c75565b93506120a983612bbf565b8060005b838110156120da5781516120c18882612013565b97506120cc83612c41565b9250506001810190506120ad565b5085935050505092915050565b60006120f282612c0a565b6120fc8185612c86565b93508360208202850161210e85612bcf565b8060005b8581101561214a578484038952815161212b858261202b565b945061213683612c4e565b925060208a01995050600181019050612112565b50829750879550505050505092915050565b600061216782612c15565b6121718185612c97565b93508360208202850161218385612bdf565b8060005b858110156121bf57848403895281516121a0858261203f565b94506121ab83612c5b565b925060208a01995050600181019050612187565b50829750879550505050505092915050565b60006121dc82612c20565b6121e68185612ca8565b93506121f183612bef565b8060005b838110156122225781516122098882612053565b975061221483612c68565b9250506001810190506121f5565b5085935050505092915050565b61223881612da1565b82525050565b61224781612da1565b82525050565b600061225882612c2b565b6122628185612cb9565b9350612272818560208601612e53565b61227b81613065565b840191505092915050565b600061229182612c2b565b61229b8185612cca565b93506122ab818560208601612e53565b6122b481613065565b840191505092915050565b60006122ca82612c2b565b6122d48185612cdb565b93506122e4818560208601612e53565b80840191505092915050565b6122f981612dea565b82525050565b61230881612dfc565b82525050565b61231781612e0e565b82525050565b600061232882612c36565b6123328185612ce6565b9350612342818560208601612e53565b61234b81613065565b840191505092915050565b600061236182612c36565b61236b8185612cf7565b935061237b818560208601612e53565b61238481613065565b840191505092915050565b600061239c601083612cf7565b91506123a782613076565b602082019050919050565b60006123bf602083612cf7565b91506123ca8261309f565b602082019050919050565b60006123e2601583612cf7565b91506123ed826130c8565b602082019050919050565b6000612405600d83612cf7565b9150612410826130f1565b602082019050919050565b6000612428601483612cf7565b91506124338261311a565b602082019050919050565b600061244b600d83612cf7565b915061245682613143565b602082019050919050565b600061246e602083612cf7565b91506124798261316c565b602082019050919050565b6000612491602283612cf7565b915061249c82613195565b604082019050919050565b60006124b4601983612cf7565b91506124bf826131e4565b602082019050919050565b60006124d7601183612cf7565b91506124e28261320d565b602082019050919050565b60006124fa601183612cf7565b915061250582613236565b602082019050919050565b600061251d601d83612cf7565b91506125288261325f565b602082019050919050565b6000612540601183612cf7565b915061254b82613288565b602082019050919050565b6000612563601383612cf7565b915061256e826132b1565b602082019050919050565b6000612586601b83612cf7565b9150612591826132da565b602082019050919050565b60006125a9601f83612cf7565b91506125b482613303565b602082019050919050565b6040820160008201516125d5600085018261222f565b5060208201516125e8602085018261222f565b50505050565b6125f781612de0565b82525050565b61260681612de0565b82525050565b600061261882846122bf565b915081905092915050565b6000602082019050612638600083018461207a565b92915050565b6000604082019050612653600083018561207a565b612660602083018461230e565b9392505050565b600060608201905061267c600083018661207a565b61268960208301856125fd565b612696604083018461223e565b949350505050565b60006020820190506126b3600083018461223e565b92915050565b600060208201905081810360008301526126d38184612286565b905092915050565b60006020820190506126f060008301846122f0565b92915050565b600060208201905061270b60008301846122ff565b92915050565b6000602082019050818103600083015261272b8184612356565b905092915050565b6000602082019050818103600083015261274c8161238f565b9050919050565b6000602082019050818103600083015261276c816123b2565b9050919050565b6000602082019050818103600083015261278c816123d5565b9050919050565b600060208201905081810360008301526127ac816123f8565b9050919050565b600060208201905081810360008301526127cc8161241b565b9050919050565b600060208201905081810360008301526127ec8161243e565b9050919050565b6000602082019050818103600083015261280c81612461565b9050919050565b6000602082019050818103600083015261282c81612484565b9050919050565b6000602082019050818103600083015261284c816124a7565b9050919050565b6000602082019050818103600083015261286c816124ca565b9050919050565b6000602082019050818103600083015261288c816124ed565b9050919050565b600060208201905081810360008301526128ac81612510565b9050919050565b600060208201905081810360008301526128cc81612533565b9050919050565b600060208201905081810360008301526128ec81612556565b9050919050565b6000602082019050818103600083015261290c81612579565b9050919050565b6000602082019050818103600083015261292c8161259c565b9050919050565b600060408201905061294860008301846125bf565b92915050565b600060208201905061296360008301846125fd565b92915050565b60006101208201905061297f600083018c6125fd565b61298c602083018b61207a565b818103604083015261299e818a612089565b905081810360608301526129b281896121d1565b905081810360808301526129c6818861215c565b905081810360a08301526129da81876120e7565b90506129e960c08301866125fd565b6129f660e08301856125fd565b818103610100830152612a098184612356565b90509a9950505050505050505050565b600060e082019050612a2e600083018a6125fd565b612a3b602083018961207a565b612a4860408301886125fd565b612a5560608301876125fd565b612a6260808301866125fd565b612a6f60a08301856125fd565b612a7c60c083018461223e565b98975050505050505050565b6000612a92612aa3565b9050612a9e8282612eb8565b919050565b6000604051905090565b600067ffffffffffffffff821115612ac857612ac761301d565b5b602082029050602081019050919050565b600067ffffffffffffffff821115612af457612af361301d565b5b602082029050602081019050919050565b600067ffffffffffffffff821115612b2057612b1f61301d565b5b602082029050602081019050919050565b600067ffffffffffffffff821115612b4c57612b4b61301d565b5b602082029050602081019050919050565b600067ffffffffffffffff821115612b7857612b7761301d565b5b612b8182613065565b9050602081019050919050565b600067ffffffffffffffff821115612ba957612ba861301d565b5b612bb282613065565b9050602081019050919050565b6000819050602082019050919050565b6000819050602082019050919050565b6000819050602082019050919050565b6000819050602082019050919050565b600081519050919050565b600081519050919050565b600081519050919050565b600081519050919050565b600081519050919050565b600081519050919050565b6000602082019050919050565b6000602082019050919050565b6000602082019050919050565b6000602082019050919050565b600082825260208201905092915050565b600082825260208201905092915050565b600082825260208201905092915050565b600082825260208201905092915050565b600082825260208201905092915050565b600082825260208201905092915050565b600081905092915050565b600082825260208201905092915050565b600082825260208201905092915050565b6000612d1382612de0565b9150612d1e83612de0565b9250827fffffffffffffffffffffffffffffffffffffffffffffffffffffffffffffffff03821115612d5357612d52612f32565b5b828201905092915050565b6000612d6982612de0565b9150612d7483612de0565b925082612d8457612d83612f61565b5b828204905092915050565b6000612d9a82612dc0565b9050919050565b60008115159050919050565b6000819050612dbb8261332c565b919050565b600073ffffffffffffffffffffffffffffffffffffffff82169050919050565b6000819050919050565b6000612df582612e20565b9050919050565b6000612e0782612dad565b9050919050565b6000612e1982612de0565b9050919050565b6000612e2b82612e32565b9050919050565b6000612e3d82612dc0565b9050919050565b82818337600083830152505050565b60005b83811015612e71578082015181840152602081019050612e56565b83811115612e80576000848401525b50505050565b60006002820490506001821680612e9e57607f821691505b60208210811415612eb257612eb1612fbf565b5b50919050565b612ec182613065565b810181811067ffffffffffffffff82111715612ee057612edf61301d565b5b80604052505050565b6000612ef482612de0565b91507fffffffffffffffffffffffffffffffffffffffffffffffffffffffffffffffff821415612f2757612f26612f32565b5b600182019050919050565b7f4e487b7100000000000000000000000000000000000000000000000000000000600052601160045260246000fd5b7f4e487b7100000000000000000000000000000000000000000000000000000000600052601260045260246000fd5b7f4e487b7100000000000000000000000000000000000000000000000000000000600052602160045260246000fd5b7f4e487b7100000000000000000000000000000000000000000000000000000000600052602260045260246000fd5b7f4e487b7100000000000000000000000000000000000000000000000000000000600052603260045260246000fd5b7f4e487b7100000000000000000000000000000000000000000000000000000000600052604160045260246000fd5b600080fd5b600080fd5b600080fd5b600080fd5b600080fd5b6000601f19601f8301169050919050565b7f4e4f545f415f4e45575f4d454d42455200000000000000000000000000000000600082015250565b7f4e4f545f484156494e475f454e4f5547485f564f54494e475f42414c414e4345600082015250565b7f4d454d4245525f4e4f545f524547495354455245440000000000000000000000600082015250565b7f4d656d626572204a6f696e656400000000000000000000000000000000000000600082015250565b7f564f5445525f4e4f545f52454749535445524544000000000000000000000000600082015250565b7f414c52454144595f564f54454400000000000000000000000000000000000000600082015250565b7f50524f504f53414c5f46554e4354494f4e5f41524954595f4d49534d41544348600082015250565b7f50524f504f53414c5f50524f56494445445f544f4f5f4d414e595f414354494f60008201527f4e53000000000000000000000000000000000000000000000000000000000000602082015250565b7f564f54494e475f4c494e45535f4152455f4e4f545f4f50454e00000000000000600082015250565b7f50524f504f53414c5f4445464541544544000000000000000000000000000000600082015250565b7f524553545249435445445f414343455353000000000000000000000000000000600082015250565b7f50524f504f53414c5f4d5553545f50524f564944455f414354494f4e53000000600082015250565b7f50524f504f53414c5f494e5f5155455545000000000000000000000000000000600082015250565b7f494e56414c49445f50524f504f53414c5f494400000000000000000000000000600082015250565b7f455845435554455f5452414e53414354494f4e5f4641494c45442e0000000000600082015250565b7f4d494e494d554d5f4d454d424552534849505f4645455f524551554952454400600082015250565b6007811061333d5761333c612f90565b5b50565b61334981612d8f565b811461335457600080fd5b50565b61336081612da1565b811461336b57600080fd5b50565b61337781612de0565b811461338257600080fd5b5056fea2646970667358221220e3a924f1f7ef8278a2e2483e1edb49e779836a3fc9b243c922ab9130074ade8764736f6c6343000807003360806040523480156200001157600080fd5b506040518060400160405280600f81526020017f436f6c6c6563746f7220546f6b656e00000000000000000000000000000000008152506040518060400160405280600381526020017f435452000000000000000000000000000000000000000000000000000000000081525081600390805190602001906200009692919062000281565b508060049080519060200190620000af92919062000281565b505050620000ef33620000c7620000f560201b60201c565b600a620000d5919062000471565b600a620000e39190620005ae565b620000fe60201b60201c565b620006f0565b60006012905090565b600073ffffffffffffffffffffffffffffffffffffffff168273ffffffffffffffffffffffffffffffffffffffff16141562000171576040517f08c379a0000000000000000000000000000000000000000000000000000000008152600401620001689062000369565b60405180910390fd5b62000185600083836200027760201b60201c565b8060026000828254620001999190620003b9565b92505081905550806000808473ffffffffffffffffffffffffffffffffffffffff1673ffffffffffffffffffffffffffffffffffffffff1681526020019081526020016000206000828254620001f09190620003b9565b925050819055508173ffffffffffffffffffffffffffffffffffffffff16600073ffffffffffffffffffffffffffffffffffffffff167fddf252ad1be2c89b69c2b068fc378daa952ba7f163c4a11628f55a4df523b3ef836040516200025791906200038b565b60405180910390a362000273600083836200027c60201b60201c565b5050565b505050565b505050565b8280546200028f9062000626565b90600052602060002090601f016020900481019282620002b35760008555620002ff565b82601f10620002ce57805160ff1916838001178555620002ff565b82800160010185558215620002ff579182015b82811115620002fe578251825591602001919060010190620002e1565b5b5090506200030e919062000312565b5090565b5b808211156200032d57600081600090555060010162000313565b5090565b600062000340601f83620003a8565b91506200034d82620006c7565b602082019050919050565b62000363816200060f565b82525050565b60006020820190508181036000830152620003848162000331565b9050919050565b6000602082019050620003a2600083018462000358565b92915050565b600082825260208201905092915050565b6000620003c6826200060f565b9150620003d3836200060f565b9250827fffffffffffffffffffffffffffffffffffffffffffffffffffffffffffffffff038211156200040b576200040a6200065c565b5b828201905092915050565b6000808291508390505b6001851115620004685780860481111562000440576200043f6200065c565b5b6001851615620004505780820291505b80810290506200046085620006ba565b945062000420565b94509492505050565b60006200047e826200060f565b91506200048b8362000619565b9250620004ba7fffffffffffffffffffffffffffffffffffffffffffffffffffffffffffffffff8484620004c2565b905092915050565b600082620004d45760019050620005a7565b81620004e45760009050620005a7565b8160018114620004fd576002811462000508576200053e565b6001915050620005a7565b60ff8411156200051d576200051c6200065c565b5b8360020a9150848211156200053757620005366200065c565b5b50620005a7565b5060208310610133831016604e8410600b8410161715620005785782820a9050838111156200057257620005716200065c565b5b620005a7565b62000587848484600162000416565b92509050818404811115620005a157620005a06200065c565b5b81810290505b9392505050565b6000620005bb826200060f565b9150620005c8836200060f565b9250817fffffffffffffffffffffffffffffffffffffffffffffffffffffffffffffffff04831182151516156200060457620006036200065c565b5b828202905092915050565b6000819050919050565b600060ff82169050919050565b600060028204905060018216806200063f57607f821691505b602082108114156200065657620006556200068b565b5b50919050565b7f4e487b7100000000000000000000000000000000000000000000000000000000600052601160045260246000fd5b7f4e487b7100000000000000000000000000000000000000000000000000000000600052602260045260246000fd5b60008160011c9050919050565b7f45524332303a206d696e7420746f20746865207a65726f206164647265737300600082015250565b611c9680620007006000396000f3fe608060405234801561001057600080fd5b50600436106101005760003560e01c80635e035355116100975780639dc29fac116100665780639dc29fac146102e9578063a457c2d714610319578063a9059cbb14610349578063dd62ed3e1461037957610100565b80635e0353551461023b57806370a082311461026b578063897ef41f1461029b57806395d89b41146102cb57610100565b8063313ce567116100d3578063313ce567146101a157806339509351146101bf578063587cde1e146101ef5780635c19a95c1461021f57610100565b806306fdde0314610105578063095ea7b31461012357806318160ddd1461015357806323b872dd14610171575b600080fd5b61010d6103a9565b60405161011a91906115d6565b60405180910390f35b61013d6004803603810190610138919061138d565b61043b565b60405161014a91906115bb565b60405180910390f35b61015b610459565b6040516101689190611738565b60405180910390f35b61018b6004803603810190610186919061133a565b610463565b60405161019891906115bb565b60405180910390f35b6101a961055b565b6040516101b69190611753565b60405180910390f35b6101d960048036038101906101d4919061138d565b610564565b6040516101e691906115bb565b60405180910390f35b610209600480360381019061020491906112cd565b610610565b60405161021691906115a0565b60405180910390f35b610239600480360381019061023491906112cd565b610643565b005b610255600480360381019061025091906112cd565b6108dc565b6040516102629190611738565b60405180910390f35b610285600480360381019061028091906112cd565b6108f4565b6040516102929190611738565b60405180910390f35b6102b560048036038101906102b091906112cd565b61093c565b6040516102c29190611738565b60405180910390f35b6102d3610985565b6040516102e091906115d6565b60405180910390f35b61030360048036038101906102fe919061138d565b610a17565b60405161031091906115bb565b60405180910390f35b610333600480360381019061032e919061138d565b610a71565b60405161034091906115bb565b60405180910390f35b610363600480360381019061035e919061138d565b610b5c565b60405161037091906115bb565b60405180910390f35b610393600480360381019061038e91906112fa565b610bc9565b6040516103a09190611738565b60405180910390f35b6060600380546103b89061189c565b80601f01602080910402602001604051908101604052809291908181526020018280546103e49061189c565b80156104315780601f1061040657610100808354040283529160200191610431565b820191906000526020600020905b81548152906001019060200180831161041457829003601f168201915b5050505050905090565b600061044f610448610c50565b8484610c58565b6001905092915050565b6000600254905090565b6000610470848484610e23565b6000600160008673ffffffffffffffffffffffffffffffffffffffff1673ffffffffffffffffffffffffffffffffffffffff16815260200190815260200160002060006104bb610c50565b73ffffffffffffffffffffffffffffffffffffffff1673ffffffffffffffffffffffffffffffffffffffff1681526020019081526020016000205490508281101561053b576040517f08c379a000000000000000000000000000000000000000000000000000000000815260040161053290611698565b60405180910390fd5b61054f85610547610c50565b858403610c58565b60019150509392505050565b60006012905090565b6000610606610571610c50565b84846001600061057f610c50565b73ffffffffffffffffffffffffffffffffffffffff1673ffffffffffffffffffffffffffffffffffffffff16815260200190815260200160002060008873ffffffffffffffffffffffffffffffffffffffff1673ffffffffffffffffffffffffffffffffffffffff16815260200190815260200160002054610601919061178a565b610c58565b6001905092915050565b60056020528060005260406000206000915054906101000a900473ffffffffffffffffffffffffffffffffffffffff1681565b60003390506000600660008373ffffffffffffffffffffffffffffffffffffffff1673ffffffffffffffffffffffffffffffffffffffff16815260200190815260200160002054116106ca576040517f08c379a00000000000000000000000000000000000000000000000000000000081526004016106c190611638565b60405180910390fd5b6000600560008373ffffffffffffffffffffffffffffffffffffffff1673ffffffffffffffffffffffffffffffffffffffff16815260200190815260200160002060009054906101000a900473ffffffffffffffffffffffffffffffffffffffff16905082600560008473ffffffffffffffffffffffffffffffffffffffff1673ffffffffffffffffffffffffffffffffffffffff16815260200190815260200160002060006101000a81548173ffffffffffffffffffffffffffffffffffffffff021916908373ffffffffffffffffffffffffffffffffffffffff16021790555060006107b7836108f4565b905080600660008573ffffffffffffffffffffffffffffffffffffffff1673ffffffffffffffffffffffffffffffffffffffff168152602001908152602001600020600082825461080891906117e0565b9250508190555080600660008673ffffffffffffffffffffffffffffffffffffffff1673ffffffffffffffffffffffffffffffffffffffff168152602001908152602001600020600082825461085e919061178a565b925050819055508373ffffffffffffffffffffffffffffffffffffffff168273ffffffffffffffffffffffffffffffffffffffff168473ffffffffffffffffffffffffffffffffffffffff167f3134e8a2e6d97e929a7e54011ea5485d7d196dd5f0ba4d4ef95803e8e3fc257f60405160405180910390a450505050565b60066020528060005260406000206000915090505481565b60008060008373ffffffffffffffffffffffffffffffffffffffff1673ffffffffffffffffffffffffffffffffffffffff168152602001908152602001600020549050919050565b6000600660008373ffffffffffffffffffffffffffffffffffffffff1673ffffffffffffffffffffffffffffffffffffffff168152602001908152602001600020549050919050565b6060600480546109949061189c565b80601f01602080910402602001604051908101604052809291908181526020018280546109c09061189c565b8015610a0d5780601f106109e257610100808354040283529160200191610a0d565b820191906000526020600020905b8154815290600101906020018083116109f057829003601f168201915b5050505050905090565b600080600660008573ffffffffffffffffffffffffffffffffffffffff1673ffffffffffffffffffffffffffffffffffffffff16815260200190815260200160002081905550610a6783836110a4565b6001905092915050565b60008060016000610a80610c50565b73ffffffffffffffffffffffffffffffffffffffff1673ffffffffffffffffffffffffffffffffffffffff16815260200190815260200160002060008573ffffffffffffffffffffffffffffffffffffffff1673ffffffffffffffffffffffffffffffffffffffff16815260200190815260200160002054905082811015610b3d576040517f08c379a0000000000000000000000000000000000000000000000000000000008152600401610b3490611718565b60405180910390fd5b610b51610b48610c50565b85858403610c58565b600191505092915050565b600081600660008573ffffffffffffffffffffffffffffffffffffffff1673ffffffffffffffffffffffffffffffffffffffff1681526020019081526020016000206000828254610bad919061178a565b92505081905550610bbe838361127b565b506001905092915050565b6000600160008473ffffffffffffffffffffffffffffffffffffffff1673ffffffffffffffffffffffffffffffffffffffff16815260200190815260200160002060008373ffffffffffffffffffffffffffffffffffffffff1673ffffffffffffffffffffffffffffffffffffffff16815260200190815260200160002054905092915050565b600033905090565b600073ffffffffffffffffffffffffffffffffffffffff168373ffffffffffffffffffffffffffffffffffffffff161415610cc8576040517f08c379a0000000000000000000000000000000000000000000000000000000008152600401610cbf906116f8565b60405180910390fd5b600073ffffffffffffffffffffffffffffffffffffffff168273ffffffffffffffffffffffffffffffffffffffff161415610d38576040517f08c379a0000000000000000000000000000000000000000000000000000000008152600401610d2f90611658565b60405180910390fd5b80600160008573ffffffffffffffffffffffffffffffffffffffff1673ffffffffffffffffffffffffffffffffffffffff16815260200190815260200160002060008473ffffffffffffffffffffffffffffffffffffffff1673ffffffffffffffffffffffffffffffffffffffff168152602001908152602001600020819055508173ffffffffffffffffffffffffffffffffffffffff168373ffffffffffffffffffffffffffffffffffffffff167f8c5be1e5ebec7d5bd14f71427d1e84f3dd0314c0f7b2291e5b200ac8c7c3b92583604051610e169190611738565b60405180910390a3505050565b600073ffffffffffffffffffffffffffffffffffffffff168373ffffffffffffffffffffffffffffffffffffffff161415610e93576040517f08c379a0000000000000000000000000000000000000000000000000000000008152600401610e8a906116d8565b60405180910390fd5b600073ffffffffffffffffffffffffffffffffffffffff168273ffffffffffffffffffffffffffffffffffffffff161415610f03576040517f08c379a0000000000000000000000000000000000000000000000000000000008152600401610efa906115f8565b60405180910390fd5b610f0e838383611299565b60008060008573ffffffffffffffffffffffffffffffffffffffff1673ffffffffffffffffffffffffffffffffffffffff16815260200190815260200160002054905081811015610f94576040517f08c379a0000000000000000000000000000000000000000000000000000000008152600401610f8b90611678565b60405180910390fd5b8181036000808673ffffffffffffffffffffffffffffffffffffffff1673ffffffffffffffffffffffffffffffffffffffff16815260200190815260200160002081905550816000808573ffffffffffffffffffffffffffffffffffffffff1673ffffffffffffffffffffffffffffffffffffffff1681526020019081526020016000206000828254611027919061178a565b925050819055508273ffffffffffffffffffffffffffffffffffffffff168473ffffffffffffffffffffffffffffffffffffffff167fddf252ad1be2c89b69c2b068fc378daa952ba7f163c4a11628f55a4df523b3ef8460405161108b9190611738565b60405180910390a361109e84848461129e565b50505050565b600073ffffffffffffffffffffffffffffffffffffffff168273ffffffffffffffffffffffffffffffffffffffff161415611114576040517f08c379a000000000000000000000000000000000000000000000000000000000815260040161110b906116b8565b60405180910390fd5b61112082600083611299565b60008060008473ffffffffffffffffffffffffffffffffffffffff1673ffffffffffffffffffffffffffffffffffffffff168152602001908152602001600020549050818110156111a6576040517f08c379a000000000000000000000000000000000000000000000000000000000815260040161119d90611618565b60405180910390fd5b8181036000808573ffffffffffffffffffffffffffffffffffffffff1673ffffffffffffffffffffffffffffffffffffffff1681526020019081526020016000208190555081600260008282546111fd91906117e0565b92505081905550600073ffffffffffffffffffffffffffffffffffffffff168373ffffffffffffffffffffffffffffffffffffffff167fddf252ad1be2c89b69c2b068fc378daa952ba7f163c4a11628f55a4df523b3ef846040516112629190611738565b60405180910390a36112768360008461129e565b505050565b600061128f611288610c50565b8484610e23565b6001905092915050565b505050565b505050565b6000813590506112b281611c32565b92915050565b6000813590506112c781611c49565b92915050565b6000602082840312156112e3576112e261192c565b5b60006112f1848285016112a3565b91505092915050565b600080604083850312156113115761131061192c565b5b600061131f858286016112a3565b9250506020611330858286016112a3565b9150509250929050565b6000806000606084860312156113535761135261192c565b5b6000611361868287016112a3565b9350506020611372868287016112a3565b9250506040611383868287016112b8565b9150509250925092565b600080604083850312156113a4576113a361192c565b5b60006113b2858286016112a3565b92505060206113c3858286016112b8565b9150509250929050565b6113d681611814565b82525050565b6113e581611826565b82525050565b60006113f68261176e565b6114008185611779565b9350611410818560208601611869565b61141981611931565b840191505092915050565b6000611431602383611779565b915061143c82611942565b604082019050919050565b6000611454602283611779565b915061145f82611991565b604082019050919050565b6000611477601f83611779565b9150611482826119e0565b602082019050919050565b600061149a602283611779565b91506114a582611a09565b604082019050919050565b60006114bd602683611779565b91506114c882611a58565b604082019050919050565b60006114e0602883611779565b91506114eb82611aa7565b604082019050919050565b6000611503602183611779565b915061150e82611af6565b604082019050919050565b6000611526602583611779565b915061153182611b45565b604082019050919050565b6000611549602483611779565b915061155482611b94565b604082019050919050565b600061156c602583611779565b915061157782611be3565b604082019050919050565b61158b81611852565b82525050565b61159a8161185c565b82525050565b60006020820190506115b560008301846113cd565b92915050565b60006020820190506115d060008301846113dc565b92915050565b600060208201905081810360008301526115f081846113eb565b905092915050565b6000602082019050818103600083015261161181611424565b9050919050565b6000602082019050818103600083015261163181611447565b9050919050565b600060208201905081810360008301526116518161146a565b9050919050565b600060208201905081810360008301526116718161148d565b9050919050565b60006020820190508181036000830152611691816114b0565b9050919050565b600060208201905081810360008301526116b1816114d3565b9050919050565b600060208201905081810360008301526116d1816114f6565b9050919050565b600060208201905081810360008301526116f181611519565b9050919050565b600060208201905081810360008301526117118161153c565b9050919050565b600060208201905081810360008301526117318161155f565b9050919050565b600060208201905061174d6000830184611582565b92915050565b60006020820190506117686000830184611591565b92915050565b600081519050919050565b600082825260208201905092915050565b600061179582611852565b91506117a083611852565b9250827fffffffffffffffffffffffffffffffffffffffffffffffffffffffffffffffff038211156117d5576117d46118ce565b5b828201905092915050565b60006117eb82611852565b91506117f683611852565b925082821015611809576118086118ce565b5b828203905092915050565b600061181f82611832565b9050919050565b60008115159050919050565b600073ffffffffffffffffffffffffffffffffffffffff82169050919050565b6000819050919050565b600060ff82169050919050565b60005b8381101561188757808201518184015260208101905061186c565b83811115611896576000848401525b50505050565b600060028204905060018216806118b457607f821691505b602082108114156118c8576118c76118fd565b5b50919050565b7f4e487b7100000000000000000000000000000000000000000000000000000000600052601160045260246000fd5b7f4e487b7100000000000000000000000000000000000000000000000000000000600052602260045260246000fd5b600080fd5b6000601f19601f8301169050919050565b7f45524332303a207472616e7366657220746f20746865207a65726f206164647260008201527f6573730000000000000000000000000000000000000000000000000000000000602082015250565b7f45524332303a206275726e20616d6f756e7420657863656564732062616c616e60008201527f6365000000000000000000000000000000000000000000000000000000000000602082015250565b7f44454c454741544f525f4841535f4e4f5f564f54494e475f42414c414e434500600082015250565b7f45524332303a20617070726f766520746f20746865207a65726f20616464726560008201527f7373000000000000000000000000000000000000000000000000000000000000602082015250565b7f45524332303a207472616e7366657220616d6f756e742065786365656473206260008201527f616c616e63650000000000000000000000000000000000000000000000000000602082015250565b7f45524332303a207472616e7366657220616d6f756e742065786365656473206160008201527f6c6c6f77616e6365000000000000000000000000000000000000000000000000602082015250565b7f45524332303a206275726e2066726f6d20746865207a65726f2061646472657360008201527f7300000000000000000000000000000000000000000000000000000000000000602082015250565b7f45524332303a207472616e736665722066726f6d20746865207a65726f20616460008201527f6472657373000000000000000000000000000000000000000000000000000000602082015250565b7f45524332303a20617070726f76652066726f6d20746865207a65726f2061646460008201527f7265737300000000000000000000000000000000000000000000000000000000602082015250565b7f45524332303a2064656372656173656420616c6c6f77616e63652062656c6f7760008201527f207a65726f000000000000000000000000000000000000000000000000000000602082015250565b611c3b81611814565b8114611c4657600080fd5b50565b611c5281611852565b8114611c5d57600080fd5b5056fea26469706673582212206b325d659e6651da1f6295895db0e342a411d9e1a69db375cdc99c42caa27bd664736f6c63430008070033",
  "linkReferences": {},
  "deployedLinkReferences": {}
}