{
  "_format": "hh-sol-artifact-1",
  "contractName": "CollectorDAO",
  "sourceName": "contracts/CollectorDAO.sol",
  "abi": [
    {
      "inputs": [],
      "stateMutability": "nonpayable",
      "type": "constructor"
    },
    {
      "anonymous": false,
      "inputs": [
        {
          "indexed": true,
          "internalType": "address",
          "name": "sender",
          "type": "address"
        },
        {
          "indexed": false,
          "internalType": "string",
          "name": "message",
          "type": "string"
        }
      ],
      "name": "Join",
      "type": "event"
    },
    {
      "anonymous": false,
      "inputs": [
        {
          "indexed": false,
          "internalType": "uint256",
          "name": "id",
          "type": "uint256"
        },
        {
          "indexed": false,
          "internalType": "address",
          "name": "proposer",
          "type": "address"
        },
        {
          "indexed": false,
          "internalType": "address[]",
          "name": "targets",
          "type": "address[]"
        },
        {
          "indexed": false,
          "internalType": "uint256[]",
          "name": "values",
          "type": "uint256[]"
        },
        {
          "indexed": false,
          "internalType": "string[]",
          "name": "signatures",
          "type": "string[]"
        },
        {
          "indexed": false,
          "internalType": "bytes[]",
          "name": "calldatas",
          "type": "bytes[]"
        },
        {
          "indexed": false,
          "internalType": "uint256",
          "name": "startBlock",
          "type": "uint256"
        },
        {
          "indexed": false,
          "internalType": "uint256",
          "name": "endBlock",
          "type": "uint256"
        },
        {
          "indexed": false,
          "internalType": "string",
          "name": "description",
          "type": "string"
        }
      ],
      "name": "ProposalCreated",
      "type": "event"
    },
    {
      "anonymous": false,
      "inputs": [
        {
          "indexed": false,
          "internalType": "uint256",
          "name": "id",
          "type": "uint256"
        }
      ],
      "name": "ProposalExecuted",
      "type": "event"
    },
    {
      "anonymous": false,
      "inputs": [
        {
          "indexed": false,
          "internalType": "address",
          "name": "voter",
          "type": "address"
        },
        {
          "indexed": false,
          "internalType": "uint256",
          "name": "proposalId",
          "type": "uint256"
        },
        {
          "indexed": false,
          "internalType": "bool",
          "name": "support",
          "type": "bool"
        }
      ],
      "name": "VoteCast",
      "type": "event"
    },
    {
      "inputs": [],
      "name": "NAME",
      "outputs": [
        {
          "internalType": "string",
          "name": "",
          "type": "string"
        }
      ],
      "stateMutability": "view",
      "type": "function"
    },
    {
      "inputs": [],
      "name": "balance",
      "outputs": [
        {
          "internalType": "uint256",
          "name": "",
          "type": "uint256"
        }
      ],
      "stateMutability": "view",
      "type": "function"
    },
    {
      "inputs": [
        {
          "internalType": "uint256",
          "name": "proposalId",
          "type": "uint256"
        },
        {
          "internalType": "bool",
          "name": "support",
          "type": "bool"
        }
      ],
      "name": "castVote",
      "outputs": [],
      "stateMutability": "nonpayable",
      "type": "function"
    },
    {
      "inputs": [
        {
          "internalType": "uint256",
          "name": "proposalId",
          "type": "uint256"
        }
      ],
      "name": "execute",
      "outputs": [],
      "stateMutability": "payable",
      "type": "function"
    },
    {
      "inputs": [
        {
          "internalType": "address",
          "name": "target",
          "type": "address"
        },
        {
          "internalType": "uint256",
          "name": "msgvalue",
          "type": "uint256"
        },
        {
          "internalType": "bytes",
          "name": "callData",
          "type": "bytes"
        }
      ],
      "name": "executeTransaction",
      "outputs": [
        {
          "internalType": "bytes",
          "name": "",
          "type": "bytes"
        }
      ],
      "stateMutability": "payable",
      "type": "function"
    },
    {
      "inputs": [
        {
          "internalType": "uint256",
          "name": "proposalId",
          "type": "uint256"
        },
        {
          "internalType": "address",
          "name": "voter",
          "type": "address"
        }
      ],
      "name": "getReceipt",
      "outputs": [
        {
          "components": [
            {
              "internalType": "bool",
              "name": "hasVoted",
              "type": "bool"
            },
            {
              "internalType": "bool",
              "name": "support",
              "type": "bool"
            }
          ],
          "internalType": "struct CollectorDAO.Receipt",
          "name": "",
          "type": "tuple"
        }
      ],
      "stateMutability": "view",
      "type": "function"
    },
    {
      "inputs": [],
      "name": "getTokenAddress",
      "outputs": [
        {
          "internalType": "contract CToken",
          "name": "",
          "type": "address"
        }
      ],
      "stateMutability": "view",
      "type": "function"
    },
    {
      "inputs": [],
      "name": "join",
      "outputs": [
        {
          "internalType": "bool",
          "name": "",
          "type": "bool"
        }
      ],
      "stateMutability": "payable",
      "type": "function"
    },
    {
      "inputs": [
        {
          "internalType": "address",
          "name": "",
          "type": "address"
        }
      ],
      "name": "latestProposalIds",
      "outputs": [
        {
          "internalType": "uint256",
          "name": "",
          "type": "uint256"
        }
      ],
      "stateMutability": "view",
      "type": "function"
    },
    {
      "inputs": [],
      "name": "proposalCount",
      "outputs": [
        {
          "internalType": "uint256",
          "name": "",
          "type": "uint256"
        }
      ],
      "stateMutability": "view",
      "type": "function"
    },
    {
      "inputs": [],
      "name": "proposalMaxOperations",
      "outputs": [
        {
          "internalType": "uint256",
          "name": "",
          "type": "uint256"
        }
      ],
      "stateMutability": "pure",
      "type": "function"
    },
    {
      "inputs": [
        {
          "internalType": "uint256",
          "name": "",
          "type": "uint256"
        }
      ],
      "name": "proposals",
      "outputs": [
        {
          "internalType": "uint256",
          "name": "id",
          "type": "uint256"
        },
        {
          "internalType": "address",
          "name": "proposer",
          "type": "address"
        },
        {
          "internalType": "uint256",
          "name": "startBlock",
          "type": "uint256"
        },
        {
          "internalType": "uint256",
          "name": "endBlock",
          "type": "uint256"
        },
        {
          "internalType": "uint256",
          "name": "forVotes",
          "type": "uint256"
        },
        {
          "internalType": "uint256",
          "name": "againstVotes",
          "type": "uint256"
        },
        {
          "internalType": "bool",
          "name": "executed",
          "type": "bool"
        }
      ],
      "stateMutability": "view",
      "type": "function"
    },
    {
      "inputs": [
        {
          "internalType": "address[]",
          "name": "targets",
          "type": "address[]"
        },
        {
          "internalType": "uint256[]",
          "name": "values",
          "type": "uint256[]"
        },
        {
          "internalType": "string[]",
          "name": "signatures",
          "type": "string[]"
        },
        {
          "internalType": "bytes[]",
          "name": "calldatas",
          "type": "bytes[]"
        },
        {
          "internalType": "string",
          "name": "description",
          "type": "string"
        }
      ],
      "name": "propose",
      "outputs": [
        {
          "internalType": "uint256",
          "name": "",
          "type": "uint256"
        }
      ],
      "stateMutability": "payable",
      "type": "function"
    },
    {
      "inputs": [],
      "name": "quorumVotes",
      "outputs": [
        {
          "internalType": "uint256",
          "name": "",
          "type": "uint256"
        }
      ],
      "stateMutability": "pure",
      "type": "function"
    },
    {
      "inputs": [
        {
          "internalType": "uint256",
          "name": "proposalId",
          "type": "uint256"
        }
      ],
      "name": "state",
      "outputs": [
        {
          "internalType": "enum CollectorDAO.ProposalState",
          "name": "",
          "type": "uint8"
        }
      ],
      "stateMutability": "view",
      "type": "function"
    },
    {
      "inputs": [
        {
          "internalType": "address",
          "name": "member",
          "type": "address"
        }
      ],
      "name": "tokenBalance",
      "outputs": [
        {
          "internalType": "uint256",
          "name": "",
          "type": "uint256"
        }
      ],
      "stateMutability": "view",
      "type": "function"
    },
    {
      "inputs": [],
      "name": "votingDelay",
      "outputs": [
        {
          "internalType": "uint256",
          "name": "",
          "type": "uint256"
        }
      ],
      "stateMutability": "pure",
      "type": "function"
    },
    {
      "inputs": [],
      "name": "votingPeriod",
      "outputs": [
        {
          "internalType": "uint256",
          "name": "",
          "type": "uint256"
        }
      ],
      "stateMutability": "pure",
      "type": "function"
    }
  ],
  "bytecode": "0x60806040523480156200001157600080fd5b506040516200002090620000c4565b604051809103906000f0801580156200003d573d6000803e3d6000fd5b506000806101000a81548173ffffffffffffffffffffffffffffffffffffffff021916908373ffffffffffffffffffffffffffffffffffffffff16021790555033600360006101000a81548173ffffffffffffffffffffffffffffffffffffffff021916908373ffffffffffffffffffffffffffffffffffffffff160217905550620000d2565b61239680620034da83390190565b6133f880620000e26000396000f3fe6080604052600436106101095760003560e01c80637bdbe4d011610095578063da35c66411610064578063da35c6641461036f578063da95691a1461039a578063e23a9a52146103ca578063eedc966a14610407578063fe0d94c11461044457610109565b80637bdbe4d0146102d0578063a3f4df7e146102fb578063b688a36314610326578063b69ef8a81461034457610109565b806317977c61116100dc57806317977c61146101d057806324bc1a641461020d5780633932abb1146102385780633e4f49e6146102635780633f579f42146102a057610109565b8063013cf08b1461010e57806302a251a31461015157806310fe9ae81461017c57806315373e3d146101a7575b600080fd5b34801561011a57600080fd5b5061013560048036038101906101309190611f76565b610460565b6040516101489796959493929190612a56565b60405180910390f35b34801561015d57600080fd5b506101666104cf565b604051610173919061298b565b60405180910390f35b34801561018857600080fd5b506101916104d9565b60405161019e9190612718565b60405180910390f35b3480156101b357600080fd5b506101ce60048036038101906101c99190612010565b610502565b005b3480156101dc57600080fd5b506101f760048036038101906101f29190611da6565b610887565b604051610204919061298b565b60405180910390f35b34801561021957600080fd5b5061022261089f565b60405161022f919061298b565b60405180910390f35b34801561024457600080fd5b5061024d6108a8565b60405161025a919061298b565b60405180910390f35b34801561026f57600080fd5b5061028a60048036038101906102859190611f76565b6108b1565b6040516102979190612733565b60405180910390f35b6102ba60048036038101906102b59190611dd3565b6109a1565b6040516102c791906126f6565b60405180910390f35b3480156102dc57600080fd5b506102e5610aec565b6040516102f2919061298b565b60405180910390f35b34801561030757600080fd5b50610310610af5565b60405161031d919061274e565b60405180910390f35b61032e610b2e565b60405161033b91906126db565b60405180910390f35b34801561035057600080fd5b50610359610d86565b604051610366919061298b565b60405180910390f35b34801561037b57600080fd5b50610384610d8c565b604051610391919061298b565b60405180910390f35b6103b460048036038101906103af9190611e42565b610d92565b6040516103c1919061298b565b60405180910390f35b3480156103d657600080fd5b506103f160048036038101906103ec9190611fd0565b611190565b6040516103fe9190612970565b60405180910390f35b34801561041357600080fd5b5061042e60048036038101906104299190611da6565b611231565b60405161043b919061298b565b60405180910390f35b61045e60048036038101906104599190611f76565b6112e4565b005b60066020528060005260406000206000915090508060000154908060010160009054906101000a900473ffffffffffffffffffffffffffffffffffffffff169080600601549080600701549080600801549080600901549080600a0160009054906101000a900460ff16905087565b6000614380905090565b60008060009054906101000a900473ffffffffffffffffffffffffffffffffffffffff16905090565b60011515600160003373ffffffffffffffffffffffffffffffffffffffff1673ffffffffffffffffffffffffffffffffffffffff16815260200190815260200160002060009054906101000a900460ff16151514610595576040517f08c379a000000000000000000000000000000000000000000000000000000000815260040161058c906127f0565b60405180910390fd5b600160068111156105a9576105a8612fcd565b5b6105b2836108b1565b60068111156105c4576105c3612fcd565b5b14610604576040517f08c379a00000000000000000000000000000000000000000000000000000000081526004016105fb90612870565b60405180910390fd5b600033905060006005600085815260200190815260200160002060008373ffffffffffffffffffffffffffffffffffffffff1673ffffffffffffffffffffffffffffffffffffffff1681526020019081526020016000209050600015158160000160009054906101000a900460ff161515146106b5576040517f08c379a00000000000000000000000000000000000000000000000000000000081526004016106ac90612810565b60405180910390fd5b6000670de0b6b3a764000060008054906101000a900473ffffffffffffffffffffffffffffffffffffffff1673ffffffffffffffffffffffffffffffffffffffff1663897ef41f856040518263ffffffff1660e01b81526004016107199190612660565b60206040518083038186803b15801561073157600080fd5b505afa158015610745573d6000803e3d6000fd5b505050506040513d601f19601f820116820180604052508101906107699190611fa3565b6107739190612d9b565b9050600081116107b8576040517f08c379a00000000000000000000000000000000000000000000000000000000081526004016107af90612790565b60405180910390fd5b600060066000878152602001908152602001600020905084156107f2578181600801546107e59190612d45565b816008018190555061080b565b8181600901546108029190612d45565b81600901819055505b60018360000160006101000a81548160ff021916908315150217905550848360000160016101000a81548160ff0219169083151502179055507fd356173ae8eeea8691aee4c1be712c314a975a3d43ebc48b08ca54d0dac91228848787604051610877939291906126a4565b60405180910390a1505050505050565b60076020528060005260406000206000915090505481565b60006003905090565b60006001905090565b600081600454101580156108c55750600082115b610904576040517f08c379a00000000000000000000000000000000000000000000000000000000081526004016108fb90612910565b60405180910390fd5b60006006600084815260200190815260200160002090508060060154431161093057600091505061099c565b8060070154431161094557600191505061099c565b80600901548160080154111580610966575061095f61089f565b8160080154105b1561097557600291505061099c565b80600a0160009054906101000a900460ff161561099657600691505061099c565b60049150505b919050565b60603373ffffffffffffffffffffffffffffffffffffffff16600360009054906101000a900473ffffffffffffffffffffffffffffffffffffffff1673ffffffffffffffffffffffffffffffffffffffff1614610a33576040517f08c379a0000000000000000000000000000000000000000000000000000000008152600401610a2a906128b0565b60405180910390fd5b6000808573ffffffffffffffffffffffffffffffffffffffff168585604051610a5c9190612649565b60006040518083038185875af1925050503d8060008114610a99576040519150601f19603f3d011682016040523d82523d6000602084013e610a9e565b606091505b509150915081610ae3576040517f08c379a0000000000000000000000000000000000000000000000000000000008152600401610ada90612930565b60405180910390fd5b50509392505050565b6000600a905090565b6040518060400160405280600d81526020017f436f6c6c6563746f722044414f0000000000000000000000000000000000000081525081565b6000801515600160003373ffffffffffffffffffffffffffffffffffffffff1673ffffffffffffffffffffffffffffffffffffffff16815260200190815260200160002060009054906101000a900460ff16151514610bc2576040517f08c379a0000000000000000000000000000000000000000000000000000000008152600401610bb990612770565b60405180910390fd5b670de0b6b3a7640000341015610c0d576040517f08c379a0000000000000000000000000000000000000000000000000000000008152600401610c0490612950565b60405180910390fd5b60018060003373ffffffffffffffffffffffffffffffffffffffff1673ffffffffffffffffffffffffffffffffffffffff16815260200190815260200160002060006101000a81548160ff0219169083151502179055503460026000828254610c769190612d45565b9250508190555060008054906101000a900473ffffffffffffffffffffffffffffffffffffffff1673ffffffffffffffffffffffffffffffffffffffff1663a9059cbb33670de0b6b3a76400006040518363ffffffff1660e01b8152600401610ce092919061267b565b602060405180830381600087803b158015610cfa57600080fd5b505af1158015610d0e573d6000803e3d6000fd5b505050506040513d601f19601f82011682018060405250810190610d329190611f49565b503373ffffffffffffffffffffffffffffffffffffffff167f99ff3c8493cc730b7a818210b81af665c9b2bdb63cdf4f2c4108e092dec7a621604051610d77906127d0565b60405180910390a26001905090565b60025481565b60045481565b600060011515600160003373ffffffffffffffffffffffffffffffffffffffff1673ffffffffffffffffffffffffffffffffffffffff16815260200190815260200160002060009054906101000a900460ff16151514610e27576040517f08c379a0000000000000000000000000000000000000000000000000000000008152600401610e1e906127b0565b60405180910390fd5b600086511415610e6c576040517f08c379a0000000000000000000000000000000000000000000000000000000008152600401610e63906128d0565b60405180910390fd5b83518651148015610e7e575082518651145b610ebd576040517f08c379a0000000000000000000000000000000000000000000000000000000008152600401610eb490612830565b60405180910390fd5b610ec5610aec565b86511115610f08576040517f08c379a0000000000000000000000000000000000000000000000000000000008152600401610eff90612850565b60405180910390fd5b6000610f126108a8565b43610f1d9190612d45565b90506000610f296104cf565b82610f349190612d45565b905060046000815480929190610f4990612f26565b9190505550600060405180610160016040528060045481526020013373ffffffffffffffffffffffffffffffffffffffff1681526020018a815260200189815260200188815260200187815260200184815260200183815260200160008152602001600081526020016000151581525090508060066000836000015181526020019081526020016000206000820151816000015560208201518160010160006101000a81548173ffffffffffffffffffffffffffffffffffffffff021916908373ffffffffffffffffffffffffffffffffffffffff1602179055506040820151816002019080519060200190611040929190611603565b50606082015181600301908051906020019061105d92919061168d565b50608082015181600401908051906020019061107a9291906116da565b5060a082015181600501908051906020019061109792919061173a565b5060c0820151816006015560e082015181600701556101008201518160080155610120820151816009015561014082015181600a0160006101000a81548160ff021916908315150217905550905050806000015160076000836020015173ffffffffffffffffffffffffffffffffffffffff1673ffffffffffffffffffffffffffffffffffffffff168152602001908152602001600020819055507f7d84a6263ae0d98d3329bd7b46bb4e8d6f98cd35a7adb45c274c8b7fd5ebd5e08160000151338b8b8b8b89898d604051611175999897969594939291906129a6565b60405180910390a18060000151935050505095945050505050565b61119861179a565b6005600084815260200190815260200160002060008373ffffffffffffffffffffffffffffffffffffffff1673ffffffffffffffffffffffffffffffffffffffff1681526020019081526020016000206040518060400160405290816000820160009054906101000a900460ff161515151581526020016000820160019054906101000a900460ff161515151581525050905092915050565b60008060009054906101000a900473ffffffffffffffffffffffffffffffffffffffff1673ffffffffffffffffffffffffffffffffffffffff166370a08231836040518263ffffffff1660e01b815260040161128d9190612660565b60206040518083038186803b1580156112a557600080fd5b505afa1580156112b9573d6000803e3d6000fd5b505050506040513d601f19601f820116820180604052508101906112dd9190611fa3565b9050919050565b3373ffffffffffffffffffffffffffffffffffffffff16600360009054906101000a900473ffffffffffffffffffffffffffffffffffffffff1673ffffffffffffffffffffffffffffffffffffffff1614611374576040517f08c379a000000000000000000000000000000000000000000000000000000000815260040161136b906128b0565b60405180910390fd5b60006006600083815260200190815260200160002090506002600681111561139f5761139e612fcd565b5b6113a8836108b1565b60068111156113ba576113b9612fcd565b5b1415611402576000611401576040517f08c379a00000000000000000000000000000000000000000000000000000000081526004016113f890612890565b60405180910390fd5b5b6004600681111561141657611415612fcd565b5b61141f836108b1565b600681111561143157611430612fcd565b5b14611471576040517f08c379a0000000000000000000000000000000000000000000000000000000008152600401611468906128f0565b60405180910390fd5b60005b81600201805490508110156115aa5761159682600201828154811061149c5761149b61302b565b5b9060005260206000200160009054906101000a900473ffffffffffffffffffffffffffffffffffffffff168360030183815481106114dd576114dc61302b565b5b90600052602060002001548460050184815481106114fe576114fd61302b565b5b90600052602060002001805461151390612ec3565b80601f016020809104026020016040519081016040528092919081815260200182805461153f90612ec3565b801561158c5780601f106115615761010080835404028352916020019161158c565b820191906000526020600020905b81548152906001019060200180831161156f57829003601f168201915b50505050506109a1565b5080806115a290612f26565b915050611474565b50600181600a0160006101000a81548160ff0219169083151502179055507f712ae1383f79ac853f8d882153778e0260ef8f03b504e2866e0593e04d2b291f826040516115f7919061298b565b60405180910390a15050565b82805482825590600052602060002090810192821561167c579160200282015b8281111561167b5782518260006101000a81548173ffffffffffffffffffffffffffffffffffffffff021916908373ffffffffffffffffffffffffffffffffffffffff16021790555091602001919060010190611623565b5b50905061168991906117b8565b5090565b8280548282559060005260206000209081019282156116c9579160200282015b828111156116c85782518255916020019190600101906116ad565b5b5090506116d691906117b8565b5090565b828054828255906000526020600020908101928215611729579160200282015b828111156117285782518290805190602001906117189291906117d5565b50916020019190600101906116fa565b5b509050611736919061185b565b5090565b828054828255906000526020600020908101928215611789579160200282015b8281111561178857825182908051906020019061177892919061187f565b509160200191906001019061175a565b5b5090506117969190611905565b5090565b60405180604001604052806000151581526020016000151581525090565b5b808211156117d15760008160009055506001016117b9565b5090565b8280546117e190612ec3565b90600052602060002090601f016020900481019282611803576000855561184a565b82601f1061181c57805160ff191683800117855561184a565b8280016001018555821561184a579182015b8281111561184957825182559160200191906001019061182e565b5b50905061185791906117b8565b5090565b5b8082111561187b57600081816118729190611929565b5060010161185c565b5090565b82805461188b90612ec3565b90600052602060002090601f0160209004810192826118ad57600085556118f4565b82601f106118c657805160ff19168380011785556118f4565b828001600101855582156118f4579182015b828111156118f35782518255916020019190600101906118d8565b5b50905061190191906117b8565b5090565b5b80821115611925576000818161191c9190611969565b50600101611906565b5090565b50805461193590612ec3565b6000825580601f106119475750611966565b601f01602090049060005260206000209081019061196591906117b8565b5b50565b50805461197590612ec3565b6000825580601f1061198757506119a6565b601f0160209004906000526020600020908101906119a591906117b8565b5b50565b60006119bc6119b784612aea565b612ac5565b905080838252602082019050828560208602820111156119df576119de61308e565b5b60005b85811015611a0f57816119f58882611c29565b8452602084019350602083019250506001810190506119e2565b5050509392505050565b6000611a2c611a2784612b16565b612ac5565b90508083825260208201905082856020860282011115611a4f57611a4e61308e565b5b60005b85811015611a9d57813567ffffffffffffffff811115611a7557611a74613089565b5b808601611a828982611d20565b85526020850194506020840193505050600181019050611a52565b5050509392505050565b6000611aba611ab584612b42565b612ac5565b90508083825260208201905082856020860282011115611add57611adc61308e565b5b60005b85811015611b2b57813567ffffffffffffffff811115611b0357611b02613089565b5b808601611b108982611d4e565b85526020850194506020840193505050600181019050611ae0565b5050509392505050565b6000611b48611b4384612b6e565b612ac5565b90508083825260208201905082856020860282011115611b6b57611b6a61308e565b5b60005b85811015611b9b5781611b818882611d7c565b845260208401935060208301925050600181019050611b6e565b5050509392505050565b6000611bb8611bb384612b9a565b612ac5565b905082815260208101848484011115611bd457611bd3613093565b5b611bdf848285612e81565b509392505050565b6000611bfa611bf584612bcb565b612ac5565b905082815260208101848484011115611c1657611c15613093565b5b611c21848285612e81565b509392505050565b600081359050611c388161337d565b92915050565b600082601f830112611c5357611c52613089565b5b8135611c638482602086016119a9565b91505092915050565b600082601f830112611c8157611c80613089565b5b8135611c91848260208601611a19565b91505092915050565b600082601f830112611caf57611cae613089565b5b8135611cbf848260208601611aa7565b91505092915050565b600082601f830112611cdd57611cdc613089565b5b8135611ced848260208601611b35565b91505092915050565b600081359050611d0581613394565b92915050565b600081519050611d1a81613394565b92915050565b600082601f830112611d3557611d34613089565b5b8135611d45848260208601611ba5565b91505092915050565b600082601f830112611d6357611d62613089565b5b8135611d73848260208601611be7565b91505092915050565b600081359050611d8b816133ab565b92915050565b600081519050611da0816133ab565b92915050565b600060208284031215611dbc57611dbb61309d565b5b6000611dca84828501611c29565b91505092915050565b600080600060608486031215611dec57611deb61309d565b5b6000611dfa86828701611c29565b9350506020611e0b86828701611d7c565b925050604084013567ffffffffffffffff811115611e2c57611e2b613098565b5b611e3886828701611d20565b9150509250925092565b600080600080600060a08688031215611e5e57611e5d61309d565b5b600086013567ffffffffffffffff811115611e7c57611e7b613098565b5b611e8888828901611c3e565b955050602086013567ffffffffffffffff811115611ea957611ea8613098565b5b611eb588828901611cc8565b945050604086013567ffffffffffffffff811115611ed657611ed5613098565b5b611ee288828901611c9a565b935050606086013567ffffffffffffffff811115611f0357611f02613098565b5b611f0f88828901611c6c565b925050608086013567ffffffffffffffff811115611f3057611f2f613098565b5b611f3c88828901611d4e565b9150509295509295909350565b600060208284031215611f5f57611f5e61309d565b5b6000611f6d84828501611d0b565b91505092915050565b600060208284031215611f8c57611f8b61309d565b5b6000611f9a84828501611d7c565b91505092915050565b600060208284031215611fb957611fb861309d565b5b6000611fc784828501611d91565b91505092915050565b60008060408385031215611fe757611fe661309d565b5b6000611ff585828601611d7c565b925050602061200685828601611c29565b9150509250929050565b600080604083850312156120275761202661309d565b5b600061203585828601611d7c565b925050602061204685828601611cf6565b9150509250929050565b600061205c83836120a8565b60208301905092915050565b6000612074838361228a565b905092915050565b6000612088838361235a565b905092915050565b600061209c838361262b565b60208301905092915050565b6120b181612dcc565b82525050565b6120c081612dcc565b82525050565b60006120d182612c3c565b6120db8185612cb2565b93506120e683612bfc565b8060005b838110156121175781516120fe8882612050565b975061210983612c7e565b9250506001810190506120ea565b5085935050505092915050565b600061212f82612c47565b6121398185612cc3565b93508360208202850161214b85612c0c565b8060005b8581101561218757848403895281516121688582612068565b945061217383612c8b565b925060208a0199505060018101905061214f565b50829750879550505050505092915050565b60006121a482612c52565b6121ae8185612cd4565b9350836020820285016121c085612c1c565b8060005b858110156121fc57848403895281516121dd858261207c565b94506121e883612c98565b925060208a019950506001810190506121c4565b50829750879550505050505092915050565b600061221982612c5d565b6122238185612ce5565b935061222e83612c2c565b8060005b8381101561225f5781516122468882612090565b975061225183612ca5565b925050600181019050612232565b5085935050505092915050565b61227581612dde565b82525050565b61228481612dde565b82525050565b600061229582612c68565b61229f8185612cf6565b93506122af818560208601612e90565b6122b8816130a2565b840191505092915050565b60006122ce82612c68565b6122d88185612d07565b93506122e8818560208601612e90565b6122f1816130a2565b840191505092915050565b600061230782612c68565b6123118185612d18565b9350612321818560208601612e90565b80840191505092915050565b61233681612e27565b82525050565b61234581612e39565b82525050565b61235481612e4b565b82525050565b600061236582612c73565b61236f8185612d23565b935061237f818560208601612e90565b612388816130a2565b840191505092915050565b600061239e82612c73565b6123a88185612d34565b93506123b8818560208601612e90565b6123c1816130a2565b840191505092915050565b60006123d9601083612d34565b91506123e4826130b3565b602082019050919050565b60006123fc602083612d34565b9150612407826130dc565b602082019050919050565b600061241f601583612d34565b915061242a82613105565b602082019050919050565b6000612442600d83612d34565b915061244d8261312e565b602082019050919050565b6000612465601483612d34565b915061247082613157565b602082019050919050565b6000612488600d83612d34565b915061249382613180565b602082019050919050565b60006124ab602083612d34565b91506124b6826131a9565b602082019050919050565b60006124ce602283612d34565b91506124d9826131d2565b604082019050919050565b60006124f1601983612d34565b91506124fc82613221565b602082019050919050565b6000612514601183612d34565b915061251f8261324a565b602082019050919050565b6000612537601183612d34565b915061254282613273565b602082019050919050565b600061255a601d83612d34565b91506125658261329c565b602082019050919050565b600061257d601183612d34565b9150612588826132c5565b602082019050919050565b60006125a0601383612d34565b91506125ab826132ee565b602082019050919050565b60006125c3601b83612d34565b91506125ce82613317565b602082019050919050565b60006125e6601f83612d34565b91506125f182613340565b602082019050919050565b604082016000820151612612600085018261226c565b506020820151612625602085018261226c565b50505050565b61263481612e1d565b82525050565b61264381612e1d565b82525050565b600061265582846122fc565b915081905092915050565b600060208201905061267560008301846120b7565b92915050565b600060408201905061269060008301856120b7565b61269d602083018461234b565b9392505050565b60006060820190506126b960008301866120b7565b6126c6602083018561263a565b6126d3604083018461227b565b949350505050565b60006020820190506126f0600083018461227b565b92915050565b6000602082019050818103600083015261271081846122c3565b905092915050565b600060208201905061272d600083018461232d565b92915050565b6000602082019050612748600083018461233c565b92915050565b600060208201905081810360008301526127688184612393565b905092915050565b60006020820190508181036000830152612789816123cc565b9050919050565b600060208201905081810360008301526127a9816123ef565b9050919050565b600060208201905081810360008301526127c981612412565b9050919050565b600060208201905081810360008301526127e981612435565b9050919050565b6000602082019050818103600083015261280981612458565b9050919050565b600060208201905081810360008301526128298161247b565b9050919050565b600060208201905081810360008301526128498161249e565b9050919050565b60006020820190508181036000830152612869816124c1565b9050919050565b60006020820190508181036000830152612889816124e4565b9050919050565b600060208201905081810360008301526128a981612507565b9050919050565b600060208201905081810360008301526128c98161252a565b9050919050565b600060208201905081810360008301526128e98161254d565b9050919050565b6000602082019050818103600083015261290981612570565b9050919050565b6000602082019050818103600083015261292981612593565b9050919050565b60006020820190508181036000830152612949816125b6565b9050919050565b60006020820190508181036000830152612969816125d9565b9050919050565b600060408201905061298560008301846125fc565b92915050565b60006020820190506129a0600083018461263a565b92915050565b6000610120820190506129bc600083018c61263a565b6129c9602083018b6120b7565b81810360408301526129db818a6120c6565b905081810360608301526129ef818961220e565b90508181036080830152612a038188612199565b905081810360a0830152612a178187612124565b9050612a2660c083018661263a565b612a3360e083018561263a565b818103610100830152612a468184612393565b90509a9950505050505050505050565b600060e082019050612a6b600083018a61263a565b612a7860208301896120b7565b612a85604083018861263a565b612a92606083018761263a565b612a9f608083018661263a565b612aac60a083018561263a565b612ab960c083018461227b565b98975050505050505050565b6000612acf612ae0565b9050612adb8282612ef5565b919050565b6000604051905090565b600067ffffffffffffffff821115612b0557612b0461305a565b5b602082029050602081019050919050565b600067ffffffffffffffff821115612b3157612b3061305a565b5b602082029050602081019050919050565b600067ffffffffffffffff821115612b5d57612b5c61305a565b5b602082029050602081019050919050565b600067ffffffffffffffff821115612b8957612b8861305a565b5b602082029050602081019050919050565b600067ffffffffffffffff821115612bb557612bb461305a565b5b612bbe826130a2565b9050602081019050919050565b600067ffffffffffffffff821115612be657612be561305a565b5b612bef826130a2565b9050602081019050919050565b6000819050602082019050919050565b6000819050602082019050919050565b6000819050602082019050919050565b6000819050602082019050919050565b600081519050919050565b600081519050919050565b600081519050919050565b600081519050919050565b600081519050919050565b600081519050919050565b6000602082019050919050565b6000602082019050919050565b6000602082019050919050565b6000602082019050919050565b600082825260208201905092915050565b600082825260208201905092915050565b600082825260208201905092915050565b600082825260208201905092915050565b600082825260208201905092915050565b600082825260208201905092915050565b600081905092915050565b600082825260208201905092915050565b600082825260208201905092915050565b6000612d5082612e1d565b9150612d5b83612e1d565b9250827fffffffffffffffffffffffffffffffffffffffffffffffffffffffffffffffff03821115612d9057612d8f612f6f565b5b828201905092915050565b6000612da682612e1d565b9150612db183612e1d565b925082612dc157612dc0612f9e565b5b828204905092915050565b6000612dd782612dfd565b9050919050565b60008115159050919050565b6000819050612df882613369565b919050565b600073ffffffffffffffffffffffffffffffffffffffff82169050919050565b6000819050919050565b6000612e3282612e5d565b9050919050565b6000612e4482612dea565b9050919050565b6000612e5682612e1d565b9050919050565b6000612e6882612e6f565b9050919050565b6000612e7a82612dfd565b9050919050565b82818337600083830152505050565b60005b83811015612eae578082015181840152602081019050612e93565b83811115612ebd576000848401525b50505050565b60006002820490506001821680612edb57607f821691505b60208210811415612eef57612eee612ffc565b5b50919050565b612efe826130a2565b810181811067ffffffffffffffff82111715612f1d57612f1c61305a565b5b80604052505050565b6000612f3182612e1d565b91507fffffffffffffffffffffffffffffffffffffffffffffffffffffffffffffffff821415612f6457612f63612f6f565b5b600182019050919050565b7f4e487b7100000000000000000000000000000000000000000000000000000000600052601160045260246000fd5b7f4e487b7100000000000000000000000000000000000000000000000000000000600052601260045260246000fd5b7f4e487b7100000000000000000000000000000000000000000000000000000000600052602160045260246000fd5b7f4e487b7100000000000000000000000000000000000000000000000000000000600052602260045260246000fd5b7f4e487b7100000000000000000000000000000000000000000000000000000000600052603260045260246000fd5b7f4e487b7100000000000000000000000000000000000000000000000000000000600052604160045260246000fd5b600080fd5b600080fd5b600080fd5b600080fd5b600080fd5b6000601f19601f8301169050919050565b7f4e4f545f415f4e45575f4d454d42455200000000000000000000000000000000600082015250565b7f4e4f545f484156494e475f454e4f5547485f564f54494e475f42414c414e4345600082015250565b7f4d454d4245525f4e4f545f524547495354455245440000000000000000000000600082015250565b7f4d656d626572204a6f696e656400000000000000000000000000000000000000600082015250565b7f564f5445525f4e4f545f52454749535445524544000000000000000000000000600082015250565b7f414c52454144595f564f54454400000000000000000000000000000000000000600082015250565b7f50524f504f53414c5f46554e4354494f4e5f41524954595f4d49534d41544348600082015250565b7f50524f504f53414c5f50524f56494445445f544f4f5f4d414e595f414354494f60008201527f4e53000000000000000000000000000000000000000000000000000000000000602082015250565b7f564f54494e475f4c494e45535f4152455f4e4f545f4f50454e00000000000000600082015250565b7f50524f504f53414c5f4445464541544544000000000000000000000000000000600082015250565b7f524553545249435445445f414343455353000000000000000000000000000000600082015250565b7f50524f504f53414c5f4d5553545f50524f564944455f414354494f4e53000000600082015250565b7f50524f504f53414c5f494e5f5155455545000000000000000000000000000000600082015250565b7f494e56414c49445f50524f504f53414c5f494400000000000000000000000000600082015250565b7f455845435554455f5452414e53414354494f4e5f4641494c45442e0000000000600082015250565b7f4d494e494d554d5f4d454d424552534849505f4645455f524551554952454400600082015250565b6007811061337a57613379612fcd565b5b50565b61338681612dcc565b811461339157600080fd5b50565b61339d81612dde565b81146133a857600080fd5b50565b6133b481612e1d565b81146133bf57600080fd5b5056fea26469706673582212201bde30cb594934c01e56986b395e1266e115c55c916fa7fdc2babb062b251df964736f6c6343000807003360806040523480156200001157600080fd5b506040518060400160405280600f81526020017f436f6c6c6563746f7220546f6b656e00000000000000000000000000000000008152506040518060400160405280600381526020017f435452000000000000000000000000000000000000000000000000000000000081525081600390805190602001906200009692919062000281565b508060049080519060200190620000af92919062000281565b505050620000ef33620000c7620000f560201b60201c565b600a620000d5919062000471565b600a620000e39190620005ae565b620000fe60201b60201c565b620006f0565b60006012905090565b600073ffffffffffffffffffffffffffffffffffffffff168273ffffffffffffffffffffffffffffffffffffffff16141562000171576040517f08c379a0000000000000000000000000000000000000000000000000000000008152600401620001689062000369565b60405180910390fd5b62000185600083836200027760201b60201c565b8060026000828254620001999190620003b9565b92505081905550806000808473ffffffffffffffffffffffffffffffffffffffff1673ffffffffffffffffffffffffffffffffffffffff1681526020019081526020016000206000828254620001f09190620003b9565b925050819055508173ffffffffffffffffffffffffffffffffffffffff16600073ffffffffffffffffffffffffffffffffffffffff167fddf252ad1be2c89b69c2b068fc378daa952ba7f163c4a11628f55a4df523b3ef836040516200025791906200038b565b60405180910390a362000273600083836200027c60201b60201c565b5050565b505050565b505050565b8280546200028f9062000626565b90600052602060002090601f016020900481019282620002b35760008555620002ff565b82601f10620002ce57805160ff1916838001178555620002ff565b82800160010185558215620002ff579182015b82811115620002fe578251825591602001919060010190620002e1565b5b5090506200030e919062000312565b5090565b5b808211156200032d57600081600090555060010162000313565b5090565b600062000340601f83620003a8565b91506200034d82620006c7565b602082019050919050565b62000363816200060f565b82525050565b60006020820190508181036000830152620003848162000331565b9050919050565b6000602082019050620003a2600083018462000358565b92915050565b600082825260208201905092915050565b6000620003c6826200060f565b9150620003d3836200060f565b9250827fffffffffffffffffffffffffffffffffffffffffffffffffffffffffffffffff038211156200040b576200040a6200065c565b5b828201905092915050565b6000808291508390505b6001851115620004685780860481111562000440576200043f6200065c565b5b6001851615620004505780820291505b80810290506200046085620006ba565b945062000420565b94509492505050565b60006200047e826200060f565b91506200048b8362000619565b9250620004ba7fffffffffffffffffffffffffffffffffffffffffffffffffffffffffffffffff8484620004c2565b905092915050565b600082620004d45760019050620005a7565b81620004e45760009050620005a7565b8160018114620004fd576002811462000508576200053e565b6001915050620005a7565b60ff8411156200051d576200051c6200065c565b5b8360020a9150848211156200053757620005366200065c565b5b50620005a7565b5060208310610133831016604e8410600b8410161715620005785782820a9050838111156200057257620005716200065c565b5b620005a7565b62000587848484600162000416565b92509050818404811115620005a157620005a06200065c565b5b81810290505b9392505050565b6000620005bb826200060f565b9150620005c8836200060f565b9250817fffffffffffffffffffffffffffffffffffffffffffffffffffffffffffffffff04831182151516156200060457620006036200065c565b5b828202905092915050565b6000819050919050565b600060ff82169050919050565b600060028204905060018216806200063f57607f821691505b602082108114156200065657620006556200068b565b5b50919050565b7f4e487b7100000000000000000000000000000000000000000000000000000000600052601160045260246000fd5b7f4e487b7100000000000000000000000000000000000000000000000000000000600052602260045260246000fd5b60008160011c9050919050565b7f45524332303a206d696e7420746f20746865207a65726f206164647265737300600082015250565b611c9680620007006000396000f3fe608060405234801561001057600080fd5b50600436106101005760003560e01c80635e035355116100975780639dc29fac116100665780639dc29fac146102e9578063a457c2d714610319578063a9059cbb14610349578063dd62ed3e1461037957610100565b80635e0353551461023b57806370a082311461026b578063897ef41f1461029b57806395d89b41146102cb57610100565b8063313ce567116100d3578063313ce567146101a157806339509351146101bf578063587cde1e146101ef5780635c19a95c1461021f57610100565b806306fdde0314610105578063095ea7b31461012357806318160ddd1461015357806323b872dd14610171575b600080fd5b61010d6103a9565b60405161011a91906115d6565b60405180910390f35b61013d6004803603810190610138919061138d565b61043b565b60405161014a91906115bb565b60405180910390f35b61015b610459565b6040516101689190611738565b60405180910390f35b61018b6004803603810190610186919061133a565b610463565b60405161019891906115bb565b60405180910390f35b6101a961055b565b6040516101b69190611753565b60405180910390f35b6101d960048036038101906101d4919061138d565b610564565b6040516101e691906115bb565b60405180910390f35b610209600480360381019061020491906112cd565b610610565b60405161021691906115a0565b60405180910390f35b610239600480360381019061023491906112cd565b610643565b005b610255600480360381019061025091906112cd565b6108dc565b6040516102629190611738565b60405180910390f35b610285600480360381019061028091906112cd565b6108f4565b6040516102929190611738565b60405180910390f35b6102b560048036038101906102b091906112cd565b61093c565b6040516102c29190611738565b60405180910390f35b6102d3610985565b6040516102e091906115d6565b60405180910390f35b61030360048036038101906102fe919061138d565b610a17565b60405161031091906115bb565b60405180910390f35b610333600480360381019061032e919061138d565b610a71565b60405161034091906115bb565b60405180910390f35b610363600480360381019061035e919061138d565b610b5c565b60405161037091906115bb565b60405180910390f35b610393600480360381019061038e91906112fa565b610bc9565b6040516103a09190611738565b60405180910390f35b6060600380546103b89061189c565b80601f01602080910402602001604051908101604052809291908181526020018280546103e49061189c565b80156104315780601f1061040657610100808354040283529160200191610431565b820191906000526020600020905b81548152906001019060200180831161041457829003601f168201915b5050505050905090565b600061044f610448610c50565b8484610c58565b6001905092915050565b6000600254905090565b6000610470848484610e23565b6000600160008673ffffffffffffffffffffffffffffffffffffffff1673ffffffffffffffffffffffffffffffffffffffff16815260200190815260200160002060006104bb610c50565b73ffffffffffffffffffffffffffffffffffffffff1673ffffffffffffffffffffffffffffffffffffffff1681526020019081526020016000205490508281101561053b576040517f08c379a000000000000000000000000000000000000000000000000000000000815260040161053290611698565b60405180910390fd5b61054f85610547610c50565b858403610c58565b60019150509392505050565b60006012905090565b6000610606610571610c50565b84846001600061057f610c50565b73ffffffffffffffffffffffffffffffffffffffff1673ffffffffffffffffffffffffffffffffffffffff16815260200190815260200160002060008873ffffffffffffffffffffffffffffffffffffffff1673ffffffffffffffffffffffffffffffffffffffff16815260200190815260200160002054610601919061178a565b610c58565b6001905092915050565b60056020528060005260406000206000915054906101000a900473ffffffffffffffffffffffffffffffffffffffff1681565b60003390506000600660008373ffffffffffffffffffffffffffffffffffffffff1673ffffffffffffffffffffffffffffffffffffffff16815260200190815260200160002054116106ca576040517f08c379a00000000000000000000000000000000000000000000000000000000081526004016106c190611638565b60405180910390fd5b6000600560008373ffffffffffffffffffffffffffffffffffffffff1673ffffffffffffffffffffffffffffffffffffffff16815260200190815260200160002060009054906101000a900473ffffffffffffffffffffffffffffffffffffffff16905082600560008473ffffffffffffffffffffffffffffffffffffffff1673ffffffffffffffffffffffffffffffffffffffff16815260200190815260200160002060006101000a81548173ffffffffffffffffffffffffffffffffffffffff021916908373ffffffffffffffffffffffffffffffffffffffff16021790555060006107b7836108f4565b905080600660008573ffffffffffffffffffffffffffffffffffffffff1673ffffffffffffffffffffffffffffffffffffffff168152602001908152602001600020600082825461080891906117e0565b9250508190555080600660008673ffffffffffffffffffffffffffffffffffffffff1673ffffffffffffffffffffffffffffffffffffffff168152602001908152602001600020600082825461085e919061178a565b925050819055508373ffffffffffffffffffffffffffffffffffffffff168273ffffffffffffffffffffffffffffffffffffffff168473ffffffffffffffffffffffffffffffffffffffff167f3134e8a2e6d97e929a7e54011ea5485d7d196dd5f0ba4d4ef95803e8e3fc257f60405160405180910390a450505050565b60066020528060005260406000206000915090505481565b60008060008373ffffffffffffffffffffffffffffffffffffffff1673ffffffffffffffffffffffffffffffffffffffff168152602001908152602001600020549050919050565b6000600660008373ffffffffffffffffffffffffffffffffffffffff1673ffffffffffffffffffffffffffffffffffffffff168152602001908152602001600020549050919050565b6060600480546109949061189c565b80601f01602080910402602001604051908101604052809291908181526020018280546109c09061189c565b8015610a0d5780601f106109e257610100808354040283529160200191610a0d565b820191906000526020600020905b8154815290600101906020018083116109f057829003601f168201915b5050505050905090565b600080600660008573ffffffffffffffffffffffffffffffffffffffff1673ffffffffffffffffffffffffffffffffffffffff16815260200190815260200160002081905550610a6783836110a4565b6001905092915050565b60008060016000610a80610c50565b73ffffffffffffffffffffffffffffffffffffffff1673ffffffffffffffffffffffffffffffffffffffff16815260200190815260200160002060008573ffffffffffffffffffffffffffffffffffffffff1673ffffffffffffffffffffffffffffffffffffffff16815260200190815260200160002054905082811015610b3d576040517f08c379a0000000000000000000000000000000000000000000000000000000008152600401610b3490611718565b60405180910390fd5b610b51610b48610c50565b85858403610c58565b600191505092915050565b600081600660008573ffffffffffffffffffffffffffffffffffffffff1673ffffffffffffffffffffffffffffffffffffffff1681526020019081526020016000206000828254610bad919061178a565b92505081905550610bbe838361127b565b506001905092915050565b6000600160008473ffffffffffffffffffffffffffffffffffffffff1673ffffffffffffffffffffffffffffffffffffffff16815260200190815260200160002060008373ffffffffffffffffffffffffffffffffffffffff1673ffffffffffffffffffffffffffffffffffffffff16815260200190815260200160002054905092915050565b600033905090565b600073ffffffffffffffffffffffffffffffffffffffff168373ffffffffffffffffffffffffffffffffffffffff161415610cc8576040517f08c379a0000000000000000000000000000000000000000000000000000000008152600401610cbf906116f8565b60405180910390fd5b600073ffffffffffffffffffffffffffffffffffffffff168273ffffffffffffffffffffffffffffffffffffffff161415610d38576040517f08c379a0000000000000000000000000000000000000000000000000000000008152600401610d2f90611658565b60405180910390fd5b80600160008573ffffffffffffffffffffffffffffffffffffffff1673ffffffffffffffffffffffffffffffffffffffff16815260200190815260200160002060008473ffffffffffffffffffffffffffffffffffffffff1673ffffffffffffffffffffffffffffffffffffffff168152602001908152602001600020819055508173ffffffffffffffffffffffffffffffffffffffff168373ffffffffffffffffffffffffffffffffffffffff167f8c5be1e5ebec7d5bd14f71427d1e84f3dd0314c0f7b2291e5b200ac8c7c3b92583604051610e169190611738565b60405180910390a3505050565b600073ffffffffffffffffffffffffffffffffffffffff168373ffffffffffffffffffffffffffffffffffffffff161415610e93576040517f08c379a0000000000000000000000000000000000000000000000000000000008152600401610e8a906116d8565b60405180910390fd5b600073ffffffffffffffffffffffffffffffffffffffff168273ffffffffffffffffffffffffffffffffffffffff161415610f03576040517f08c379a0000000000000000000000000000000000000000000000000000000008152600401610efa906115f8565b60405180910390fd5b610f0e838383611299565b60008060008573ffffffffffffffffffffffffffffffffffffffff1673ffffffffffffffffffffffffffffffffffffffff16815260200190815260200160002054905081811015610f94576040517f08c379a0000000000000000000000000000000000000000000000000000000008152600401610f8b90611678565b60405180910390fd5b8181036000808673ffffffffffffffffffffffffffffffffffffffff1673ffffffffffffffffffffffffffffffffffffffff16815260200190815260200160002081905550816000808573ffffffffffffffffffffffffffffffffffffffff1673ffffffffffffffffffffffffffffffffffffffff1681526020019081526020016000206000828254611027919061178a565b925050819055508273ffffffffffffffffffffffffffffffffffffffff168473ffffffffffffffffffffffffffffffffffffffff167fddf252ad1be2c89b69c2b068fc378daa952ba7f163c4a11628f55a4df523b3ef8460405161108b9190611738565b60405180910390a361109e84848461129e565b50505050565b600073ffffffffffffffffffffffffffffffffffffffff168273ffffffffffffffffffffffffffffffffffffffff161415611114576040517f08c379a000000000000000000000000000000000000000000000000000000000815260040161110b906116b8565b60405180910390fd5b61112082600083611299565b60008060008473ffffffffffffffffffffffffffffffffffffffff1673ffffffffffffffffffffffffffffffffffffffff168152602001908152602001600020549050818110156111a6576040517f08c379a000000000000000000000000000000000000000000000000000000000815260040161119d90611618565b60405180910390fd5b8181036000808573ffffffffffffffffffffffffffffffffffffffff1673ffffffffffffffffffffffffffffffffffffffff1681526020019081526020016000208190555081600260008282546111fd91906117e0565b92505081905550600073ffffffffffffffffffffffffffffffffffffffff168373ffffffffffffffffffffffffffffffffffffffff167fddf252ad1be2c89b69c2b068fc378daa952ba7f163c4a11628f55a4df523b3ef846040516112629190611738565b60405180910390a36112768360008461129e565b505050565b600061128f611288610c50565b8484610e23565b6001905092915050565b505050565b505050565b6000813590506112b281611c32565b92915050565b6000813590506112c781611c49565b92915050565b6000602082840312156112e3576112e261192c565b5b60006112f1848285016112a3565b91505092915050565b600080604083850312156113115761131061192c565b5b600061131f858286016112a3565b9250506020611330858286016112a3565b9150509250929050565b6000806000606084860312156113535761135261192c565b5b6000611361868287016112a3565b9350506020611372868287016112a3565b9250506040611383868287016112b8565b9150509250925092565b600080604083850312156113a4576113a361192c565b5b60006113b2858286016112a3565b92505060206113c3858286016112b8565b9150509250929050565b6113d681611814565b82525050565b6113e581611826565b82525050565b60006113f68261176e565b6114008185611779565b9350611410818560208601611869565b61141981611931565b840191505092915050565b6000611431602383611779565b915061143c82611942565b604082019050919050565b6000611454602283611779565b915061145f82611991565b604082019050919050565b6000611477601f83611779565b9150611482826119e0565b602082019050919050565b600061149a602283611779565b91506114a582611a09565b604082019050919050565b60006114bd602683611779565b91506114c882611a58565b604082019050919050565b60006114e0602883611779565b91506114eb82611aa7565b604082019050919050565b6000611503602183611779565b915061150e82611af6565b604082019050919050565b6000611526602583611779565b915061153182611b45565b604082019050919050565b6000611549602483611779565b915061155482611b94565b604082019050919050565b600061156c602583611779565b915061157782611be3565b604082019050919050565b61158b81611852565b82525050565b61159a8161185c565b82525050565b60006020820190506115b560008301846113cd565b92915050565b60006020820190506115d060008301846113dc565b92915050565b600060208201905081810360008301526115f081846113eb565b905092915050565b6000602082019050818103600083015261161181611424565b9050919050565b6000602082019050818103600083015261163181611447565b9050919050565b600060208201905081810360008301526116518161146a565b9050919050565b600060208201905081810360008301526116718161148d565b9050919050565b60006020820190508181036000830152611691816114b0565b9050919050565b600060208201905081810360008301526116b1816114d3565b9050919050565b600060208201905081810360008301526116d1816114f6565b9050919050565b600060208201905081810360008301526116f181611519565b9050919050565b600060208201905081810360008301526117118161153c565b9050919050565b600060208201905081810360008301526117318161155f565b9050919050565b600060208201905061174d6000830184611582565b92915050565b60006020820190506117686000830184611591565b92915050565b600081519050919050565b600082825260208201905092915050565b600061179582611852565b91506117a083611852565b9250827fffffffffffffffffffffffffffffffffffffffffffffffffffffffffffffffff038211156117d5576117d46118ce565b5b828201905092915050565b60006117eb82611852565b91506117f683611852565b925082821015611809576118086118ce565b5b828203905092915050565b600061181f82611832565b9050919050565b60008115159050919050565b600073ffffffffffffffffffffffffffffffffffffffff82169050919050565b6000819050919050565b600060ff82169050919050565b60005b8381101561188757808201518184015260208101905061186c565b83811115611896576000848401525b50505050565b600060028204905060018216806118b457607f821691505b602082108114156118c8576118c76118fd565b5b50919050565b7f4e487b7100000000000000000000000000000000000000000000000000000000600052601160045260246000fd5b7f4e487b7100000000000000000000000000000000000000000000000000000000600052602260045260246000fd5b600080fd5b6000601f19601f8301169050919050565b7f45524332303a207472616e7366657220746f20746865207a65726f206164647260008201527f6573730000000000000000000000000000000000000000000000000000000000602082015250565b7f45524332303a206275726e20616d6f756e7420657863656564732062616c616e60008201527f6365000000000000000000000000000000000000000000000000000000000000602082015250565b7f44454c454741544f525f4841535f4e4f5f564f54494e475f42414c414e434500600082015250565b7f45524332303a20617070726f766520746f20746865207a65726f20616464726560008201527f7373000000000000000000000000000000000000000000000000000000000000602082015250565b7f45524332303a207472616e7366657220616d6f756e742065786365656473206260008201527f616c616e63650000000000000000000000000000000000000000000000000000602082015250565b7f45524332303a207472616e7366657220616d6f756e742065786365656473206160008201527f6c6c6f77616e6365000000000000000000000000000000000000000000000000602082015250565b7f45524332303a206275726e2066726f6d20746865207a65726f2061646472657360008201527f7300000000000000000000000000000000000000000000000000000000000000602082015250565b7f45524332303a207472616e736665722066726f6d20746865207a65726f20616460008201527f6472657373000000000000000000000000000000000000000000000000000000602082015250565b7f45524332303a20617070726f76652066726f6d20746865207a65726f2061646460008201527f7265737300000000000000000000000000000000000000000000000000000000602082015250565b7f45524332303a2064656372656173656420616c6c6f77616e63652062656c6f7760008201527f207a65726f000000000000000000000000000000000000000000000000000000602082015250565b611c3b81611814565b8114611c4657600080fd5b50565b611c5281611852565b8114611c5d57600080fd5b5056fea26469706673582212206b325d659e6651da1f6295895db0e342a411d9e1a69db375cdc99c42caa27bd664736f6c63430008070033",
  "linkReferences": {},
  "deployedLinkReferences": {}
}